{
	"Params.sol": {
		"Params": {
			"abi": [
				{
					"inputs": [],
					"name": "MaxValidators",
					"outputs": [
						{
							"internalType": "uint16",
							"name": "",
							"type": "uint16"
						}
					],
					"stateMutability": "view",
					"type": "function"
				},
				{
					"inputs": [],
					"name": "MinimalStakingCoin",
					"outputs": [
						{
							"internalType": "uint256",
							"name": "",
							"type": "uint256"
						}
					],
					"stateMutability": "view",
					"type": "function"
				},
				{
					"inputs": [],
					"name": "ProposalAddr",
					"outputs": [
						{
							"internalType": "address",
							"name": "",
							"type": "address"
						}
					],
					"stateMutability": "view",
					"type": "function"
				},
				{
					"inputs": [],
					"name": "PunishContractAddr",
					"outputs": [
						{
							"internalType": "address",
							"name": "",
							"type": "address"
						}
					],
					"stateMutability": "view",
					"type": "function"
				},
				{
					"inputs": [],
					"name": "StakingLockPeriod",
					"outputs": [
						{
							"internalType": "uint64",
							"name": "",
							"type": "uint64"
						}
					],
					"stateMutability": "view",
					"type": "function"
				},
				{
					"inputs": [],
					"name": "ValidatorContractAddr",
					"outputs": [
						{
							"internalType": "address",
							"name": "",
							"type": "address"
						}
					],
					"stateMutability": "view",
					"type": "function"
				},
				{
					"inputs": [],
					"name": "burnPartPercent",
					"outputs": [
						{
							"internalType": "uint256",
							"name": "",
							"type": "uint256"
						}
					],
					"stateMutability": "view",
					"type": "function"
				},
				{
					"inputs": [],
					"name": "burnStopAmount",
					"outputs": [
						{
							"internalType": "uint256",
							"name": "",
							"type": "uint256"
						}
					],
					"stateMutability": "view",
					"type": "function"
				},
				{
					"inputs": [],
					"name": "contractPartPercent",
					"outputs": [
						{
							"internalType": "uint256",
							"name": "",
							"type": "uint256"
						}
					],
					"stateMutability": "view",
					"type": "function"
				},
				{
					"inputs": [],
					"name": "initialized",
					"outputs": [
						{
							"internalType": "bool",
							"name": "",
							"type": "bool"
						}
					],
					"stateMutability": "view",
					"type": "function"
				},
				{
					"inputs": [],
					"name": "minimumValidatorStaking",
					"outputs": [
						{
							"internalType": "uint256",
							"name": "",
							"type": "uint256"
						}
					],
					"stateMutability": "view",
					"type": "function"
				},
				{
					"inputs": [],
					"name": "ownerPartPercent",
					"outputs": [
						{
							"internalType": "uint256",
							"name": "",
							"type": "uint256"
						}
					],
					"stateMutability": "view",
					"type": "function"
				},
				{
					"inputs": [],
					"name": "stakerPartPercent",
					"outputs": [
						{
							"internalType": "uint256",
							"name": "",
							"type": "uint256"
						}
					],
					"stateMutability": "view",
					"type": "function"
				},
				{
					"inputs": [],
					"name": "totalBurnt",
					"outputs": [
						{
							"internalType": "uint256",
							"name": "",
							"type": "uint256"
						}
					],
					"stateMutability": "view",
					"type": "function"
				},
				{
					"inputs": [],
					"name": "validatorPartPercent",
					"outputs": [
						{
							"internalType": "uint256",
							"name": "",
							"type": "uint256"
						}
					],
					"stateMutability": "view",
					"type": "function"
				}
			],
			"devdoc": {
				"kind": "dev",
				"methods": {},
				"version": 1
			},
			"evm": {
				"assembly": "    /* \"Params.sol\":57:2285  contract Params {... */\n  mstore(0x40, 0x80)\n  callvalue\n  dup1\n  iszero\n  tag_1\n  jumpi\n  0x00\n  dup1\n  revert\ntag_1:\n  pop\n  dataSize(sub_0)\n  dup1\n  dataOffset(sub_0)\n  0x00\n  codecopy\n  0x00\n  return\nstop\n\nsub_0: assembly {\n        /* \"Params.sol\":57:2285  contract Params {... */\n      mstore(0x40, 0x80)\n      callvalue\n      dup1\n      iszero\n      tag_1\n      jumpi\n      0x00\n      dup1\n      revert\n    tag_1:\n      pop\n      jumpi(tag_2, lt(calldatasize, 0x04))\n      shr(0xe0, calldataload(0x00))\n      dup1\n      0x6233be5d\n      gt\n      tag_18\n      jumpi\n      dup1\n      0xc967f90f\n      gt\n      tag_19\n      jumpi\n      dup1\n      0xc967f90f\n      eq\n      tag_14\n      jumpi\n      dup1\n      0xcd779d21\n      eq\n      tag_15\n      jumpi\n      dup1\n      0xdb78dd28\n      eq\n      tag_16\n      jumpi\n      dup1\n      0xfca737c0\n      eq\n      tag_17\n      jumpi\n      0x00\n      dup1\n      revert\n    tag_19:\n      dup1\n      0x6233be5d\n      eq\n      tag_10\n      jumpi\n      dup1\n      0x966ff650\n      eq\n      tag_11\n      jumpi\n      dup1\n      0x9d7714ce\n      eq\n      tag_12\n      jumpi\n      dup1\n      0xbe645692\n      eq\n      tag_13\n      jumpi\n      0x00\n      dup1\n      revert\n    tag_18:\n      dup1\n      0x3225ce61\n      gt\n      tag_20\n      jumpi\n      dup1\n      0x3225ce61\n      eq\n      tag_6\n      jumpi\n      dup1\n      0x37dbc8cc\n      eq\n      tag_7\n      jumpi\n      dup1\n      0x3a061bd3\n      eq\n      tag_8\n      jumpi\n      dup1\n      0x42127ee7\n      eq\n      tag_9\n      jumpi\n      0x00\n      dup1\n      revert\n    tag_20:\n      dup1\n      0x0976c65d\n      eq\n      tag_3\n      jumpi\n      dup1\n      0x158ef93e\n      eq\n      tag_4\n      jumpi\n      dup1\n      0x1b5e358c\n      eq\n      tag_5\n      jumpi\n    tag_2:\n      0x00\n      dup1\n      revert\n        /* \"Params.sol\":766:831  uint256 public constant minimumValidatorStaking = 500000000 ether */\n    tag_3:\n      tag_21\n        /* \"Params.sol\":816:831  500000000 ether */\n      0x019d971e4fe8401e74000000\n        /* \"Params.sol\":766:831  uint256 public constant minimumValidatorStaking = 500000000 ether */\n      dup2\n      jump\n    tag_21:\n      mload(0x40)\n        /* \"#utility.yul\":160:185   */\n      swap1\n      dup2\n      mstore\n        /* \"#utility.yul\":148:150   */\n      0x20\n        /* \"#utility.yul\":133:151   */\n      add\n        /* \"Params.sol\":766:831  uint256 public constant minimumValidatorStaking = 500000000 ether */\n    tag_23:\n      mload(0x40)\n      dup1\n      swap2\n      sub\n      swap1\n      return\n        /* \"Params.sol\":79:102  bool public initialized */\n    tag_4:\n      sload(0x00)\n      tag_25\n      swap1\n      0xff\n      and\n      dup2\n      jump\n    tag_25:\n      mload(0x40)\n        /* \"#utility.yul\":361:375   */\n      swap1\n      iszero\n        /* \"#utility.yul\":354:376   */\n      iszero\n        /* \"#utility.yul\":336:377   */\n      dup2\n      mstore\n        /* \"#utility.yul\":324:326   */\n      0x20\n        /* \"#utility.yul\":309:327   */\n      add\n        /* \"Params.sol\":79:102  bool public initialized */\n      tag_23\n        /* \"#utility.yul\":196:383   */\n      jump\n        /* \"Params.sol\":237:332  address... */\n    tag_5:\n      tag_29\n        /* \"Params.sol\":290:332  0x000000000000000000000000000000000000F001 */\n      0xf001\n        /* \"Params.sol\":237:332  address... */\n      dup2\n      jump\n    tag_29:\n      mload(0x40)\n      sub(shl(0xa0, 0x01), 0x01)\n        /* \"#utility.yul\":552:584   */\n      swap1\n      swap2\n      and\n        /* \"#utility.yul\":534:585   */\n      dup2\n      mstore\n        /* \"#utility.yul\":522:524   */\n      0x20\n        /* \"#utility.yul\":507:525   */\n      add\n        /* \"Params.sol\":237:332  address... */\n      tag_23\n        /* \"#utility.yul\":388:591   */\n      jump\n        /* \"Params.sol\":1199:1244  uint public constant ownerPartPercent = 50000 */\n    tag_6:\n      tag_21\n        /* \"Params.sol\":1239:1244  50000 */\n      0xc350\n        /* \"Params.sol\":1199:1244  uint public constant ownerPartPercent = 50000 */\n      dup2\n      jump\n        /* \"Params.sol\":1063:1106  uint public constant burnPartPercent = 5000 */\n    tag_7:\n      tag_21\n        /* \"Params.sol\":1102:1106  5000 */\n      0x1388\n        /* \"Params.sol\":1063:1106  uint public constant burnPartPercent = 5000 */\n      dup2\n      jump\n        /* \"Params.sol\":133:231  address... */\n    tag_8:\n      tag_29\n        /* \"Params.sol\":189:231  0x000000000000000000000000000000000000f000 */\n      0xf000\n        /* \"Params.sol\":133:231  address... */\n      dup2\n      jump\n        /* \"Params.sol\":995:1044  uint public constant validatorPartPercent = 20000 */\n    tag_9:\n      tag_21\n        /* \"Params.sol\":1039:1044  20000 */\n      0x4e20\n        /* \"Params.sol\":995:1044  uint public constant validatorPartPercent = 20000 */\n      dup2\n      jump\n        /* \"Params.sol\":338:427  address... */\n    tag_10:\n      tag_29\n        /* \"Params.sol\":385:427  0x000000000000000000000000000000000000F002 */\n      0xf002\n        /* \"Params.sol\":338:427  address... */\n      dup2\n      jump\n        /* \"Params.sol\":1390:1412  uint public totalBurnt */\n    tag_11:\n      tag_21\n      sload(0x01)\n      dup2\n      jump\n        /* \"Params.sol\":1269:1323  uint public constant burnStopAmount = 1000000000 ether */\n    tag_12:\n      tag_21\n        /* \"Params.sol\":1307:1323  1000000000 ether */\n      0x033b2e3c9fd0803ce8000000\n        /* \"Params.sol\":1269:1323  uint public constant burnStopAmount = 1000000000 ether */\n      dup2\n      jump\n        /* \"Params.sol\":631:691  uint256 public constant MinimalStakingCoin = 100000000 ether */\n    tag_13:\n      tag_21\n        /* \"Params.sol\":676:691  100000000 ether */\n      0x52b7d2dcc80cd2e4000000\n        /* \"Params.sol\":631:691  uint256 public constant MinimalStakingCoin = 100000000 ether */\n      dup2\n      jump\n        /* \"Params.sol\":455:496  uint16 public constant MaxValidators = 21 */\n    tag_14:\n      tag_57\n        /* \"Params.sol\":494:496  21 */\n      0x15\n        /* \"Params.sol\":455:496  uint16 public constant MaxValidators = 21 */\n      dup2\n      jump\n    tag_57:\n      mload(0x40)\n        /* \"#utility.yul\":770:776   */\n      0xffff\n        /* \"#utility.yul\":758:777   */\n      swap1\n      swap2\n      and\n        /* \"#utility.yul\":740:778   */\n      dup2\n      mstore\n        /* \"#utility.yul\":728:730   */\n      0x20\n        /* \"#utility.yul\":713:731   */\n      add\n        /* \"Params.sol\":455:496  uint16 public constant MaxValidators = 21 */\n      tag_23\n        /* \"#utility.yul\":596:784   */\n      jump\n        /* \"Params.sol\":927:973  uint public constant stakerPartPercent = 15000 */\n    tag_15:\n      tag_21\n        /* \"Params.sol\":968:973  15000 */\n      0x3a98\n        /* \"Params.sol\":927:973  uint public constant stakerPartPercent = 15000 */\n      dup2\n      jump\n        /* \"Params.sol\":577:625  uint64 public constant StakingLockPeriod = 28800 */\n    tag_16:\n      tag_64\n        /* \"Params.sol\":620:625  28800 */\n      0x7080\n        /* \"Params.sol\":577:625  uint64 public constant StakingLockPeriod = 28800 */\n      dup2\n      jump\n    tag_64:\n      mload(0x40)\n        /* \"#utility.yul\":963:981   */\n      0xffffffffffffffff\n        /* \"#utility.yul\":951:982   */\n      swap1\n      swap2\n      and\n        /* \"#utility.yul\":933:983   */\n      dup2\n      mstore\n        /* \"#utility.yul\":921:923   */\n      0x20\n        /* \"#utility.yul\":906:924   */\n      add\n        /* \"Params.sol\":577:625  uint64 public constant StakingLockPeriod = 28800 */\n      tag_23\n        /* \"#utility.yul\":789:989   */\n      jump\n        /* \"Params.sol\":1132:1180  uint public constant contractPartPercent = 10000 */\n    tag_17:\n      tag_21\n        /* \"Params.sol\":1175:1180  10000 */\n      0x2710\n        /* \"Params.sol\":1132:1180  uint public constant contractPartPercent = 10000 */\n      dup2\n      jump\n\n    auxdata: 0xa264697066735822122079bd21595f14b8d11d6b626d30d0a590df1904a65ad55627131b923a68c7464264736f6c63430008110033\n}\n",
				"bytecode": {
					"linkReferences": {},
					"object": "608060405234801561001057600080fd5b5061023e806100206000396000f3fe608060405234801561001057600080fd5b50600436106100f55760003560e01c80636233be5d11610097578063c967f90f11610066578063c967f90f146101b9578063cd779d21146101d4578063db78dd28146101dd578063fca737c0146101ff57600080fd5b80636233be5d14610182578063966ff6501461018b5780639d7714ce14610194578063be645692146101a757600080fd5b80633225ce61116100d35780633225ce611461015e57806337dbc8cc146101675780633a061bd31461017057806342127ee71461017957600080fd5b80630976c65d146100fa578063158ef93e146101205780631b5e358c1461013d575b600080fd5b61010d6b019d971e4fe8401e7400000081565b6040519081526020015b60405180910390f35b60005461012d9060ff1681565b6040519015158152602001610117565b61014661f00181565b6040516001600160a01b039091168152602001610117565b61010d61c35081565b61010d61138881565b61014661f00081565b61010d614e2081565b61014661f00281565b61010d60015481565b61010d6b033b2e3c9fd0803ce800000081565b61010d6a52b7d2dcc80cd2e400000081565b6101c1601581565b60405161ffff9091168152602001610117565b61010d613a9881565b6101e661708081565b60405167ffffffffffffffff9091168152602001610117565b61010d6127108156fea264697066735822122079bd21595f14b8d11d6b626d30d0a590df1904a65ad55627131b923a68c7464264736f6c63430008110033",
					"opcodes": "PUSH1 0x80 PUSH1 0x40 MSTORE CALLVALUE DUP1 ISZERO PUSH2 0x10 JUMPI PUSH1 0x0 DUP1 REVERT JUMPDEST POP PUSH2 0x23E DUP1 PUSH2 0x20 PUSH1 0x0 CODECOPY PUSH1 0x0 RETURN INVALID PUSH1 0x80 PUSH1 0x40 MSTORE CALLVALUE DUP1 ISZERO PUSH2 0x10 JUMPI PUSH1 0x0 DUP1 REVERT JUMPDEST POP PUSH1 0x4 CALLDATASIZE LT PUSH2 0xF5 JUMPI PUSH1 0x0 CALLDATALOAD PUSH1 0xE0 SHR DUP1 PUSH4 0x6233BE5D GT PUSH2 0x97 JUMPI DUP1 PUSH4 0xC967F90F GT PUSH2 0x66 JUMPI DUP1 PUSH4 0xC967F90F EQ PUSH2 0x1B9 JUMPI DUP1 PUSH4 0xCD779D21 EQ PUSH2 0x1D4 JUMPI DUP1 PUSH4 0xDB78DD28 EQ PUSH2 0x1DD JUMPI DUP1 PUSH4 0xFCA737C0 EQ PUSH2 0x1FF JUMPI PUSH1 0x0 DUP1 REVERT JUMPDEST DUP1 PUSH4 0x6233BE5D EQ PUSH2 0x182 JUMPI DUP1 PUSH4 0x966FF650 EQ PUSH2 0x18B JUMPI DUP1 PUSH4 0x9D7714CE EQ PUSH2 0x194 JUMPI DUP1 PUSH4 0xBE645692 EQ PUSH2 0x1A7 JUMPI PUSH1 0x0 DUP1 REVERT JUMPDEST DUP1 PUSH4 0x3225CE61 GT PUSH2 0xD3 JUMPI DUP1 PUSH4 0x3225CE61 EQ PUSH2 0x15E JUMPI DUP1 PUSH4 0x37DBC8CC EQ PUSH2 0x167 JUMPI DUP1 PUSH4 0x3A061BD3 EQ PUSH2 0x170 JUMPI DUP1 PUSH4 0x42127EE7 EQ PUSH2 0x179 JUMPI PUSH1 0x0 DUP1 REVERT JUMPDEST DUP1 PUSH4 0x976C65D EQ PUSH2 0xFA JUMPI DUP1 PUSH4 0x158EF93E EQ PUSH2 0x120 JUMPI DUP1 PUSH4 0x1B5E358C EQ PUSH2 0x13D JUMPI JUMPDEST PUSH1 0x0 DUP1 REVERT JUMPDEST PUSH2 0x10D PUSH12 0x19D971E4FE8401E74000000 DUP2 JUMP JUMPDEST PUSH1 0x40 MLOAD SWAP1 DUP2 MSTORE PUSH1 0x20 ADD JUMPDEST PUSH1 0x40 MLOAD DUP1 SWAP2 SUB SWAP1 RETURN JUMPDEST PUSH1 0x0 SLOAD PUSH2 0x12D SWAP1 PUSH1 0xFF AND DUP2 JUMP JUMPDEST PUSH1 0x40 MLOAD SWAP1 ISZERO ISZERO DUP2 MSTORE PUSH1 0x20 ADD PUSH2 0x117 JUMP JUMPDEST PUSH2 0x146 PUSH2 0xF001 DUP2 JUMP JUMPDEST PUSH1 0x40 MLOAD PUSH1 0x1 PUSH1 0x1 PUSH1 0xA0 SHL SUB SWAP1 SWAP2 AND DUP2 MSTORE PUSH1 0x20 ADD PUSH2 0x117 JUMP JUMPDEST PUSH2 0x10D PUSH2 0xC350 DUP2 JUMP JUMPDEST PUSH2 0x10D PUSH2 0x1388 DUP2 JUMP JUMPDEST PUSH2 0x146 PUSH2 0xF000 DUP2 JUMP JUMPDEST PUSH2 0x10D PUSH2 0x4E20 DUP2 JUMP JUMPDEST PUSH2 0x146 PUSH2 0xF002 DUP2 JUMP JUMPDEST PUSH2 0x10D PUSH1 0x1 SLOAD DUP2 JUMP JUMPDEST PUSH2 0x10D PUSH12 0x33B2E3C9FD0803CE8000000 DUP2 JUMP JUMPDEST PUSH2 0x10D PUSH11 0x52B7D2DCC80CD2E4000000 DUP2 JUMP JUMPDEST PUSH2 0x1C1 PUSH1 0x15 DUP2 JUMP JUMPDEST PUSH1 0x40 MLOAD PUSH2 0xFFFF SWAP1 SWAP2 AND DUP2 MSTORE PUSH1 0x20 ADD PUSH2 0x117 JUMP JUMPDEST PUSH2 0x10D PUSH2 0x3A98 DUP2 JUMP JUMPDEST PUSH2 0x1E6 PUSH2 0x7080 DUP2 JUMP JUMPDEST PUSH1 0x40 MLOAD PUSH8 0xFFFFFFFFFFFFFFFF SWAP1 SWAP2 AND DUP2 MSTORE PUSH1 0x20 ADD PUSH2 0x117 JUMP JUMPDEST PUSH2 0x10D PUSH2 0x2710 DUP2 JUMP INVALID LOG2 PUSH5 0x6970667358 0x22 SLT KECCAK256 PUSH26 0xBD21595F14B8D11D6B626D30D0A590DF1904A65AD55627131B92 GASPRICE PUSH9 0xC7464264736F6C6343 STOP ADDMOD GT STOP CALLER "
				},
				"gasEstimates": {
					"creation": {
						"codeDepositCost": "114800",
						"executionCost": "159",
						"totalCost": "114959"
					},
					"external": {
						"MaxValidators()": "226",
						"MinimalStakingCoin()": "273",
						"ProposalAddr()": "239",
						"PunishContractAddr()": "284",
						"StakingLockPeriod()": "270",
						"ValidatorContractAddr()": "283",
						"burnPartPercent()": "229",
						"burnStopAmount()": "251",
						"contractPartPercent()": "272",
						"initialized()": "2356",
						"minimumValidatorStaking()": "208",
						"ownerPartPercent()": "207",
						"stakerPartPercent()": "228",
						"totalBurnt()": "2329",
						"validatorPartPercent()": "273"
					}
				},
				"methodIdentifiers": {
					"MaxValidators()": "c967f90f",
					"MinimalStakingCoin()": "be645692",
					"ProposalAddr()": "6233be5d",
					"PunishContractAddr()": "1b5e358c",
					"StakingLockPeriod()": "db78dd28",
					"ValidatorContractAddr()": "3a061bd3",
					"burnPartPercent()": "37dbc8cc",
					"burnStopAmount()": "9d7714ce",
					"contractPartPercent()": "fca737c0",
					"initialized()": "158ef93e",
					"minimumValidatorStaking()": "0976c65d",
					"ownerPartPercent()": "3225ce61",
					"stakerPartPercent()": "cd779d21",
					"totalBurnt()": "966ff650",
					"validatorPartPercent()": "42127ee7"
				}
			},
			"storageLayout": {
				"storage": [
					{
						"astId": 3,
						"contract": "Params.sol:Params",
						"label": "initialized",
						"offset": 0,
						"slot": "0",
						"type": "t_bool"
					},
					{
						"astId": 44,
						"contract": "Params.sol:Params",
						"label": "totalBurnt",
						"offset": 0,
						"slot": "1",
						"type": "t_uint256"
					}
				],
				"types": {
					"t_bool": {
						"encoding": "inplace",
						"label": "bool",
						"numberOfBytes": "1"
					},
					"t_uint256": {
						"encoding": "inplace",
						"label": "uint256",
						"numberOfBytes": "32"
					}
				}
			},
			"userdoc": {
				"kind": "user",
				"methods": {},
				"version": 1
			}
		}
	}
}