{
	"data": {
		"bytecode": {
			"linkReferences": {},
			"object": "608060405234801561001057600080fd5b50610ce5806100206000396000f3fe608060405234801561001057600080fd5b50600436106101735760003560e01c80638129fc1c116100de578063cd779d2111610097578063e0d8ea5311610071578063e0d8ea53146102f1578063ea7221a1146102f9578063f62af26c1461030c578063fca737c01461031f57600080fd5b8063cd779d21146102b3578063d93d2cb9146102bc578063db78dd28146102cf57600080fd5b80638129fc1c14610257578063966ff650146102615780639d7714ce1461026a578063be6456921461027d578063c967f90f1461028f578063cb1ea725146102aa57600080fd5b806337dbc8cc1161013057806337dbc8cc146102175780633a061bd31461022057806342127ee71461022957806344c1aa99146102325780636233be5d1461023b57806363e1d4511461024457600080fd5b80630976c65d14610178578063158ef93e1461019e5780631b5e358c146101bb5780632897183d146101dc5780633225ce61146101e557806332f3c17f146101ee575b600080fd5b61018b6b019d971e4fe8401e7400000081565b6040519081526020015b60405180910390f35b6000546101ab9060ff1681565b6040519015158152602001610195565b6101c461f00181565b6040516001600160a01b039091168152602001610195565b61018b60045481565b61018b61c35081565b61018b6101fc366004610b8e565b6001600160a01b031660009081526006602052604090205490565b61018b61138881565b6101c461f00081565b61018b614e2081565b61018b60035481565b6101c461f00281565b6101ab610252366004610b8e565b610328565b61025f610554565b005b61018b60015481565b61018b6b033b2e3c9fd0803ce800000081565b61018b6a52b7d2dcc80cd2e400000081565b610297601581565b60405161ffff9091168152602001610195565b61018b60025481565b61018b613a9881565b61025f6102ca366004610bbe565b6105cf565b6102d861708081565b60405167ffffffffffffffff9091168152602001610195565b60075461018b565b61025f610307366004610b8e565b610864565b6101c461031a366004610bbe565b610b64565b61018b61271081565b6000805460ff166103545760405162461bcd60e51b815260040161034b90610bd7565b60405180910390fd5b3361f000146103a55760405162461bcd60e51b815260206004820152601860248201527f56616c696461746f727320636f6e7472616374206f6e6c790000000000000000604482015260640161034b565b6001600160a01b038216600090815260066020526040902054156103dd576001600160a01b0382166000908152600660205260408120555b6001600160a01b03821660009081526006602052604090206002015460ff168015610409575060075415155b1561054c5760075461041d90600190610c13565b6001600160a01b038316600090815260066020526040902060010154146104ed57600780546000919061045290600190610c13565b8154811061046257610462610c2c565b60009182526020808320909101546001600160a01b03868116845260069092526040909220600101546007805492909316935083929181106104a6576104a6610c2c565b600091825260208083209190910180546001600160a01b0319166001600160a01b039485161790558583168252600690526040808220600190810154949093168252902001555b60078054806104fe576104fe610c42565b60008281526020808220830160001990810180546001600160a01b03191690559092019092556001600160a01b038416825260069052604081206001810191909155600201805460ff191690555b506001919050565b60005460ff161561059d5760405162461bcd60e51b8152602060048201526013602482015272105b1c9958591e481a5b9a5d1a585b1a5e9959606a1b604482015260640161034b565b600580546001600160a01b03191661f0001790556030600281905560606003556004556000805460ff19166001179055565b33411461060b5760405162461bcd60e51b815260206004820152600a6024820152694d696e6572206f6e6c7960b01b604482015260640161034b565b4360009081526009602052604090205460ff161561065f5760405162461bcd60e51b8152602060048201526011602482015270105b1c9958591e48191958dc99585cd959607a1b604482015260640161034b565b60005460ff166106815760405162461bcd60e51b815260040161034b90610bd7565b8061068c8143610c6e565b156106cc5760405162461bcd60e51b815260206004820152601060248201526f426c6f636b2065706f6368206f6e6c7960801b604482015260640161034b565b436000908152600960205260409020805460ff19166001179055600754156108605760005b6007548110156108355760045460035461070b9190610c82565b600660006007848154811061072257610722610c2c565b60009182526020808320909101546001600160a01b0316835282019290925260400190205411156107e45760045460035461075d9190610c82565b600660006007848154811061077457610774610c2c565b60009182526020808320909101546001600160a01b031683528201929092526040019020546107a39190610c13565b60066000600784815481106107ba576107ba610c2c565b60009182526020808320909101546001600160a01b03168352820192909252604001902055610823565b600060066000600784815481106107fd576107fd610c2c565b60009182526020808320909101546001600160a01b031683528201929092526040019020555b8061082d81610c96565b9150506106f1565b506040517f181d51be54e8e8eaca6eae0eab32d4162099236bd519e7238d015d0870db464190600090a15b5050565b3341146108a05760405162461bcd60e51b815260206004820152600a6024820152694d696e6572206f6e6c7960b01b604482015260640161034b565b60005460ff166108c25760405162461bcd60e51b815260040161034b90610bd7565b4360009081526008602052604090205460ff16156109155760405162461bcd60e51b815260206004820152601060248201526f105b1c9958591e481c1d5b9a5cda195960821b604482015260640161034b565b436000908152600860209081526040808320805460ff191660011790556001600160a01b0384168352600690915290206002015460ff166109be57600780546001600160a01b038316600081815260066020526040812060018082018590558085019095557fa66cc928b5edb82af9bd49922954155ab7b0942694bea4ce44661d9a8736c68890930180546001600160a01b0319168317905552600201805460ff191690911790555b6001600160a01b03811660009081526006602052604081208054916109e283610c96565b90915550506003546001600160a01b038216600090815260066020526040902054610a0d9190610c6e565b600003610a91576005546040516340a141ff60e01b81526001600160a01b038381166004830152909116906340a141ff90602401600060405180830381600087803b158015610a5b57600080fd5b505af1158015610a6f573d6000803e3d6000fd5b5050506001600160a01b03821660009081526006602052604081205550610b1e565b6002546001600160a01b038216600090815260066020526040902054610ab79190610c6e565b600003610b1e576005546040516305dd095960e41b81526001600160a01b03838116600483015290911690635dd0959090602401600060405180830381600087803b158015610b0557600080fd5b505af1158015610b19573d6000803e3d6000fd5b505050505b806001600160a01b03167f770e0cca42c35d00240986ce8d3ed438be04663c91dac6576b79537d7c180f1e42604051610b5991815260200190565b60405180910390a250565b60078181548110610b7457600080fd5b6000918252602090912001546001600160a01b0316905081565b600060208284031215610ba057600080fd5b81356001600160a01b0381168114610bb757600080fd5b9392505050565b600060208284031215610bd057600080fd5b5035919050565b6020808252600c908201526b139bdd081a5b9a5d081e595d60a21b604082015260600190565b634e487b7160e01b600052601160045260246000fd5b81810381811115610c2657610c26610bfd565b92915050565b634e487b7160e01b600052603260045260246000fd5b634e487b7160e01b600052603160045260246000fd5b634e487b7160e01b600052601260045260246000fd5b600082610c7d57610c7d610c58565b500690565b600082610c9157610c91610c58565b500490565b600060018201610ca857610ca8610bfd565b506001019056fea26469706673582212207b537479f29af2f9c9a1d36251394f618484a1c69b8d6f92c389792b777799b464736f6c63430008110033",
			"opcodes": "PUSH1 0x80 PUSH1 0x40 MSTORE CALLVALUE DUP1 ISZERO PUSH2 0x10 JUMPI PUSH1 0x0 DUP1 REVERT JUMPDEST POP PUSH2 0xCE5 DUP1 PUSH2 0x20 PUSH1 0x0 CODECOPY PUSH1 0x0 RETURN INVALID PUSH1 0x80 PUSH1 0x40 MSTORE CALLVALUE DUP1 ISZERO PUSH2 0x10 JUMPI PUSH1 0x0 DUP1 REVERT JUMPDEST POP PUSH1 0x4 CALLDATASIZE LT PUSH2 0x173 JUMPI PUSH1 0x0 CALLDATALOAD PUSH1 0xE0 SHR DUP1 PUSH4 0x8129FC1C GT PUSH2 0xDE JUMPI DUP1 PUSH4 0xCD779D21 GT PUSH2 0x97 JUMPI DUP1 PUSH4 0xE0D8EA53 GT PUSH2 0x71 JUMPI DUP1 PUSH4 0xE0D8EA53 EQ PUSH2 0x2F1 JUMPI DUP1 PUSH4 0xEA7221A1 EQ PUSH2 0x2F9 JUMPI DUP1 PUSH4 0xF62AF26C EQ PUSH2 0x30C JUMPI DUP1 PUSH4 0xFCA737C0 EQ PUSH2 0x31F JUMPI PUSH1 0x0 DUP1 REVERT JUMPDEST DUP1 PUSH4 0xCD779D21 EQ PUSH2 0x2B3 JUMPI DUP1 PUSH4 0xD93D2CB9 EQ PUSH2 0x2BC JUMPI DUP1 PUSH4 0xDB78DD28 EQ PUSH2 0x2CF JUMPI PUSH1 0x0 DUP1 REVERT JUMPDEST DUP1 PUSH4 0x8129FC1C EQ PUSH2 0x257 JUMPI DUP1 PUSH4 0x966FF650 EQ PUSH2 0x261 JUMPI DUP1 PUSH4 0x9D7714CE EQ PUSH2 0x26A JUMPI DUP1 PUSH4 0xBE645692 EQ PUSH2 0x27D JUMPI DUP1 PUSH4 0xC967F90F EQ PUSH2 0x28F JUMPI DUP1 PUSH4 0xCB1EA725 EQ PUSH2 0x2AA JUMPI PUSH1 0x0 DUP1 REVERT JUMPDEST DUP1 PUSH4 0x37DBC8CC GT PUSH2 0x130 JUMPI DUP1 PUSH4 0x37DBC8CC EQ PUSH2 0x217 JUMPI DUP1 PUSH4 0x3A061BD3 EQ PUSH2 0x220 JUMPI DUP1 PUSH4 0x42127EE7 EQ PUSH2 0x229 JUMPI DUP1 PUSH4 0x44C1AA99 EQ PUSH2 0x232 JUMPI DUP1 PUSH4 0x6233BE5D EQ PUSH2 0x23B JUMPI DUP1 PUSH4 0x63E1D451 EQ PUSH2 0x244 JUMPI PUSH1 0x0 DUP1 REVERT JUMPDEST DUP1 PUSH4 0x976C65D EQ PUSH2 0x178 JUMPI DUP1 PUSH4 0x158EF93E EQ PUSH2 0x19E JUMPI DUP1 PUSH4 0x1B5E358C EQ PUSH2 0x1BB JUMPI DUP1 PUSH4 0x2897183D EQ PUSH2 0x1DC JUMPI DUP1 PUSH4 0x3225CE61 EQ PUSH2 0x1E5 JUMPI DUP1 PUSH4 0x32F3C17F EQ PUSH2 0x1EE JUMPI JUMPDEST PUSH1 0x0 DUP1 REVERT JUMPDEST PUSH2 0x18B PUSH12 0x19D971E4FE8401E74000000 DUP2 JUMP JUMPDEST PUSH1 0x40 MLOAD SWAP1 DUP2 MSTORE PUSH1 0x20 ADD JUMPDEST PUSH1 0x40 MLOAD DUP1 SWAP2 SUB SWAP1 RETURN JUMPDEST PUSH1 0x0 SLOAD PUSH2 0x1AB SWAP1 PUSH1 0xFF AND DUP2 JUMP JUMPDEST PUSH1 0x40 MLOAD SWAP1 ISZERO ISZERO DUP2 MSTORE PUSH1 0x20 ADD PUSH2 0x195 JUMP JUMPDEST PUSH2 0x1C4 PUSH2 0xF001 DUP2 JUMP JUMPDEST PUSH1 0x40 MLOAD PUSH1 0x1 PUSH1 0x1 PUSH1 0xA0 SHL SUB SWAP1 SWAP2 AND DUP2 MSTORE PUSH1 0x20 ADD PUSH2 0x195 JUMP JUMPDEST PUSH2 0x18B PUSH1 0x4 SLOAD DUP2 JUMP JUMPDEST PUSH2 0x18B PUSH2 0xC350 DUP2 JUMP JUMPDEST PUSH2 0x18B PUSH2 0x1FC CALLDATASIZE PUSH1 0x4 PUSH2 0xB8E JUMP JUMPDEST PUSH1 0x1 PUSH1 0x1 PUSH1 0xA0 SHL SUB AND PUSH1 0x0 SWAP1 DUP2 MSTORE PUSH1 0x6 PUSH1 0x20 MSTORE PUSH1 0x40 SWAP1 KECCAK256 SLOAD SWAP1 JUMP JUMPDEST PUSH2 0x18B PUSH2 0x1388 DUP2 JUMP JUMPDEST PUSH2 0x1C4 PUSH2 0xF000 DUP2 JUMP JUMPDEST PUSH2 0x18B PUSH2 0x4E20 DUP2 JUMP JUMPDEST PUSH2 0x18B PUSH1 0x3 SLOAD DUP2 JUMP JUMPDEST PUSH2 0x1C4 PUSH2 0xF002 DUP2 JUMP JUMPDEST PUSH2 0x1AB PUSH2 0x252 CALLDATASIZE PUSH1 0x4 PUSH2 0xB8E JUMP JUMPDEST PUSH2 0x328 JUMP JUMPDEST PUSH2 0x25F PUSH2 0x554 JUMP JUMPDEST STOP JUMPDEST PUSH2 0x18B PUSH1 0x1 SLOAD DUP2 JUMP JUMPDEST PUSH2 0x18B PUSH12 0x33B2E3C9FD0803CE8000000 DUP2 JUMP JUMPDEST PUSH2 0x18B PUSH11 0x52B7D2DCC80CD2E4000000 DUP2 JUMP JUMPDEST PUSH2 0x297 PUSH1 0x15 DUP2 JUMP JUMPDEST PUSH1 0x40 MLOAD PUSH2 0xFFFF SWAP1 SWAP2 AND DUP2 MSTORE PUSH1 0x20 ADD PUSH2 0x195 JUMP JUMPDEST PUSH2 0x18B PUSH1 0x2 SLOAD DUP2 JUMP JUMPDEST PUSH2 0x18B PUSH2 0x3A98 DUP2 JUMP JUMPDEST PUSH2 0x25F PUSH2 0x2CA CALLDATASIZE PUSH1 0x4 PUSH2 0xBBE JUMP JUMPDEST PUSH2 0x5CF JUMP JUMPDEST PUSH2 0x2D8 PUSH2 0x7080 DUP2 JUMP JUMPDEST PUSH1 0x40 MLOAD PUSH8 0xFFFFFFFFFFFFFFFF SWAP1 SWAP2 AND DUP2 MSTORE PUSH1 0x20 ADD PUSH2 0x195 JUMP JUMPDEST PUSH1 0x7 SLOAD PUSH2 0x18B JUMP JUMPDEST PUSH2 0x25F PUSH2 0x307 CALLDATASIZE PUSH1 0x4 PUSH2 0xB8E JUMP JUMPDEST PUSH2 0x864 JUMP JUMPDEST PUSH2 0x1C4 PUSH2 0x31A CALLDATASIZE PUSH1 0x4 PUSH2 0xBBE JUMP JUMPDEST PUSH2 0xB64 JUMP JUMPDEST PUSH2 0x18B PUSH2 0x2710 DUP2 JUMP JUMPDEST PUSH1 0x0 DUP1 SLOAD PUSH1 0xFF AND PUSH2 0x354 JUMPI PUSH1 0x40 MLOAD PUSH3 0x461BCD PUSH1 0xE5 SHL DUP2 MSTORE PUSH1 0x4 ADD PUSH2 0x34B SWAP1 PUSH2 0xBD7 JUMP JUMPDEST PUSH1 0x40 MLOAD DUP1 SWAP2 SUB SWAP1 REVERT JUMPDEST CALLER PUSH2 0xF000 EQ PUSH2 0x3A5 JUMPI PUSH1 0x40 MLOAD PUSH3 0x461BCD PUSH1 0xE5 SHL DUP2 MSTORE PUSH1 0x20 PUSH1 0x4 DUP3 ADD MSTORE PUSH1 0x18 PUSH1 0x24 DUP3 ADD MSTORE PUSH32 0x56616C696461746F727320636F6E7472616374206F6E6C790000000000000000 PUSH1 0x44 DUP3 ADD MSTORE PUSH1 0x64 ADD PUSH2 0x34B JUMP JUMPDEST PUSH1 0x1 PUSH1 0x1 PUSH1 0xA0 SHL SUB DUP3 AND PUSH1 0x0 SWAP1 DUP2 MSTORE PUSH1 0x6 PUSH1 0x20 MSTORE PUSH1 0x40 SWAP1 KECCAK256 SLOAD ISZERO PUSH2 0x3DD JUMPI PUSH1 0x1 PUSH1 0x1 PUSH1 0xA0 SHL SUB DUP3 AND PUSH1 0x0 SWAP1 DUP2 MSTORE PUSH1 0x6 PUSH1 0x20 MSTORE PUSH1 0x40 DUP2 KECCAK256 SSTORE JUMPDEST PUSH1 0x1 PUSH1 0x1 PUSH1 0xA0 SHL SUB DUP3 AND PUSH1 0x0 SWAP1 DUP2 MSTORE PUSH1 0x6 PUSH1 0x20 MSTORE PUSH1 0x40 SWAP1 KECCAK256 PUSH1 0x2 ADD SLOAD PUSH1 0xFF AND DUP1 ISZERO PUSH2 0x409 JUMPI POP PUSH1 0x7 SLOAD ISZERO ISZERO JUMPDEST ISZERO PUSH2 0x54C JUMPI PUSH1 0x7 SLOAD PUSH2 0x41D SWAP1 PUSH1 0x1 SWAP1 PUSH2 0xC13 JUMP JUMPDEST PUSH1 0x1 PUSH1 0x1 PUSH1 0xA0 SHL SUB DUP4 AND PUSH1 0x0 SWAP1 DUP2 MSTORE PUSH1 0x6 PUSH1 0x20 MSTORE PUSH1 0x40 SWAP1 KECCAK256 PUSH1 0x1 ADD SLOAD EQ PUSH2 0x4ED JUMPI PUSH1 0x7 DUP1 SLOAD PUSH1 0x0 SWAP2 SWAP1 PUSH2 0x452 SWAP1 PUSH1 0x1 SWAP1 PUSH2 0xC13 JUMP JUMPDEST DUP2 SLOAD DUP2 LT PUSH2 0x462 JUMPI PUSH2 0x462 PUSH2 0xC2C JUMP JUMPDEST PUSH1 0x0 SWAP2 DUP3 MSTORE PUSH1 0x20 DUP1 DUP4 KECCAK256 SWAP1 SWAP2 ADD SLOAD PUSH1 0x1 PUSH1 0x1 PUSH1 0xA0 SHL SUB DUP7 DUP2 AND DUP5 MSTORE PUSH1 0x6 SWAP1 SWAP3 MSTORE PUSH1 0x40 SWAP1 SWAP3 KECCAK256 PUSH1 0x1 ADD SLOAD PUSH1 0x7 DUP1 SLOAD SWAP3 SWAP1 SWAP4 AND SWAP4 POP DUP4 SWAP3 SWAP2 DUP2 LT PUSH2 0x4A6 JUMPI PUSH2 0x4A6 PUSH2 0xC2C JUMP JUMPDEST PUSH1 0x0 SWAP2 DUP3 MSTORE PUSH1 0x20 DUP1 DUP4 KECCAK256 SWAP2 SWAP1 SWAP2 ADD DUP1 SLOAD PUSH1 0x1 PUSH1 0x1 PUSH1 0xA0 SHL SUB NOT AND PUSH1 0x1 PUSH1 0x1 PUSH1 0xA0 SHL SUB SWAP5 DUP6 AND OR SWAP1 SSTORE DUP6 DUP4 AND DUP3 MSTORE PUSH1 0x6 SWAP1 MSTORE PUSH1 0x40 DUP1 DUP3 KECCAK256 PUSH1 0x1 SWAP1 DUP2 ADD SLOAD SWAP5 SWAP1 SWAP4 AND DUP3 MSTORE SWAP1 KECCAK256 ADD SSTORE JUMPDEST PUSH1 0x7 DUP1 SLOAD DUP1 PUSH2 0x4FE JUMPI PUSH2 0x4FE PUSH2 0xC42 JUMP JUMPDEST PUSH1 0x0 DUP3 DUP2 MSTORE PUSH1 0x20 DUP1 DUP3 KECCAK256 DUP4 ADD PUSH1 0x0 NOT SWAP1 DUP2 ADD DUP1 SLOAD PUSH1 0x1 PUSH1 0x1 PUSH1 0xA0 SHL SUB NOT AND SWAP1 SSTORE SWAP1 SWAP3 ADD SWAP1 SWAP3 SSTORE PUSH1 0x1 PUSH1 0x1 PUSH1 0xA0 SHL SUB DUP5 AND DUP3 MSTORE PUSH1 0x6 SWAP1 MSTORE PUSH1 0x40 DUP2 KECCAK256 PUSH1 0x1 DUP2 ADD SWAP2 SWAP1 SWAP2 SSTORE PUSH1 0x2 ADD DUP1 SLOAD PUSH1 0xFF NOT AND SWAP1 SSTORE JUMPDEST POP PUSH1 0x1 SWAP2 SWAP1 POP JUMP JUMPDEST PUSH1 0x0 SLOAD PUSH1 0xFF AND ISZERO PUSH2 0x59D JUMPI PUSH1 0x40 MLOAD PUSH3 0x461BCD PUSH1 0xE5 SHL DUP2 MSTORE PUSH1 0x20 PUSH1 0x4 DUP3 ADD MSTORE PUSH1 0x13 PUSH1 0x24 DUP3 ADD MSTORE PUSH19 0x105B1C9958591E481A5B9A5D1A585B1A5E9959 PUSH1 0x6A SHL PUSH1 0x44 DUP3 ADD MSTORE PUSH1 0x64 ADD PUSH2 0x34B JUMP JUMPDEST PUSH1 0x5 DUP1 SLOAD PUSH1 0x1 PUSH1 0x1 PUSH1 0xA0 SHL SUB NOT AND PUSH2 0xF000 OR SWAP1 SSTORE PUSH1 0x30 PUSH1 0x2 DUP2 SWAP1 SSTORE PUSH1 0x60 PUSH1 0x3 SSTORE PUSH1 0x4 SSTORE PUSH1 0x0 DUP1 SLOAD PUSH1 0xFF NOT AND PUSH1 0x1 OR SWAP1 SSTORE JUMP JUMPDEST CALLER COINBASE EQ PUSH2 0x60B JUMPI PUSH1 0x40 MLOAD PUSH3 0x461BCD PUSH1 0xE5 SHL DUP2 MSTORE PUSH1 0x20 PUSH1 0x4 DUP3 ADD MSTORE PUSH1 0xA PUSH1 0x24 DUP3 ADD MSTORE PUSH10 0x4D696E6572206F6E6C79 PUSH1 0xB0 SHL PUSH1 0x44 DUP3 ADD MSTORE PUSH1 0x64 ADD PUSH2 0x34B JUMP JUMPDEST NUMBER PUSH1 0x0 SWAP1 DUP2 MSTORE PUSH1 0x9 PUSH1 0x20 MSTORE PUSH1 0x40 SWAP1 KECCAK256 SLOAD PUSH1 0xFF AND ISZERO PUSH2 0x65F JUMPI PUSH1 0x40 MLOAD PUSH3 0x461BCD PUSH1 0xE5 SHL DUP2 MSTORE PUSH1 0x20 PUSH1 0x4 DUP3 ADD MSTORE PUSH1 0x11 PUSH1 0x24 DUP3 ADD MSTORE PUSH17 0x105B1C9958591E48191958DC99585CD959 PUSH1 0x7A SHL PUSH1 0x44 DUP3 ADD MSTORE PUSH1 0x64 ADD PUSH2 0x34B JUMP JUMPDEST PUSH1 0x0 SLOAD PUSH1 0xFF AND PUSH2 0x681 JUMPI PUSH1 0x40 MLOAD PUSH3 0x461BCD PUSH1 0xE5 SHL DUP2 MSTORE PUSH1 0x4 ADD PUSH2 0x34B SWAP1 PUSH2 0xBD7 JUMP JUMPDEST DUP1 PUSH2 0x68C DUP2 NUMBER PUSH2 0xC6E JUMP JUMPDEST ISZERO PUSH2 0x6CC JUMPI PUSH1 0x40 MLOAD PUSH3 0x461BCD PUSH1 0xE5 SHL DUP2 MSTORE PUSH1 0x20 PUSH1 0x4 DUP3 ADD MSTORE PUSH1 0x10 PUSH1 0x24 DUP3 ADD MSTORE PUSH16 0x426C6F636B2065706F6368206F6E6C79 PUSH1 0x80 SHL PUSH1 0x44 DUP3 ADD MSTORE PUSH1 0x64 ADD PUSH2 0x34B JUMP JUMPDEST NUMBER PUSH1 0x0 SWAP1 DUP2 MSTORE PUSH1 0x9 PUSH1 0x20 MSTORE PUSH1 0x40 SWAP1 KECCAK256 DUP1 SLOAD PUSH1 0xFF NOT AND PUSH1 0x1 OR SWAP1 SSTORE PUSH1 0x7 SLOAD ISZERO PUSH2 0x860 JUMPI PUSH1 0x0 JUMPDEST PUSH1 0x7 SLOAD DUP2 LT ISZERO PUSH2 0x835 JUMPI PUSH1 0x4 SLOAD PUSH1 0x3 SLOAD PUSH2 0x70B SWAP2 SWAP1 PUSH2 0xC82 JUMP JUMPDEST PUSH1 0x6 PUSH1 0x0 PUSH1 0x7 DUP5 DUP2 SLOAD DUP2 LT PUSH2 0x722 JUMPI PUSH2 0x722 PUSH2 0xC2C JUMP JUMPDEST PUSH1 0x0 SWAP2 DUP3 MSTORE PUSH1 0x20 DUP1 DUP4 KECCAK256 SWAP1 SWAP2 ADD SLOAD PUSH1 0x1 PUSH1 0x1 PUSH1 0xA0 SHL SUB AND DUP4 MSTORE DUP3 ADD SWAP3 SWAP1 SWAP3 MSTORE PUSH1 0x40 ADD SWAP1 KECCAK256 SLOAD GT ISZERO PUSH2 0x7E4 JUMPI PUSH1 0x4 SLOAD PUSH1 0x3 SLOAD PUSH2 0x75D SWAP2 SWAP1 PUSH2 0xC82 JUMP JUMPDEST PUSH1 0x6 PUSH1 0x0 PUSH1 0x7 DUP5 DUP2 SLOAD DUP2 LT PUSH2 0x774 JUMPI PUSH2 0x774 PUSH2 0xC2C JUMP JUMPDEST PUSH1 0x0 SWAP2 DUP3 MSTORE PUSH1 0x20 DUP1 DUP4 KECCAK256 SWAP1 SWAP2 ADD SLOAD PUSH1 0x1 PUSH1 0x1 PUSH1 0xA0 SHL SUB AND DUP4 MSTORE DUP3 ADD SWAP3 SWAP1 SWAP3 MSTORE PUSH1 0x40 ADD SWAP1 KECCAK256 SLOAD PUSH2 0x7A3 SWAP2 SWAP1 PUSH2 0xC13 JUMP JUMPDEST PUSH1 0x6 PUSH1 0x0 PUSH1 0x7 DUP5 DUP2 SLOAD DUP2 LT PUSH2 0x7BA JUMPI PUSH2 0x7BA PUSH2 0xC2C JUMP JUMPDEST PUSH1 0x0 SWAP2 DUP3 MSTORE PUSH1 0x20 DUP1 DUP4 KECCAK256 SWAP1 SWAP2 ADD SLOAD PUSH1 0x1 PUSH1 0x1 PUSH1 0xA0 SHL SUB AND DUP4 MSTORE DUP3 ADD SWAP3 SWAP1 SWAP3 MSTORE PUSH1 0x40 ADD SWAP1 KECCAK256 SSTORE PUSH2 0x823 JUMP JUMPDEST PUSH1 0x0 PUSH1 0x6 PUSH1 0x0 PUSH1 0x7 DUP5 DUP2 SLOAD DUP2 LT PUSH2 0x7FD JUMPI PUSH2 0x7FD PUSH2 0xC2C JUMP JUMPDEST PUSH1 0x0 SWAP2 DUP3 MSTORE PUSH1 0x20 DUP1 DUP4 KECCAK256 SWAP1 SWAP2 ADD SLOAD PUSH1 0x1 PUSH1 0x1 PUSH1 0xA0 SHL SUB AND DUP4 MSTORE DUP3 ADD SWAP3 SWAP1 SWAP3 MSTORE PUSH1 0x40 ADD SWAP1 KECCAK256 SSTORE JUMPDEST DUP1 PUSH2 0x82D DUP2 PUSH2 0xC96 JUMP JUMPDEST SWAP2 POP POP PUSH2 0x6F1 JUMP JUMPDEST POP PUSH1 0x40 MLOAD PUSH32 0x181D51BE54E8E8EACA6EAE0EAB32D4162099236BD519E7238D015D0870DB4641 SWAP1 PUSH1 0x0 SWAP1 LOG1 JUMPDEST POP POP JUMP JUMPDEST CALLER COINBASE EQ PUSH2 0x8A0 JUMPI PUSH1 0x40 MLOAD PUSH3 0x461BCD PUSH1 0xE5 SHL DUP2 MSTORE PUSH1 0x20 PUSH1 0x4 DUP3 ADD MSTORE PUSH1 0xA PUSH1 0x24 DUP3 ADD MSTORE PUSH10 0x4D696E6572206F6E6C79 PUSH1 0xB0 SHL PUSH1 0x44 DUP3 ADD MSTORE PUSH1 0x64 ADD PUSH2 0x34B JUMP JUMPDEST PUSH1 0x0 SLOAD PUSH1 0xFF AND PUSH2 0x8C2 JUMPI PUSH1 0x40 MLOAD PUSH3 0x461BCD PUSH1 0xE5 SHL DUP2 MSTORE PUSH1 0x4 ADD PUSH2 0x34B SWAP1 PUSH2 0xBD7 JUMP JUMPDEST NUMBER PUSH1 0x0 SWAP1 DUP2 MSTORE PUSH1 0x8 PUSH1 0x20 MSTORE PUSH1 0x40 SWAP1 KECCAK256 SLOAD PUSH1 0xFF AND ISZERO PUSH2 0x915 JUMPI PUSH1 0x40 MLOAD PUSH3 0x461BCD PUSH1 0xE5 SHL DUP2 MSTORE PUSH1 0x20 PUSH1 0x4 DUP3 ADD MSTORE PUSH1 0x10 PUSH1 0x24 DUP3 ADD MSTORE PUSH16 0x105B1C9958591E481C1D5B9A5CDA1959 PUSH1 0x82 SHL PUSH1 0x44 DUP3 ADD MSTORE PUSH1 0x64 ADD PUSH2 0x34B JUMP JUMPDEST NUMBER PUSH1 0x0 SWAP1 DUP2 MSTORE PUSH1 0x8 PUSH1 0x20 SWAP1 DUP2 MSTORE PUSH1 0x40 DUP1 DUP4 KECCAK256 DUP1 SLOAD PUSH1 0xFF NOT AND PUSH1 0x1 OR SWAP1 SSTORE PUSH1 0x1 PUSH1 0x1 PUSH1 0xA0 SHL SUB DUP5 AND DUP4 MSTORE PUSH1 0x6 SWAP1 SWAP2 MSTORE SWAP1 KECCAK256 PUSH1 0x2 ADD SLOAD PUSH1 0xFF AND PUSH2 0x9BE JUMPI PUSH1 0x7 DUP1 SLOAD PUSH1 0x1 PUSH1 0x1 PUSH1 0xA0 SHL SUB DUP4 AND PUSH1 0x0 DUP2 DUP2 MSTORE PUSH1 0x6 PUSH1 0x20 MSTORE PUSH1 0x40 DUP2 KECCAK256 PUSH1 0x1 DUP1 DUP3 ADD DUP6 SWAP1 SSTORE DUP1 DUP6 ADD SWAP1 SWAP6 SSTORE PUSH32 0xA66CC928B5EDB82AF9BD49922954155AB7B0942694BEA4CE44661D9A8736C688 SWAP1 SWAP4 ADD DUP1 SLOAD PUSH1 0x1 PUSH1 0x1 PUSH1 0xA0 SHL SUB NOT AND DUP4 OR SWAP1 SSTORE MSTORE PUSH1 0x2 ADD DUP1 SLOAD PUSH1 0xFF NOT AND SWAP1 SWAP2 OR SWAP1 SSTORE JUMPDEST PUSH1 0x1 PUSH1 0x1 PUSH1 0xA0 SHL SUB DUP2 AND PUSH1 0x0 SWAP1 DUP2 MSTORE PUSH1 0x6 PUSH1 0x20 MSTORE PUSH1 0x40 DUP2 KECCAK256 DUP1 SLOAD SWAP2 PUSH2 0x9E2 DUP4 PUSH2 0xC96 JUMP JUMPDEST SWAP1 SWAP2 SSTORE POP POP PUSH1 0x3 SLOAD PUSH1 0x1 PUSH1 0x1 PUSH1 0xA0 SHL SUB DUP3 AND PUSH1 0x0 SWAP1 DUP2 MSTORE PUSH1 0x6 PUSH1 0x20 MSTORE PUSH1 0x40 SWAP1 KECCAK256 SLOAD PUSH2 0xA0D SWAP2 SWAP1 PUSH2 0xC6E JUMP JUMPDEST PUSH1 0x0 SUB PUSH2 0xA91 JUMPI PUSH1 0x5 SLOAD PUSH1 0x40 MLOAD PUSH4 0x40A141FF PUSH1 0xE0 SHL DUP2 MSTORE PUSH1 0x1 PUSH1 0x1 PUSH1 0xA0 SHL SUB DUP4 DUP2 AND PUSH1 0x4 DUP4 ADD MSTORE SWAP1 SWAP2 AND SWAP1 PUSH4 0x40A141FF SWAP1 PUSH1 0x24 ADD PUSH1 0x0 PUSH1 0x40 MLOAD DUP1 DUP4 SUB DUP2 PUSH1 0x0 DUP8 DUP1 EXTCODESIZE ISZERO DUP1 ISZERO PUSH2 0xA5B JUMPI PUSH1 0x0 DUP1 REVERT JUMPDEST POP GAS CALL ISZERO DUP1 ISZERO PUSH2 0xA6F JUMPI RETURNDATASIZE PUSH1 0x0 DUP1 RETURNDATACOPY RETURNDATASIZE PUSH1 0x0 REVERT JUMPDEST POP POP POP PUSH1 0x1 PUSH1 0x1 PUSH1 0xA0 SHL SUB DUP3 AND PUSH1 0x0 SWAP1 DUP2 MSTORE PUSH1 0x6 PUSH1 0x20 MSTORE PUSH1 0x40 DUP2 KECCAK256 SSTORE POP PUSH2 0xB1E JUMP JUMPDEST PUSH1 0x2 SLOAD PUSH1 0x1 PUSH1 0x1 PUSH1 0xA0 SHL SUB DUP3 AND PUSH1 0x0 SWAP1 DUP2 MSTORE PUSH1 0x6 PUSH1 0x20 MSTORE PUSH1 0x40 SWAP1 KECCAK256 SLOAD PUSH2 0xAB7 SWAP2 SWAP1 PUSH2 0xC6E JUMP JUMPDEST PUSH1 0x0 SUB PUSH2 0xB1E JUMPI PUSH1 0x5 SLOAD PUSH1 0x40 MLOAD PUSH4 0x5DD0959 PUSH1 0xE4 SHL DUP2 MSTORE PUSH1 0x1 PUSH1 0x1 PUSH1 0xA0 SHL SUB DUP4 DUP2 AND PUSH1 0x4 DUP4 ADD MSTORE SWAP1 SWAP2 AND SWAP1 PUSH4 0x5DD09590 SWAP1 PUSH1 0x24 ADD PUSH1 0x0 PUSH1 0x40 MLOAD DUP1 DUP4 SUB DUP2 PUSH1 0x0 DUP8 DUP1 EXTCODESIZE ISZERO DUP1 ISZERO PUSH2 0xB05 JUMPI PUSH1 0x0 DUP1 REVERT JUMPDEST POP GAS CALL ISZERO DUP1 ISZERO PUSH2 0xB19 JUMPI RETURNDATASIZE PUSH1 0x0 DUP1 RETURNDATACOPY RETURNDATASIZE PUSH1 0x0 REVERT JUMPDEST POP POP POP POP JUMPDEST DUP1 PUSH1 0x1 PUSH1 0x1 PUSH1 0xA0 SHL SUB AND PUSH32 0x770E0CCA42C35D00240986CE8D3ED438BE04663C91DAC6576B79537D7C180F1E TIMESTAMP PUSH1 0x40 MLOAD PUSH2 0xB59 SWAP2 DUP2 MSTORE PUSH1 0x20 ADD SWAP1 JUMP JUMPDEST PUSH1 0x40 MLOAD DUP1 SWAP2 SUB SWAP1 LOG2 POP JUMP JUMPDEST PUSH1 0x7 DUP2 DUP2 SLOAD DUP2 LT PUSH2 0xB74 JUMPI PUSH1 0x0 DUP1 REVERT JUMPDEST PUSH1 0x0 SWAP2 DUP3 MSTORE PUSH1 0x20 SWAP1 SWAP2 KECCAK256 ADD SLOAD PUSH1 0x1 PUSH1 0x1 PUSH1 0xA0 SHL SUB AND SWAP1 POP DUP2 JUMP JUMPDEST PUSH1 0x0 PUSH1 0x20 DUP3 DUP5 SUB SLT ISZERO PUSH2 0xBA0 JUMPI PUSH1 0x0 DUP1 REVERT JUMPDEST DUP2 CALLDATALOAD PUSH1 0x1 PUSH1 0x1 PUSH1 0xA0 SHL SUB DUP2 AND DUP2 EQ PUSH2 0xBB7 JUMPI PUSH1 0x0 DUP1 REVERT JUMPDEST SWAP4 SWAP3 POP POP POP JUMP JUMPDEST PUSH1 0x0 PUSH1 0x20 DUP3 DUP5 SUB SLT ISZERO PUSH2 0xBD0 JUMPI PUSH1 0x0 DUP1 REVERT JUMPDEST POP CALLDATALOAD SWAP2 SWAP1 POP JUMP JUMPDEST PUSH1 0x20 DUP1 DUP3 MSTORE PUSH1 0xC SWAP1 DUP3 ADD MSTORE PUSH12 0x139BDD081A5B9A5D081E595D PUSH1 0xA2 SHL PUSH1 0x40 DUP3 ADD MSTORE PUSH1 0x60 ADD SWAP1 JUMP JUMPDEST PUSH4 0x4E487B71 PUSH1 0xE0 SHL PUSH1 0x0 MSTORE PUSH1 0x11 PUSH1 0x4 MSTORE PUSH1 0x24 PUSH1 0x0 REVERT JUMPDEST DUP2 DUP2 SUB DUP2 DUP2 GT ISZERO PUSH2 0xC26 JUMPI PUSH2 0xC26 PUSH2 0xBFD JUMP JUMPDEST SWAP3 SWAP2 POP POP JUMP JUMPDEST PUSH4 0x4E487B71 PUSH1 0xE0 SHL PUSH1 0x0 MSTORE PUSH1 0x32 PUSH1 0x4 MSTORE PUSH1 0x24 PUSH1 0x0 REVERT JUMPDEST PUSH4 0x4E487B71 PUSH1 0xE0 SHL PUSH1 0x0 MSTORE PUSH1 0x31 PUSH1 0x4 MSTORE PUSH1 0x24 PUSH1 0x0 REVERT JUMPDEST PUSH4 0x4E487B71 PUSH1 0xE0 SHL PUSH1 0x0 MSTORE PUSH1 0x12 PUSH1 0x4 MSTORE PUSH1 0x24 PUSH1 0x0 REVERT JUMPDEST PUSH1 0x0 DUP3 PUSH2 0xC7D JUMPI PUSH2 0xC7D PUSH2 0xC58 JUMP JUMPDEST POP MOD SWAP1 JUMP JUMPDEST PUSH1 0x0 DUP3 PUSH2 0xC91 JUMPI PUSH2 0xC91 PUSH2 0xC58 JUMP JUMPDEST POP DIV SWAP1 JUMP JUMPDEST PUSH1 0x0 PUSH1 0x1 DUP3 ADD PUSH2 0xCA8 JUMPI PUSH2 0xCA8 PUSH2 0xBFD JUMP JUMPDEST POP PUSH1 0x1 ADD SWAP1 JUMP INVALID LOG2 PUSH5 0x6970667358 0x22 SLT KECCAK256 PUSH28 0x537479F29AF2F9C9A1D36251394F618484A1C69B8D6F92C389792B77 PUSH24 0x99B464736F6C634300081100330000000000000000000000 "
		},
		"gasEstimates": {
			"creation": {
				"codeDepositCost": "660200",
				"executionCost": "696",
				"totalCost": "660896"
			},
			"external": {
				"MaxValidators()": "315",
				"MinimalStakingCoin()": "273",
				"ProposalAddr()": "327",
				"PunishContractAddr()": "284",
				"StakingLockPeriod()": "293",
				"ValidatorContractAddr()": "261",
				"burnPartPercent()": "207",
				"burnStopAmount()": "251",
				"cleanPunishRecord(address)": "infinite",
				"contractPartPercent()": "294",
				"decreaseMissedBlocksCounter(uint256)": "infinite",
				"decreaseRate()": "2374",
				"getPunishRecord(address)": "2625",
				"getPunishValidatorsLen()": "2325",
				"initialize()": "117074",
				"initialized()": "2356",
				"minimumValidatorStaking()": "208",
				"ownerPartPercent()": "296",
				"punish(address)": "infinite",
				"punishThreshold()": "2417",
				"punishValidators(uint256)": "4702",
				"removeThreshold()": "2373",
				"stakerPartPercent()": "229",
				"totalBurnt()": "2329",
				"validatorPartPercent()": "251"
			}
		},
		"methodIdentifiers": {
			"MaxValidators()": "c967f90f",
			"MinimalStakingCoin()": "be645692",
			"ProposalAddr()": "6233be5d",
			"PunishContractAddr()": "1b5e358c",
			"StakingLockPeriod()": "db78dd28",
			"ValidatorContractAddr()": "3a061bd3",
			"burnPartPercent()": "37dbc8cc",
			"burnStopAmount()": "9d7714ce",
			"cleanPunishRecord(address)": "63e1d451",
			"contractPartPercent()": "fca737c0",
			"decreaseMissedBlocksCounter(uint256)": "d93d2cb9",
			"decreaseRate()": "2897183d",
			"getPunishRecord(address)": "32f3c17f",
			"getPunishValidatorsLen()": "e0d8ea53",
			"initialize()": "8129fc1c",
			"initialized()": "158ef93e",
			"minimumValidatorStaking()": "0976c65d",
			"ownerPartPercent()": "3225ce61",
			"punish(address)": "ea7221a1",
			"punishThreshold()": "cb1ea725",
			"punishValidators(uint256)": "f62af26c",
			"removeThreshold()": "44c1aa99",
			"stakerPartPercent()": "cd779d21",
			"totalBurnt()": "966ff650",
			"validatorPartPercent()": "42127ee7"
		}
	},
	"abi": [
		{
			"anonymous": false,
			"inputs": [],
			"name": "LogDecreaseMissedBlocksCounter",
			"type": "event"
		},
		{
			"anonymous": false,
			"inputs": [
				{
					"indexed": true,
					"internalType": "address",
					"name": "val",
					"type": "address"
				},
				{
					"indexed": false,
					"internalType": "uint256",
					"name": "time",
					"type": "uint256"
				}
			],
			"name": "LogPunishValidator",
			"type": "event"
		},
		{
			"inputs": [],
			"name": "MaxValidators",
			"outputs": [
				{
					"internalType": "uint16",
					"name": "",
					"type": "uint16"
				}
			],
			"stateMutability": "view",
			"type": "function"
		},
		{
			"inputs": [],
			"name": "MinimalStakingCoin",
			"outputs": [
				{
					"internalType": "uint256",
					"name": "",
					"type": "uint256"
				}
			],
			"stateMutability": "view",
			"type": "function"
		},
		{
			"inputs": [],
			"name": "ProposalAddr",
			"outputs": [
				{
					"internalType": "address",
					"name": "",
					"type": "address"
				}
			],
			"stateMutability": "view",
			"type": "function"
		},
		{
			"inputs": [],
			"name": "PunishContractAddr",
			"outputs": [
				{
					"internalType": "address",
					"name": "",
					"type": "address"
				}
			],
			"stateMutability": "view",
			"type": "function"
		},
		{
			"inputs": [],
			"name": "StakingLockPeriod",
			"outputs": [
				{
					"internalType": "uint64",
					"name": "",
					"type": "uint64"
				}
			],
			"stateMutability": "view",
			"type": "function"
		},
		{
			"inputs": [],
			"name": "ValidatorContractAddr",
			"outputs": [
				{
					"internalType": "address",
					"name": "",
					"type": "address"
				}
			],
			"stateMutability": "view",
			"type": "function"
		},
		{
			"inputs": [],
			"name": "burnPartPercent",
			"outputs": [
				{
					"internalType": "uint256",
					"name": "",
					"type": "uint256"
				}
			],
			"stateMutability": "view",
			"type": "function"
		},
		{
			"inputs": [],
			"name": "burnStopAmount",
			"outputs": [
				{
					"internalType": "uint256",
					"name": "",
					"type": "uint256"
				}
			],
			"stateMutability": "view",
			"type": "function"
		},
		{
			"inputs": [
				{
					"internalType": "address",
					"name": "val",
					"type": "address"
				}
			],
			"name": "cleanPunishRecord",
			"outputs": [
				{
					"internalType": "bool",
					"name": "",
					"type": "bool"
				}
			],
			"stateMutability": "nonpayable",
			"type": "function"
		},
		{
			"inputs": [],
			"name": "contractPartPercent",
			"outputs": [
				{
					"internalType": "uint256",
					"name": "",
					"type": "uint256"
				}
			],
			"stateMutability": "view",
			"type": "function"
		},
		{
			"inputs": [
				{
					"internalType": "uint256",
					"name": "epoch",
					"type": "uint256"
				}
			],
			"name": "decreaseMissedBlocksCounter",
			"outputs": [],
			"stateMutability": "nonpayable",
			"type": "function"
		},
		{
			"inputs": [],
			"name": "decreaseRate",
			"outputs": [
				{
					"internalType": "uint256",
					"name": "",
					"type": "uint256"
				}
			],
			"stateMutability": "view",
			"type": "function"
		},
		{
			"inputs": [
				{
					"internalType": "address",
					"name": "val",
					"type": "address"
				}
			],
			"name": "getPunishRecord",
			"outputs": [
				{
					"internalType": "uint256",
					"name": "",
					"type": "uint256"
				}
			],
			"stateMutability": "view",
			"type": "function"
		},
		{
			"inputs": [],
			"name": "getPunishValidatorsLen",
			"outputs": [
				{
					"internalType": "uint256",
					"name": "",
					"type": "uint256"
				}
			],
			"stateMutability": "view",
			"type": "function"
		},
		{
			"inputs": [],
			"name": "initialize",
			"outputs": [],
			"stateMutability": "nonpayable",
			"type": "function"
		},
		{
			"inputs": [],
			"name": "initialized",
			"outputs": [
				{
					"internalType": "bool",
					"name": "",
					"type": "bool"
				}
			],
			"stateMutability": "view",
			"type": "function"
		},
		{
			"inputs": [],
			"name": "minimumValidatorStaking",
			"outputs": [
				{
					"internalType": "uint256",
					"name": "",
					"type": "uint256"
				}
			],
			"stateMutability": "view",
			"type": "function"
		},
		{
			"inputs": [],
			"name": "ownerPartPercent",
			"outputs": [
				{
					"internalType": "uint256",
					"name": "",
					"type": "uint256"
				}
			],
			"stateMutability": "view",
			"type": "function"
		},
		{
			"inputs": [
				{
					"internalType": "address",
					"name": "val",
					"type": "address"
				}
			],
			"name": "punish",
			"outputs": [],
			"stateMutability": "nonpayable",
			"type": "function"
		},
		{
			"inputs": [],
			"name": "punishThreshold",
			"outputs": [
				{
					"internalType": "uint256",
					"name": "",
					"type": "uint256"
				}
			],
			"stateMutability": "view",
			"type": "function"
		},
		{
			"inputs": [
				{
					"internalType": "uint256",
					"name": "",
					"type": "uint256"
				}
			],
			"name": "punishValidators",
			"outputs": [
				{
					"internalType": "address",
					"name": "",
					"type": "address"
				}
			],
			"stateMutability": "view",
			"type": "function"
		},
		{
			"inputs": [],
			"name": "removeThreshold",
			"outputs": [
				{
					"internalType": "uint256",
					"name": "",
					"type": "uint256"
				}
			],
			"stateMutability": "view",
			"type": "function"
		},
		{
			"inputs": [],
			"name": "stakerPartPercent",
			"outputs": [
				{
					"internalType": "uint256",
					"name": "",
					"type": "uint256"
				}
			],
			"stateMutability": "view",
			"type": "function"
		},
		{
			"inputs": [],
			"name": "totalBurnt",
			"outputs": [
				{
					"internalType": "uint256",
					"name": "",
					"type": "uint256"
				}
			],
			"stateMutability": "view",
			"type": "function"
		},
		{
			"inputs": [],
			"name": "validatorPartPercent",
			"outputs": [
				{
					"internalType": "uint256",
					"name": "",
					"type": "uint256"
				}
			],
			"stateMutability": "view",
			"type": "function"
		}
	]
}