{
	"data": {
		"bytecode": {
			"linkReferences": {},
			"object": "60806040523480156200001157600080fd5b506200001d3362000023565b62000075565b600280546001600160a01b038381166001600160a01b0319831681179093556040519116919082907f8be0079c531659141344cd1fd0a4f28419497f9722a3daafe3b4186f6b6457e090600090a35050565b61505d80620000856000396000f3fe6080604052600436106102fe5760003560e01c806382bd3d9211610190578063b2bdfa7b116100dc578063c967f90f11610095578063db78dd281161006f578063db78dd281461096e578063f2888dbb1461099c578063f2fde38b146109bc578063fca737c0146109dc57600080fd5b8063c967f90f146108fa578063cd779d2114610922578063d571770c1461093857600080fd5b8063b2bdfa7b1461083e578063b6c885191461085e578063bb1c03101461087e578063bd10ba7614610891578063be645692146108b1578063c253c384146108d057600080fd5b806398e3b62611610149578063a224cee711610123578063a224cee7146107c5578063a406fcb7146107e5578063a43569b3146107f8578063afeea1151461082957600080fd5b806398e3b626146107635780639d7714ce146107835780639de70258146107a357600080fd5b806382bd3d921461068f5780638a11d7c9146106af5780638b0e9f3f146106e15780638da5cb5b146106f757806392f2c43714610715578063966ff6501461074d57600080fd5b806340550a1c1161024f5780636233be5d116102085780636ea69d62116101e25780636ea69d62146105cc578063715018a6146105ec57806372d30a70146106015780637f4f95fa1461062157600080fd5b80636233be5d146105765780636846992a1461058c5780636969a25c146105ac57600080fd5b806340550a1c146104be57806340a141ff146104de57806342127ee7146105005780634b3d500b1461051657806351508f0a146105365780635dd095901461055657600080fd5b8063222d3b05116102bc57806337dbc8cc1161029657806337dbc8cc146104455780633a061bd31461045b5780633ae898ca146104715780633b5d441e1461049157600080fd5b8063222d3b05146103fc578063264762041461041c5780633225ce611461042f57600080fd5b8062362a771461030357806301aec704146103385780630976c65d1461037e5780631303f7cf1461039e578063158ef93e146103b45780631b5e358c146103ce575b600080fd5b34801561030f57600080fd5b5061032361031e366004614646565b6109f2565b60405190151581526020015b60405180910390f35b34801561034457600080fd5b5061037061035336600461466a565b600a60209081526000928352604080842090915290825290205481565b60405190815260200161032f565b34801561038a57600080fd5b506103706b019d971e4fe8401e7400000081565b3480156103aa57600080fd5b5061037060085481565b3480156103c057600080fd5b506000546103239060ff1681565b3480156103da57600080fd5b506103e461f00181565b6040516001600160a01b03909116815260200161032f565b34801561040857600080fd5b50610323610417366004614646565b610c14565b61032361042a366004614646565b610e43565b34801561043b57600080fd5b5061037061c35081565b34801561045157600080fd5b5061037061138881565b34801561046757600080fd5b506103e461f00081565b34801561047d57600080fd5b5061037061048c36600461466a565b61129e565b34801561049d57600080fd5b506103706104ac366004614646565b600b6020526000908152604090205481565b3480156104ca57600080fd5b506103236104d9366004614646565b6113ae565b3480156104ea57600080fd5b506104fe6104f9366004614646565b61140e565b005b34801561050c57600080fd5b50610370614e2081565b34801561052257600080fd5b506103e46105313660046146a3565b6114d8565b34801561054257600080fd5b506104fe610551366004614646565b611502565b34801561056257600080fd5b506104fe610571366004614646565b61153f565b34801561058257600080fd5b506103e461f00281565b34801561059857600080fd5b506104fe6105a7366004614799565b611593565b3480156105b857600080fd5b506103e46105c73660046146a3565b611764565b3480156105d857600080fd5b50600d546103e4906001600160a01b031681565b3480156105f857600080fd5b506104fe611774565b34801561060d57600080fd5b5061032361061c366004614646565b611788565b34801561062d57600080fd5b5061067461063c36600461466a565b6001600160a01b0391821660009081526004602090815260408083209390941682529190915220805460018201546002909201549092565b6040805193845260208401929092529082015260600161032f565b34801561069b57600080fd5b506103236106aa366004614646565b611938565b3480156106bb57600080fd5b506106cf6106ca366004614646565b611b76565b60405161032f96959493929190614837565b3480156106ed57600080fd5b5061037060075481565b34801561070357600080fd5b506002546001600160a01b03166103e4565b34801561072157600080fd5b5061037061073036600461489b565b600c60209081526000928352604080842090915290825290205481565b34801561075957600080fd5b5061037060015481565b34801561076f57600080fd5b5061032361077e366004614646565b611f88565b34801561078f57600080fd5b506103706b033b2e3c9fd0803ce800000081565b3480156107af57600080fd5b506107b8611fe8565b60405161032f91906148c7565b3480156107d157600080fd5b506104fe6107e03660046148da565b61204a565b6103236107f33660046149a1565b612476565b34801561080457600080fd5b50610818610813366004614646565b6129ef565b60405161032f959493929190614aed565b34801561083557600080fd5b506107b8612dfc565b34801561084a57600080fd5b506002546103e4906001600160a01b031681565b34801561086a57600080fd5b50610323610879366004614bbd565b612e5c565b6104fe61088c366004614c8e565b612fe8565b34801561089d57600080fd5b506103236108ac366004614646565b613578565b3480156108bd57600080fd5b506103706a52b7d2dcc80cd2e400000081565b3480156108dc57600080fd5b506108e56135fe565b6040805192835260208301919091520161032f565b34801561090657600080fd5b5061090f601581565b60405161ffff909116815260200161032f565b34801561092e57600080fd5b50610370613a9881565b34801561094457600080fd5b506103e4610953366004614646565b6009602052600090815260409020546001600160a01b031681565b34801561097a57600080fd5b5061098461708081565b6040516001600160401b03909116815260200161032f565b3480156109a857600080fd5b506103236109b7366004614646565b613613565b3480156109c857600080fd5b506104fe6109d7366004614646565b613a99565b3480156109e857600080fd5b5061037061271081565b600032816001600160a01b038416600090815260036020526040902054600160a01b900460ff166004811115610a2a57610a2a6147dd565b03610a725760405162461bcd60e51b815260206004820152601360248201527215985b1a59185d1bdc881b9bdd08195e1a5cdd606a1b60448201526064015b60405180910390fd5b6001600160a01b03838116600090815260036020526040902054811690821614610af55760405162461bcd60e51b815260206004820152602e60248201527f596f7520617265206e6f742074686520666565207265636569766572206f662060448201526d3a3434b9903b30b634b230ba37b960911b6064820152608401610a69565b6001600160a01b03831660009081526003602052604090206007015480610b5e5760405162461bcd60e51b815260206004820152601a60248201527f596f7520646f6e2774206861766520616e792070726f666974730000000000006044820152606401610a69565b6001600160a01b0384166000908152600360205260408120600701558015610bb8576040516001600160a01b0383169082156108fc029083906000818181858888f19350505050158015610bb6573d6000803e3d6000fd5b505b610bc184611788565b50604080518281524260208201526001600160a01b0380851692908716917f51a69b4502f660774c9339825c7b5adbf0b8622289134647e29728ec5d9b3bb9910160405180910390a35060019392505050565b3260008181526004602081815260408084206001600160a01b03871685528252808420600390925283205492939290918491600160a01b900460ff1690811115610c6057610c606147dd565b03610ca35760405162461bcd60e51b81526020600482015260136024820152721d985b1a59185d1bdc881b9bdd08195e1a5cdd606a1b6044820152606401610a69565b8060010154600003610cf75760405162461bcd60e51b815260206004820152601960248201527f596f75206861766520746f20756e7374616b65206669727374000000000000006044820152606401610a69565b60018101544390610d0b9061708090614d6c565b1115610d635760405162461bcd60e51b815260206004820152602160248201527f596f7572207374616b696e6720686176656e277420756e6c6f636b65642079656044820152601d60fa1b6064820152608401610a69565b8054610dac5760405162461bcd60e51b8152602060048201526018602482015277596f7520646f6e2774206861766520616e79207374616b6560401b6044820152606401610a69565b80546000808355600183018190556040516001600160a01b0385169183156108fc02918491818181858888f19350505050158015610dee573d6000803e3d6000fd5b50604080518281524260208201526001600160a01b0380881692908616917fa70cd94070cd852339a76b32cf2d95a3c8f2a322269163d276071c1c1495561991015b60405180910390a3506001949350505050565b6000805460ff16610e665760405162461bcd60e51b8152600401610a6990614d7f565b323460016001600160a01b038516600090815260036020526040902054600160a01b900460ff166004811115610e9e57610e9e6147dd565b1480610edd575060026001600160a01b038516600090815260036020526040902054600160a01b900460ff166004811115610edb57610edb6147dd565b145b610f3f5760405162461bcd60e51b815260206004820152602d60248201527f43616e2774207374616b6520746f20612076616c696461746f7220696e20616260448201526c6e6f726d616c2073746174757360981b6064820152608401610a69565b6001600160a01b0380831660009081526004602090815260408083209388168352929052206001015415610fc05760405162461bcd60e51b815260206004820152602260248201527f43616e2774207374616b65207768656e20796f752061726520756e7374616b696044820152616e6760f01b6064820152608401610a69565b6001600160a01b0380851660008181526003602052604090209184160361104b576a52b7d2dcc80cd2e4000000828260010154610ffd9190614d6c565b10156110465760405162461bcd60e51b81526020600482015260186024820152770a6e8c2d6d2dcce40c6ded2dce640dcdee840cadcdeeaced60431b6044820152606401610a69565b6110a1565b6a52b7d2dcc80cd2e40000008210156110a15760405162461bcd60e51b81526020600482015260186024820152770a6e8c2d6d2dcce40c6ded2dce640dcdee840cadcdeeaced60431b6044820152606401610a69565b6001600160a01b0380841660009081526004602090815260408083209389168352929052908120549003611188576009810180546001600160a01b038086166000818152600460209081526040808320948c1680845294825280832060020186905560018601875595825280822090940180546001600160a01b031916909217909155908152600b909152908120549003611152576001600160a01b0385166000908152600b602052604090204290555b6001600160a01b038086166000818152600b60209081526040808320549488168352600a82528083209383529290522055611193565b61119185611788565b505b8181600101546111a39190614d6c565b600182015560028154600160a01b900460ff1660048111156111c7576111c76147dd565b146111de57805460ff60a01b1916600160a11b1781555b6111ec858260010154613b0f565b6001600160a01b0380841660009081526004602090815260408083209389168352929052205461121d908390614d6c565b6001600160a01b038085166000908152600460209081526040808320938a1683529290522055600754611251908390614d6c565b600755604080518381524260208201526001600160a01b0380881692908616917fb9ba725934532316cffe10975da6eb25ad49c2d1c294d982c46c9f8d684ee0759101610e30565b919050565b6001600160a01b038083166000908152600a60209081526040808320938516835292905290812054156113a4576001600160a01b038083166000818152600c602090815260408083209488168352600a8252808320848452825280832054835284825280832054938352600b8252808320548352939052918220546113239190614da5565b905080156113a2576001600160a01b038085166000908152600460209081526040808320938716835292815290829020825160608101845281548082526001830154938201939093526002909101549281019290925268056bc75e2d631000009061138f908490614db8565b6113999190614de5565b925050506113a8565b505b5060005b92915050565b6000805b6005548110156113a457826001600160a01b0316600582815481106113d9576113d9614df9565b6000918252602090912001546001600160a01b0316036113fc5750600192915050565b8061140681614e0f565b9150506113b2565b3361f001146114565760405162461bcd60e51b815260206004820152601460248201527350756e69736820636f6e7472616374206f6e6c7960601b6044820152606401610a69565b6001600160a01b03811660009081526003602052604090206007015461147b82613dd8565b600654600110156114d45761148f82613ef0565b604080518281524260208201526001600160a01b038416917fa26de7ab324eac08c596549f421e5c8741213d237d2e9a2c9c0ebde0a7a849fe91015b60405180910390a25b5050565b600681815481106114e857600080fd5b6000918252602090912001546001600160a01b0316905081565b61150a613f60565b6001600160a01b03811661151d57600080fd5b600d80546001600160a01b0319166001600160a01b0392909216919091179055565b3361f001146115875760405162461bcd60e51b815260206004820152601460248201527350756e69736820636f6e7472616374206f6e6c7960601b6044820152606401610a69565b61159081613dd8565b50565b3341146115cf5760405162461bcd60e51b815260206004820152600a6024820152694d696e6572206f6e6c7960b01b6044820152606401610a69565b436000908152600f602090815260408083206001845290915290205460ff161561163b5760405162461bcd60e51b815260206004820152601a60248201527f56616c696461746f727320616c726561647920757064617465640000000000006044820152606401610a69565b60005460ff1661165d5760405162461bcd60e51b8152600401610a6990614d7f565b806116688143614e28565b156116a85760405162461bcd60e51b815260206004820152601060248201526f426c6f636b2065706f6368206f6e6c7960801b6044820152606401610a69565b436000908152600f6020908152604080832060018085529252909120805460ff1916909117905582516117145760405162461bcd60e51b815260206004820152601460248201527356616c696461746f722073657420656d7074792160601b6044820152606401610a69565b82516117279060059060208601906145b7565b507feacea8f3c22f06c0b18306bdb04d0a967255129e8ce0094debb0a0ff89d006b58360405161175791906148c7565b60405180910390a1505050565b600581815481106114e857600080fd5b61177c613f60565b6117866000613fba565b565b326000908152600a602090815260408083206001600160a01b03851684529091528120546117e95760405162461bcd60e51b815260206004820152600e60248201526d1b9bdd1a1a5b99c81cdd185ad95960921b6044820152606401610a69565b3260008181526004602090815260408083206001600160a01b038716808552908352818420600c8452828520958552600a8452828520828652845282852054855285845282852054918552600b84528285205485529490925282205461184f9190614da5565b9050801561192e576001600160a01b0384166000818152600b6020908152604080832054328452600a835281842094845293909152812091909155825468056bc75e2d63100000906118a2908490614db8565b6118ac9190614de5565b604051909150329082156108fc029083906000818181858888f193505050501580156118dc573d6000803e3d6000fd5b50604080513281526001600160a01b03871660208201529081018290524260608201527f7daf1212d032f2f66db6dbb919bbd591be3d954b5b6ee491709cbb5fbe4f51709060800160405180910390a1505b5060019392505050565b60003361f002146119845760405162461bcd60e51b815260206004820152601660248201527550726f706f73616c20636f6e7472616374206f6e6c7960501b6044820152606401610a69565b60005460ff166119a65760405162461bcd60e51b8152600401610a6990614d7f565b60036001600160a01b038316600090815260036020526040902054600160a01b900460ff1660048111156119dc576119dc6147dd565b14158015611a1e575060046001600160a01b038316600090815260036020526040902054600160a01b900460ff166004811115611a1b57611a1b6147dd565b14155b15611a2b57506001919050565b60046001600160a01b038316600090815260036020526040902054600160a01b900460ff166004811115611a6157611a616147dd565b03611b1157600e546040516363e1d45160e01b81526001600160a01b038481166004830152909116906363e1d451906024016020604051808303816000875af1158015611ab2573d6000803e3d6000fd5b505050506040513d601f19601f82011682018060405250810190611ad69190614e3c565b611b115760405162461bcd60e51b815260206004820152600c60248201526b18db19585b8819985a5b195960a21b6044820152606401610a69565b6001600160a01b038216600081815260036020908152604091829020805460ff60a01b1916600160a11b17905590514281527fd8b2c426ec1be69ca7583d26b1e893946e3227430d3ebc3bd64d9e1c469cb400910160405180910390a2506001919050565b6001600160a01b038181166000908152600360209081526040808320815160e0810190925280549485168252929384938493849384936060938593909190830190600160a01b900460ff166004811115611bd257611bd26147dd565b6004811115611be357611be36147dd565b815260200160018201548152602001600282016040518060a0016040529081600082018054611c1190614e5e565b80601f0160208091040260200160405190810160405280929190818152602001828054611c3d90614e5e565b8015611c8a5780601f10611c5f57610100808354040283529160200191611c8a565b820191906000526020600020905b815481529060010190602001808311611c6d57829003601f168201915b50505050508152602001600182018054611ca390614e5e565b80601f0160208091040260200160405190810160405280929190818152602001828054611ccf90614e5e565b8015611d1c5780601f10611cf157610100808354040283529160200191611d1c565b820191906000526020600020905b815481529060010190602001808311611cff57829003601f168201915b50505050508152602001600282018054611d3590614e5e565b80601f0160208091040260200160405190810160405280929190818152602001828054611d6190614e5e565b8015611dae5780601f10611d8357610100808354040283529160200191611dae565b820191906000526020600020905b815481529060010190602001808311611d9157829003601f168201915b50505050508152602001600382018054611dc790614e5e565b80601f0160208091040260200160405190810160405280929190818152602001828054611df390614e5e565b8015611e405780601f10611e1557610100808354040283529160200191611e40565b820191906000526020600020905b815481529060010190602001808311611e2357829003601f168201915b50505050508152602001600482018054611e5990614e5e565b80601f0160208091040260200160405190810160405280929190818152602001828054611e8590614e5e565b8015611ed25780601f10611ea757610100808354040283529160200191611ed2565b820191906000526020600020905b815481529060010190602001808311611eb557829003601f168201915b5050505050815250508152602001600782015481526020016008820154815260200160098201805480602002602001604051908101604052809291908181526020018280548015611f4c57602002820191906000526020600020905b81546001600160a01b03168152600190910190602001808311611f2e575b505050919092525050815160208301516040840151608085015160a086015160c090960151939e929d50909b5099509297509550909350505050565b6000805b6006548110156113a457826001600160a01b031660068281548110611fb357611fb3614df9565b6000918252602090912001546001600160a01b031603611fd65750600192915050565b80611fe081614e0f565b915050611f8c565b6060600580548060200260200160405190810160405280929190818152602001828054801561204057602002820191906000526020600020905b81546001600160a01b03168152600190910190602001808311612022575b5050505050905090565b60005460ff16156120935760405162461bcd60e51b8152602060048201526013602482015272105b1c9958591e481a5b9a5d1a585b1a5e9959606a1b6044820152606401610a69565b600e80546001600160a01b031990811661f0011790915560028054909116730df99dde7c98a50293a19ad85e47ad3b42b0869517905560005b818110156124645760008383838181106120e8576120e8614df9565b90506020020160208101906120fd9190614646565b6001600160a01b0316036121535760405162461bcd60e51b815260206004820152601960248201527f496e76616c69642076616c696461746f722061646472657373000000000000006044820152606401610a69565b42600b600085858581811061216a5761216a614df9565b905060200201602081019061217f9190614646565b6001600160a01b031681526020810191909152604001600020556121c38383838181106121ae576121ae614df9565b90506020020160208101906104d99190614646565b6122235760058383838181106121db576121db614df9565b90506020020160208101906121f09190614646565b81546001810183556000928352602090922090910180546001600160a01b0319166001600160a01b039092169190911790555b61224d83838381811061223857612238614df9565b905060200201602081019061077e9190614646565b6122ad57600683838381811061226557612265614df9565b905060200201602081019061227a9190614646565b81546001810183556000928352602090922090910180546001600160a01b0319166001600160a01b039092169190911790555b60006003818585858181106122c4576122c4614df9565b90506020020160208101906122d99190614646565b6001600160a01b039081168252602082019290925260400160002054160361237f5782828281811061230d5761230d614df9565b90506020020160208101906123229190614646565b6003600085858581811061233857612338614df9565b905060200201602081019061234d9190614646565b6001600160a01b039081168252602082019290925260400160002080546001600160a01b031916929091169190911790555b60006003600085858581811061239757612397614df9565b90506020020160208101906123ac9190614646565b6001600160a01b03168152602081019190915260400160002054600160a01b900460ff1660048111156123e1576123e16147dd565b03612452576002600360008585858181106123fe576123fe614df9565b90506020020160208101906124139190614646565b6001600160a01b031681526020810191909152604001600020805460ff60a01b1916600160a01b83600481111561244c5761244c6147dd565b02179055505b8061245c81614e0f565b9150506120cc565b50506000805460ff1916600117905550565b6000805460ff166124995760405162461bcd60e51b8152600401610a6990614d7f565b6001600160a01b038c166124e55760405162461bcd60e51b8152602060048201526013602482015272496e76616c696420666565206164647265737360681b6044820152606401610a69565b6125f48b8b8080601f01602080910402602001604051908101604052809392919081815260200183838082843760009201919091525050604080516020601f8f018190048102820181019092528d815292508d91508c908190840183828082843760009201919091525050604080516020601f8e018190048102820181019092528c815292508c91508b908190840183828082843760009201919091525050604080516020601f8d018190048102820181019092528b815292508b91508a908190840183828082843760009201919091525050604080516020601f8c018190048102820181019092528a815292508a9150899081908401838280828437600092019190915250612e5c92505050565b6126365760405162461bcd60e51b815260206004820152601360248201527224b73b30b634b2103232b9b1b934b83a34b7b760691b6044820152606401610a69565b326000818152600360205260408120548190600160a01b900460ff166004811115612663576126636147dd565b0361269957506001600160a01b0381166000908152600360205260409020805460ff60a01b1916600160a01b17905560016126aa565b34156126aa576000925050506129e0565b6001600160a01b038281166000908152600360205260409020548116908f161461271c578d60036000846001600160a01b03166001600160a01b0316815260200190815260200160002060000160006101000a8154816001600160a01b0302191690836001600160a01b031602179055505b6040518060a001604052808e8e8080601f016020809104026020016040519081016040528093929190818152602001838380828437600092019190915250505090825250604080516020601f8f018190048102820181019092528d815291810191908e908e9081908401838280828437600092019190915250505090825250604080516020601f8d018190048102820181019092528b815291810191908c908c9081908401838280828437600092019190915250505090825250604080516020601f8b0181900481028201810190925289815291810191908a908a9081908401838280828437600092019190915250505090825250604080516020601f89018190048102820181019092528781529181019190889088908190840183828082843760009201829052509390945250506001600160a01b038516815260036020526040902082516002909101915081906128759082614ee7565b506020820151600182019061288a9082614ee7565b506040820151600282019061289f9082614ee7565b50606082015160038201906128b49082614ee7565b50608082015160048201906128c99082614ee7565b50905050801561298b576b019d971e4fe8401e7400000034101561292f5760405162461bcd60e51b815260206004820152601860248201527f496e76616c69642076616c696461746f7220616d6f756e7400000000000000006044820152606401610a69565b61293882610e43565b508d6001600160a01b0316826001600160a01b03167f887eec9d757b7247dd8e51198f9d1b8f27979bceb34bdcc1bffd4ec5ec736c224260405161297e91815260200190565b60405180910390a36129d9565b8d6001600160a01b0316826001600160a01b03167fb8421f65501371f54d58de1937ff1e1ccdb76423ef6f84acea1814a0f6362ca0426040516129d091815260200190565b60405180910390a35b6001925050505b9b9a5050505050505050505050565b6001600160a01b038181166000908152600360209081526040808320815160e081019092528054948516825260609485948594859485949293909291830190600160a01b900460ff166004811115612a4957612a496147dd565b6004811115612a5a57612a5a6147dd565b815260200160018201548152602001600282016040518060a0016040529081600082018054612a8890614e5e565b80601f0160208091040260200160405190810160405280929190818152602001828054612ab490614e5e565b8015612b015780601f10612ad657610100808354040283529160200191612b01565b820191906000526020600020905b815481529060010190602001808311612ae457829003601f168201915b50505050508152602001600182018054612b1a90614e5e565b80601f0160208091040260200160405190810160405280929190818152602001828054612b4690614e5e565b8015612b935780601f10612b6857610100808354040283529160200191612b93565b820191906000526020600020905b815481529060010190602001808311612b7657829003601f168201915b50505050508152602001600282018054612bac90614e5e565b80601f0160208091040260200160405190810160405280929190818152602001828054612bd890614e5e565b8015612c255780601f10612bfa57610100808354040283529160200191612c25565b820191906000526020600020905b815481529060010190602001808311612c0857829003601f168201915b50505050508152602001600382018054612c3e90614e5e565b80601f0160208091040260200160405190810160405280929190818152602001828054612c6a90614e5e565b8015612cb75780601f10612c8c57610100808354040283529160200191612cb7565b820191906000526020600020905b815481529060010190602001808311612c9a57829003601f168201915b50505050508152602001600482018054612cd090614e5e565b80601f0160208091040260200160405190810160405280929190818152602001828054612cfc90614e5e565b8015612d495780601f10612d1e57610100808354040283529160200191612d49565b820191906000526020600020905b815481529060010190602001808311612d2c57829003601f168201915b5050505050815250508152602001600782015481526020016008820154815260200160098201805480602002602001604051908101604052809291908181526020018280548015612dc357602002820191906000526020600020905b81546001600160a01b03168152600190910190602001808311612da5575b5050509190925250505060609081015180516020820151604083015193830151608090930151919b909a50929850909650945092505050565b60606006805480602002602001604051908101604052809291908181526020018280548015612040576020028201919060005260206000209081546001600160a01b03168152600190910190602001808311612022575050505050905090565b6000604686511115612ea95760405162461bcd60e51b8152602060048201526016602482015275092dcecc2d8d2c840dadedcd2d6cae440d8cadccee8d60531b6044820152606401610a69565b610bb885511115612efc5760405162461bcd60e51b815260206004820152601760248201527f496e76616c6964206964656e74697479206c656e6774680000000000000000006044820152606401610a69565b608c84511115612f475760405162461bcd60e51b8152602060048201526016602482015275092dcecc2d8d2c840eecac4e6d2e8ca40d8cadccee8d60531b6044820152606401610a69565b608c83511115612f905760405162461bcd60e51b8152602060048201526014602482015273092dcecc2d8d2c840cadac2d2d840d8cadccee8d60631b6044820152606401610a69565b61011882511115612fdc5760405162461bcd60e51b8152602060048201526016602482015275092dcecc2d8d2c840c8cae8c2d2d8e640d8cadccee8d60531b6044820152606401610a69565b50600195945050505050565b3341146130245760405162461bcd60e51b815260206004820152600a6024820152694d696e6572206f6e6c7960b01b6044820152606401610a69565b436000908152600f6020908152604080832083805290915290205460ff161561308f5760405162461bcd60e51b815260206004820152601960248201527f426c6f636b20697320616c7265616479207265776172646564000000000000006044820152606401610a69565b60005460ff166130b15760405162461bcd60e51b8152600401610a6990614d7f565b436000908152600f602090815260408083208380529091528120805460ff19166001179055329034908190620186a06130ec614e2084614db8565b6130f69190614de5565b90506131028183614da5565b91506000620186a061311661c35086614db8565b6131209190614de5565b905061312c8184614da5565b6002546040519194506001600160a01b03169082156108fc029083906000818181858888f19350505050158015613167573d6000803e3d6000fd5b506000620186a061317a61138887614db8565b6131849190614de5565b90506b033b2e3c9fd0803ce8000000816001546131a19190614d6c565b116131fe576131b08185614da5565b935080600160008282546131c49190614d6c565b909155505080156131fe5760405160009082156108fc0290839083818181858288f193505050501580156131fc573d6000803e3d6000fd5b505b8751156133ab576000620186a061321761271088614db8565b6132219190614de5565b905061322d8186614da5565b9450600089518261323e9190614de5565b905080156133a85760005b8a518110156133a65760006001600160a01b03168b828151811061326f5761326f614df9565b60200260200101516001600160a01b0316141580156132d5575060006001600160a01b0316600960008d84815181106132aa576132aa614df9565b6020908102919091018101516001600160a01b03908116835290820192909252604001600020541614155b8015613303575060008a82815181106132f0576132f0614df9565b60200260200101516001600160401b0316115b1561339457600960008c838151811061331e5761331e614df9565b60200260200101516001600160a01b03166001600160a01b0316815260200190815260200160002060009054906101000a90046001600160a01b03166001600160a01b03166108fc839081150290604051600060405180830381858888f19350505050158015613392573d6000803e3d6000fd5b505b8061339e81614e0f565b915050613249565b505b50505b6001600160a01b0386166000818152600c60209081526040808320600b83528184208054855290835281842054948452429055600390915290206001015415613461576001600160a01b03871660009081526003602052604090206001015461341d8668056bc75e2d63100000614db8565b6134279190614de5565b6134319082614d6c565b6001600160a01b0388166000908152600c60209081526040808320600b83528184205484529091529020556134d5565b6001600160a01b0387166000908152600c60209081526040808320600b835281842054845290915290208190556134988585614d6c565b600d546040519195506001600160a01b03169085156108fc029086906000818181858888f193505050501580156134d3573d6000803e3d6000fd5b505b60006001600160a01b038816600090815260036020526040902054600160a01b900460ff16600481111561350b5761350b6147dd565b0361351b57505050505050505050565b61352684600061400c565b866001600160a01b03167f1d6ce8f9f300ecd90371399ce90da8388bba45019701a1fd6d6ee08ea580077685428c8c6040516135659493929190614fa6565b60405180910390a2505050505050505050565b6001600160a01b03818116600090815260096020526040812054909116156135d15760405162461bcd60e51b815260206004820152600c60248201526b1a5b9d985b1a590818d85b1b60a21b6044820152606401610a69565b506001600160a01b0316600090815260096020526040902080546001600160a01b03191632179055600190565b60008061360b6000614340565b915091509091565b6000805460ff166136365760405162461bcd60e51b8152600401610a6990614d7f565b3260006001600160a01b038416600090815260036020526040902054600160a01b900460ff16600481111561366d5761366d6147dd565b036136b05760405162461bcd60e51b815260206004820152601360248201527215985b1a59185d1bdc881b9bdd08195e1a5cdd606a1b6044820152606401610a69565b6001600160a01b03808216600090815260046020908152604080832093871683529281528282206003909152919020815460018301541561373f5760405162461bcd60e51b815260206004820152602360248201527f596f752061726520616c726561647920696e20756e7374616b696e672073746160448201526274757360e81b6064820152608401610a69565b6000811161378a5760405162461bcd60e51b8152602060048201526018602482015277596f7520646f6e2774206861766520616e79207374616b6560401b6044820152606401610a69565b60065460011480156137a057506137a086611f88565b80156137c557506a52b7d2dcc80cd2e40000008183600101546137c39190614da5565b105b156138465760405162461bcd60e51b815260206004820152604560248201527f596f752063616e277420756e7374616b652c2076616c696461746f72206c697360448201527f742077696c6c20626520656d7074792061667465722074686973206f7065726160648201526474696f6e2160d81b608482015260a401610a69565b600982015461385790600190614da5565b8360020154146139435760098201805461387390600190614da5565b8154811061388357613883614df9565b9060005260206000200160009054906101000a90046001600160a01b0316826009018460020154815481106138ba576138ba614df9565b9060005260206000200160006101000a8154816001600160a01b0302191690836001600160a01b031602179055508260020154600460008460090186600201548154811061390a5761390a614df9565b60009182526020808320909101546001600160a01b0390811684528382019490945260409283018220938b168252929092529020600201555b8160090180548061395657613956615011565b600082815260209020810160001990810180546001600160a01b03191690550190556001820154613988908290614da5565b6001808401919091554390840155600060028401556007546139ab908290614da5565b60075560018201546a52b7d2dcc80cd2e4000000118015613a00575060046001600160a01b038716600090815260036020526040902054600160a01b900460ff1660048111156139fd576139fd6147dd565b14155b15613a1f57815460ff60a01b1916600360a01b178255613a1f86614458565b613a2886611788565b506001600160a01b038481166000818152600a60209081526040808320948b1680845294825280832092909255815185815242918101919091527f449002ae18e748d69a55f38514400d64f966492e593e32d6e9b8b24db98a0bc1910160405180910390a350600195945050505050565b613aa1613f60565b6001600160a01b038116613b065760405162461bcd60e51b815260206004820152602660248201527f4f776e61626c653a206e6577206f776e657220697320746865207a65726f206160448201526564647265737360d01b6064820152608401610a69565b61159081613fba565b60005b600654811015613b6a57826001600160a01b031660068281548110613b3957613b39614df9565b6000918252602090912001546001600160a01b031603613b5857505050565b80613b6281614e0f565b915050613b12565b5060065460151115613bf457600680546001810182556000919091527ff652222313e28459528d920b65115c16c04f3efc82aaedc97be59f3f377c0d3f0180546001600160a01b0319166001600160a01b0384169081179091556040514281527f1e3310ad6891b30e03874ec3d1422a6386c5da63d9faf595f5d99eeaf443b99a906020016114cb565b6000600360006006600081548110613c0e57613c0e614df9565b60009182526020808320909101546001600160a01b03168352820192909252604001812060019081015492505b600654811015613ce257826003600060068481548110613c5d57613c5d614df9565b60009182526020808320909101546001600160a01b031683528201929092526040019020600101541015613cd0576003600060068381548110613ca257613ca2614df9565b60009182526020808320909101546001600160a01b0316835282019290925260400190206001015492509050805b80613cda81614e0f565b915050613c3b565b50818311613cf05750505050565b836001600160a01b03167f1e3310ad6891b30e03874ec3d1422a6386c5da63d9faf595f5d99eeaf443b99a42604051613d2b91815260200190565b60405180910390a260068181548110613d4657613d46614df9565b600091825260209182902001546040514281526001600160a01b03909116917f7521e44559c870c316e84e60bc4785d9c034a8ab1d6acdce8134ac03f946c6ed910160405180910390a28360068281548110613da457613da4614df9565b9060005260206000200160006101000a8154816001600160a01b0302191690836001600160a01b0316021790555050505050565b60006001600160a01b038216600090815260036020526040902054600160a01b900460ff166004811115613e0e57613e0e6147dd565b1480613e1d5750600554600110155b15613e255750565b6001600160a01b0381166000908152600360205260409020600701548015613eb057613e51818361400c565b80600854613e5f9190614d6c565b60089081556001600160a01b03831660009081526003602052604090200154613e89908290614d6c565b6001600160a01b038316600090815260036020526040812060088101929092556007909101555b604080518281524260208201526001600160a01b038416917fe294e9d73f8eee23e21b2e1567960625a6b5d339cb127b55d0d09473a995123591016114cb565b60006001600160a01b038216600090815260036020526040902054600160a01b900460ff166004811115613f2657613f266147dd565b03613f2e5750565b6001600160a01b0381166000908152600360205260409020805460ff60a01b1916600160a21b17905561159081614458565b6002546001600160a01b031633146117865760405162461bcd60e51b815260206004820181905260248201527f4f776e61626c653a2063616c6c6572206973206e6f7420746865206f776e65726044820152606401610a69565b600280546001600160a01b038381166001600160a01b0319831681179093556040519116919082907f8be0079c531659141344cd1fd0a4f28419497f9722a3daafe3b4186f6b6457e090600090a35050565b81600003614018575050565b60008061402483614340565b909250905060008190036140385750505050565b600080836000036141c057600061404f8488614de5565b905061405b8482614db8565b6140659088614da5565b925060005b6005548110156141555760006005828154811061408957614089614df9565b6000918252602090912001546001600160a01b0316905060046001600160a01b038216600090815260036020526040902054600160a01b900460ff1660048111156140d6576140d66147dd565b141580156140f65750876001600160a01b0316816001600160a01b031614155b15614142576001600160a01b038116600090815260036020526040902060070154614122908490614d6c565b6001600160a01b0382166000908152600360205260409020600701559250825b508061414d81614e0f565b91505061406a565b5060008311801561416e57506001600160a01b03821615155b156141b7576001600160a01b03821660009081526003602052604090206007015461419a908490614d6c565b6001600160a01b0383166000908152600360205260409020600701555b50505050505050565b6000805b6005548110156142f2576000600582815481106141e3576141e3614df9565b6000918252602090912001546001600160a01b0316905060046001600160a01b038216600090815260036020526040902054600160a01b900460ff166004811115614230576142306147dd565b141580156142505750876001600160a01b0316816001600160a01b031614155b156142df576001600160a01b038116600090815260036020526040812060010154889061427d908c614db8565b6142879190614de5565b90506142938185614d6c565b6001600160a01b038316600090815260036020526040902060070154929550935084916142c1908290614d6c565b6001600160a01b038316600090815260036020526040902060070155505b50806142ea81614e0f565b9150506141c4565b506142fd8188614da5565b925060008311801561416e57506001600160a01b038216156141b7576001600160a01b03821660009081526003602052604090206007015461419a908490614d6c565b60008060005b600554811015614452576004600360006005848154811061436957614369614df9565b60009182526020808320909101546001600160a01b0316835282019290925260400190205460ff600160a01b9091041660048111156143aa576143aa6147dd565b141580156143e25750600581815481106143c6576143c6614df9565b6000918252602090912001546001600160a01b03858116911614155b156144405760036000600583815481106143fe576143fe614df9565b60009182526020808320909101546001600160a01b031683528201929092526040019020600101546144309084614d6c565b92508161443c81614e0f565b9250505b8061444a81614e0f565b915050614346565b50915091565b60005b6006548110801561446e57506006546001105b156114d4576006818154811061448657614486614df9565b6000918252602090912001546001600160a01b03908116908316036145a5576006546144b490600190614da5565b811461453557600680546144ca90600190614da5565b815481106144da576144da614df9565b600091825260209091200154600680546001600160a01b03909216918390811061450657614506614df9565b9060005260206000200160006101000a8154816001600160a01b0302191690836001600160a01b031602179055505b600680548061454657614546615011565b600082815260209020810160001990810180546001600160a01b03191690550190556040516001600160a01b038316907f7521e44559c870c316e84e60bc4785d9c034a8ab1d6acdce8134ac03f946c6ed906114cb9042815260200190565b806145af81614e0f565b91505061445b565b82805482825590600052602060002090810192821561460c579160200282015b8281111561460c57825182546001600160a01b0319166001600160a01b039091161782556020909201916001909101906145d7565b5061461892915061461c565b5090565b5b80821115614618576000815560010161461d565b6001600160a01b038116811461159057600080fd5b60006020828403121561465857600080fd5b813561466381614631565b9392505050565b6000806040838503121561467d57600080fd5b823561468881614631565b9150602083013561469881614631565b809150509250929050565b6000602082840312156146b557600080fd5b5035919050565b634e487b7160e01b600052604160045260246000fd5b604051601f8201601f191681016001600160401b03811182821017156146fa576146fa6146bc565b604052919050565b60006001600160401b0382111561471b5761471b6146bc565b5060051b60200190565b600082601f83011261473657600080fd5b8135602061474b61474683614702565b6146d2565b82815260059290921b8401810191818101908684111561476a57600080fd5b8286015b8481101561478e57803561478181614631565b835291830191830161476e565b509695505050505050565b600080604083850312156147ac57600080fd5b82356001600160401b038111156147c257600080fd5b6147ce85828601614725565b95602094909401359450505050565b634e487b7160e01b600052602160045260246000fd5b600081518084526020808501945080840160005b8381101561482c5781516001600160a01b031687529582019590820190600101614807565b509495945050505050565b6001600160a01b038716815260006005871061486357634e487b7160e01b600052602160045260246000fd5b86602083015285604083015284606083015283608083015260c060a083015261488f60c08301846147f3565b98975050505050505050565b600080604083850312156148ae57600080fd5b82356148b981614631565b946020939093013593505050565b60208152600061466360208301846147f3565b600080602083850312156148ed57600080fd5b82356001600160401b038082111561490457600080fd5b818501915085601f83011261491857600080fd5b81358181111561492757600080fd5b8660208260051b850101111561493c57600080fd5b60209290920196919550909350505050565b803561129981614631565b60008083601f84011261496b57600080fd5b5081356001600160401b0381111561498257600080fd5b60208301915083602082850101111561499a57600080fd5b9250929050565b600080600080600080600080600080600060c08c8e0312156149c257600080fd5b6149cb8c61494e565b9a506001600160401b038060208e013511156149e657600080fd5b6149f68e60208f01358f01614959565b909b50995060408d0135811015614a0c57600080fd5b614a1c8e60408f01358f01614959565b909950975060608d0135811015614a3257600080fd5b614a428e60608f01358f01614959565b909750955060808d0135811015614a5857600080fd5b614a688e60808f01358f01614959565b909550935060a08d0135811015614a7e57600080fd5b50614a8f8d60a08e01358e01614959565b81935080925050509295989b509295989b9093969950565b6000815180845260005b81811015614acd57602081850181015186830182015201614ab1565b506000602082860101526020601f19601f83011685010191505092915050565b60a081526000614b0060a0830188614aa7565b8281036020840152614b128188614aa7565b90508281036040840152614b268187614aa7565b90508281036060840152614b3a8186614aa7565b9050828103608084015261488f8185614aa7565b600082601f830112614b5f57600080fd5b81356001600160401b03811115614b7857614b786146bc565b614b8b601f8201601f19166020016146d2565b818152846020838601011115614ba057600080fd5b816020850160208301376000918101602001919091529392505050565b600080600080600060a08688031215614bd557600080fd5b85356001600160401b0380821115614bec57600080fd5b614bf889838a01614b4e565b96506020880135915080821115614c0e57600080fd5b614c1a89838a01614b4e565b95506040880135915080821115614c3057600080fd5b614c3c89838a01614b4e565b94506060880135915080821115614c5257600080fd5b614c5e89838a01614b4e565b93506080880135915080821115614c7457600080fd5b50614c8188828901614b4e565b9150509295509295909350565b60008060408385031215614ca157600080fd5b82356001600160401b0380821115614cb857600080fd5b614cc486838701614725565b9350602091508185013581811115614cdb57600080fd5b8501601f81018713614cec57600080fd5b8035614cfa61474682614702565b81815260059190911b82018401908481019089831115614d1957600080fd5b928501925b82841015614d465783358581168114614d375760008081fd5b82529285019290850190614d1e565b8096505050505050509250929050565b634e487b7160e01b600052601160045260246000fd5b808201808211156113a8576113a8614d56565b6020808252600c908201526b139bdd081a5b9a5d081e595d60a21b604082015260600190565b818103818111156113a8576113a8614d56565b80820281158282048414176113a8576113a8614d56565b634e487b7160e01b600052601260045260246000fd5b600082614df457614df4614dcf565b500490565b634e487b7160e01b600052603260045260246000fd5b600060018201614e2157614e21614d56565b5060010190565b600082614e3757614e37614dcf565b500690565b600060208284031215614e4e57600080fd5b8151801515811461466357600080fd5b600181811c90821680614e7257607f821691505b602082108103614e9257634e487b7160e01b600052602260045260246000fd5b50919050565b601f821115614ee257600081815260208120601f850160051c81016020861015614ebf5750805b601f850160051c820191505b81811015614ede57828155600101614ecb565b5050505b505050565b81516001600160401b03811115614f0057614f006146bc565b614f1481614f0e8454614e5e565b84614e98565b602080601f831160018114614f495760008415614f315750858301515b600019600386901b1c1916600185901b178555614ede565b600085815260208120601f198616915b82811015614f7857888601518255948401946001909101908401614f59565b5085821015614f965787850151600019600388901b60f8161c191681555b5050505050600190811b01905550565b84815260006020858184015260806040840152614fc660808401866147f3565b838103606085015284518082528286019183019060005b818110156150025783516001600160401b031683529284019291840191600101614fdd565b50909998505050505050505050565b634e487b7160e01b600052603160045260246000fdfea2646970667358221220c2a7c35b07fac844857647057764079e7f41b69e72071b27daa2ca67d80ece5364736f6c63430008110033",
			"opcodes": "PUSH1 0x80 PUSH1 0x40 MSTORE CALLVALUE DUP1 ISZERO PUSH3 0x11 JUMPI PUSH1 0x0 DUP1 REVERT JUMPDEST POP PUSH3 0x1D CALLER PUSH3 0x23 JUMP JUMPDEST PUSH3 0x75 JUMP JUMPDEST PUSH1 0x2 DUP1 SLOAD PUSH1 0x1 PUSH1 0x1 PUSH1 0xA0 SHL SUB DUP4 DUP2 AND PUSH1 0x1 PUSH1 0x1 PUSH1 0xA0 SHL SUB NOT DUP4 AND DUP2 OR SWAP1 SWAP4 SSTORE PUSH1 0x40 MLOAD SWAP2 AND SWAP2 SWAP1 DUP3 SWAP1 PUSH32 0x8BE0079C531659141344CD1FD0A4F28419497F9722A3DAAFE3B4186F6B6457E0 SWAP1 PUSH1 0x0 SWAP1 LOG3 POP POP JUMP JUMPDEST PUSH2 0x505D DUP1 PUSH3 0x85 PUSH1 0x0 CODECOPY PUSH1 0x0 RETURN INVALID PUSH1 0x80 PUSH1 0x40 MSTORE PUSH1 0x4 CALLDATASIZE LT PUSH2 0x2FE JUMPI PUSH1 0x0 CALLDATALOAD PUSH1 0xE0 SHR DUP1 PUSH4 0x82BD3D92 GT PUSH2 0x190 JUMPI DUP1 PUSH4 0xB2BDFA7B GT PUSH2 0xDC JUMPI DUP1 PUSH4 0xC967F90F GT PUSH2 0x95 JUMPI DUP1 PUSH4 0xDB78DD28 GT PUSH2 0x6F JUMPI DUP1 PUSH4 0xDB78DD28 EQ PUSH2 0x96E JUMPI DUP1 PUSH4 0xF2888DBB EQ PUSH2 0x99C JUMPI DUP1 PUSH4 0xF2FDE38B EQ PUSH2 0x9BC JUMPI DUP1 PUSH4 0xFCA737C0 EQ PUSH2 0x9DC JUMPI PUSH1 0x0 DUP1 REVERT JUMPDEST DUP1 PUSH4 0xC967F90F EQ PUSH2 0x8FA JUMPI DUP1 PUSH4 0xCD779D21 EQ PUSH2 0x922 JUMPI DUP1 PUSH4 0xD571770C EQ PUSH2 0x938 JUMPI PUSH1 0x0 DUP1 REVERT JUMPDEST DUP1 PUSH4 0xB2BDFA7B EQ PUSH2 0x83E JUMPI DUP1 PUSH4 0xB6C88519 EQ PUSH2 0x85E JUMPI DUP1 PUSH4 0xBB1C0310 EQ PUSH2 0x87E JUMPI DUP1 PUSH4 0xBD10BA76 EQ PUSH2 0x891 JUMPI DUP1 PUSH4 0xBE645692 EQ PUSH2 0x8B1 JUMPI DUP1 PUSH4 0xC253C384 EQ PUSH2 0x8D0 JUMPI PUSH1 0x0 DUP1 REVERT JUMPDEST DUP1 PUSH4 0x98E3B626 GT PUSH2 0x149 JUMPI DUP1 PUSH4 0xA224CEE7 GT PUSH2 0x123 JUMPI DUP1 PUSH4 0xA224CEE7 EQ PUSH2 0x7C5 JUMPI DUP1 PUSH4 0xA406FCB7 EQ PUSH2 0x7E5 JUMPI DUP1 PUSH4 0xA43569B3 EQ PUSH2 0x7F8 JUMPI DUP1 PUSH4 0xAFEEA115 EQ PUSH2 0x829 JUMPI PUSH1 0x0 DUP1 REVERT JUMPDEST DUP1 PUSH4 0x98E3B626 EQ PUSH2 0x763 JUMPI DUP1 PUSH4 0x9D7714CE EQ PUSH2 0x783 JUMPI DUP1 PUSH4 0x9DE70258 EQ PUSH2 0x7A3 JUMPI PUSH1 0x0 DUP1 REVERT JUMPDEST DUP1 PUSH4 0x82BD3D92 EQ PUSH2 0x68F JUMPI DUP1 PUSH4 0x8A11D7C9 EQ PUSH2 0x6AF JUMPI DUP1 PUSH4 0x8B0E9F3F EQ PUSH2 0x6E1 JUMPI DUP1 PUSH4 0x8DA5CB5B EQ PUSH2 0x6F7 JUMPI DUP1 PUSH4 0x92F2C437 EQ PUSH2 0x715 JUMPI DUP1 PUSH4 0x966FF650 EQ PUSH2 0x74D JUMPI PUSH1 0x0 DUP1 REVERT JUMPDEST DUP1 PUSH4 0x40550A1C GT PUSH2 0x24F JUMPI DUP1 PUSH4 0x6233BE5D GT PUSH2 0x208 JUMPI DUP1 PUSH4 0x6EA69D62 GT PUSH2 0x1E2 JUMPI DUP1 PUSH4 0x6EA69D62 EQ PUSH2 0x5CC JUMPI DUP1 PUSH4 0x715018A6 EQ PUSH2 0x5EC JUMPI DUP1 PUSH4 0x72D30A70 EQ PUSH2 0x601 JUMPI DUP1 PUSH4 0x7F4F95FA EQ PUSH2 0x621 JUMPI PUSH1 0x0 DUP1 REVERT JUMPDEST DUP1 PUSH4 0x6233BE5D EQ PUSH2 0x576 JUMPI DUP1 PUSH4 0x6846992A EQ PUSH2 0x58C JUMPI DUP1 PUSH4 0x6969A25C EQ PUSH2 0x5AC JUMPI PUSH1 0x0 DUP1 REVERT JUMPDEST DUP1 PUSH4 0x40550A1C EQ PUSH2 0x4BE JUMPI DUP1 PUSH4 0x40A141FF EQ PUSH2 0x4DE JUMPI DUP1 PUSH4 0x42127EE7 EQ PUSH2 0x500 JUMPI DUP1 PUSH4 0x4B3D500B EQ PUSH2 0x516 JUMPI DUP1 PUSH4 0x51508F0A EQ PUSH2 0x536 JUMPI DUP1 PUSH4 0x5DD09590 EQ PUSH2 0x556 JUMPI PUSH1 0x0 DUP1 REVERT JUMPDEST DUP1 PUSH4 0x222D3B05 GT PUSH2 0x2BC JUMPI DUP1 PUSH4 0x37DBC8CC GT PUSH2 0x296 JUMPI DUP1 PUSH4 0x37DBC8CC EQ PUSH2 0x445 JUMPI DUP1 PUSH4 0x3A061BD3 EQ PUSH2 0x45B JUMPI DUP1 PUSH4 0x3AE898CA EQ PUSH2 0x471 JUMPI DUP1 PUSH4 0x3B5D441E EQ PUSH2 0x491 JUMPI PUSH1 0x0 DUP1 REVERT JUMPDEST DUP1 PUSH4 0x222D3B05 EQ PUSH2 0x3FC JUMPI DUP1 PUSH4 0x26476204 EQ PUSH2 0x41C JUMPI DUP1 PUSH4 0x3225CE61 EQ PUSH2 0x42F JUMPI PUSH1 0x0 DUP1 REVERT JUMPDEST DUP1 PUSH3 0x362A77 EQ PUSH2 0x303 JUMPI DUP1 PUSH4 0x1AEC704 EQ PUSH2 0x338 JUMPI DUP1 PUSH4 0x976C65D EQ PUSH2 0x37E JUMPI DUP1 PUSH4 0x1303F7CF EQ PUSH2 0x39E JUMPI DUP1 PUSH4 0x158EF93E EQ PUSH2 0x3B4 JUMPI DUP1 PUSH4 0x1B5E358C EQ PUSH2 0x3CE JUMPI JUMPDEST PUSH1 0x0 DUP1 REVERT JUMPDEST CALLVALUE DUP1 ISZERO PUSH2 0x30F JUMPI PUSH1 0x0 DUP1 REVERT JUMPDEST POP PUSH2 0x323 PUSH2 0x31E CALLDATASIZE PUSH1 0x4 PUSH2 0x4646 JUMP JUMPDEST PUSH2 0x9F2 JUMP JUMPDEST PUSH1 0x40 MLOAD SWAP1 ISZERO ISZERO DUP2 MSTORE PUSH1 0x20 ADD JUMPDEST PUSH1 0x40 MLOAD DUP1 SWAP2 SUB SWAP1 RETURN JUMPDEST CALLVALUE DUP1 ISZERO PUSH2 0x344 JUMPI PUSH1 0x0 DUP1 REVERT JUMPDEST POP PUSH2 0x370 PUSH2 0x353 CALLDATASIZE PUSH1 0x4 PUSH2 0x466A JUMP JUMPDEST PUSH1 0xA PUSH1 0x20 SWAP1 DUP2 MSTORE PUSH1 0x0 SWAP3 DUP4 MSTORE PUSH1 0x40 DUP1 DUP5 KECCAK256 SWAP1 SWAP2 MSTORE SWAP1 DUP3 MSTORE SWAP1 KECCAK256 SLOAD DUP2 JUMP JUMPDEST PUSH1 0x40 MLOAD SWAP1 DUP2 MSTORE PUSH1 0x20 ADD PUSH2 0x32F JUMP JUMPDEST CALLVALUE DUP1 ISZERO PUSH2 0x38A JUMPI PUSH1 0x0 DUP1 REVERT JUMPDEST POP PUSH2 0x370 PUSH12 0x19D971E4FE8401E74000000 DUP2 JUMP JUMPDEST CALLVALUE DUP1 ISZERO PUSH2 0x3AA JUMPI PUSH1 0x0 DUP1 REVERT JUMPDEST POP PUSH2 0x370 PUSH1 0x8 SLOAD DUP2 JUMP JUMPDEST CALLVALUE DUP1 ISZERO PUSH2 0x3C0 JUMPI PUSH1 0x0 DUP1 REVERT JUMPDEST POP PUSH1 0x0 SLOAD PUSH2 0x323 SWAP1 PUSH1 0xFF AND DUP2 JUMP JUMPDEST CALLVALUE DUP1 ISZERO PUSH2 0x3DA JUMPI PUSH1 0x0 DUP1 REVERT JUMPDEST POP PUSH2 0x3E4 PUSH2 0xF001 DUP2 JUMP JUMPDEST PUSH1 0x40 MLOAD PUSH1 0x1 PUSH1 0x1 PUSH1 0xA0 SHL SUB SWAP1 SWAP2 AND DUP2 MSTORE PUSH1 0x20 ADD PUSH2 0x32F JUMP JUMPDEST CALLVALUE DUP1 ISZERO PUSH2 0x408 JUMPI PUSH1 0x0 DUP1 REVERT JUMPDEST POP PUSH2 0x323 PUSH2 0x417 CALLDATASIZE PUSH1 0x4 PUSH2 0x4646 JUMP JUMPDEST PUSH2 0xC14 JUMP JUMPDEST PUSH2 0x323 PUSH2 0x42A CALLDATASIZE PUSH1 0x4 PUSH2 0x4646 JUMP JUMPDEST PUSH2 0xE43 JUMP JUMPDEST CALLVALUE DUP1 ISZERO PUSH2 0x43B JUMPI PUSH1 0x0 DUP1 REVERT JUMPDEST POP PUSH2 0x370 PUSH2 0xC350 DUP2 JUMP JUMPDEST CALLVALUE DUP1 ISZERO PUSH2 0x451 JUMPI PUSH1 0x0 DUP1 REVERT JUMPDEST POP PUSH2 0x370 PUSH2 0x1388 DUP2 JUMP JUMPDEST CALLVALUE DUP1 ISZERO PUSH2 0x467 JUMPI PUSH1 0x0 DUP1 REVERT JUMPDEST POP PUSH2 0x3E4 PUSH2 0xF000 DUP2 JUMP JUMPDEST CALLVALUE DUP1 ISZERO PUSH2 0x47D JUMPI PUSH1 0x0 DUP1 REVERT JUMPDEST POP PUSH2 0x370 PUSH2 0x48C CALLDATASIZE PUSH1 0x4 PUSH2 0x466A JUMP JUMPDEST PUSH2 0x129E JUMP JUMPDEST CALLVALUE DUP1 ISZERO PUSH2 0x49D JUMPI PUSH1 0x0 DUP1 REVERT JUMPDEST POP PUSH2 0x370 PUSH2 0x4AC CALLDATASIZE PUSH1 0x4 PUSH2 0x4646 JUMP JUMPDEST PUSH1 0xB PUSH1 0x20 MSTORE PUSH1 0x0 SWAP1 DUP2 MSTORE PUSH1 0x40 SWAP1 KECCAK256 SLOAD DUP2 JUMP JUMPDEST CALLVALUE DUP1 ISZERO PUSH2 0x4CA JUMPI PUSH1 0x0 DUP1 REVERT JUMPDEST POP PUSH2 0x323 PUSH2 0x4D9 CALLDATASIZE PUSH1 0x4 PUSH2 0x4646 JUMP JUMPDEST PUSH2 0x13AE JUMP JUMPDEST CALLVALUE DUP1 ISZERO PUSH2 0x4EA JUMPI PUSH1 0x0 DUP1 REVERT JUMPDEST POP PUSH2 0x4FE PUSH2 0x4F9 CALLDATASIZE PUSH1 0x4 PUSH2 0x4646 JUMP JUMPDEST PUSH2 0x140E JUMP JUMPDEST STOP JUMPDEST CALLVALUE DUP1 ISZERO PUSH2 0x50C JUMPI PUSH1 0x0 DUP1 REVERT JUMPDEST POP PUSH2 0x370 PUSH2 0x4E20 DUP2 JUMP JUMPDEST CALLVALUE DUP1 ISZERO PUSH2 0x522 JUMPI PUSH1 0x0 DUP1 REVERT JUMPDEST POP PUSH2 0x3E4 PUSH2 0x531 CALLDATASIZE PUSH1 0x4 PUSH2 0x46A3 JUMP JUMPDEST PUSH2 0x14D8 JUMP JUMPDEST CALLVALUE DUP1 ISZERO PUSH2 0x542 JUMPI PUSH1 0x0 DUP1 REVERT JUMPDEST POP PUSH2 0x4FE PUSH2 0x551 CALLDATASIZE PUSH1 0x4 PUSH2 0x4646 JUMP JUMPDEST PUSH2 0x1502 JUMP JUMPDEST CALLVALUE DUP1 ISZERO PUSH2 0x562 JUMPI PUSH1 0x0 DUP1 REVERT JUMPDEST POP PUSH2 0x4FE PUSH2 0x571 CALLDATASIZE PUSH1 0x4 PUSH2 0x4646 JUMP JUMPDEST PUSH2 0x153F JUMP JUMPDEST CALLVALUE DUP1 ISZERO PUSH2 0x582 JUMPI PUSH1 0x0 DUP1 REVERT JUMPDEST POP PUSH2 0x3E4 PUSH2 0xF002 DUP2 JUMP JUMPDEST CALLVALUE DUP1 ISZERO PUSH2 0x598 JUMPI PUSH1 0x0 DUP1 REVERT JUMPDEST POP PUSH2 0x4FE PUSH2 0x5A7 CALLDATASIZE PUSH1 0x4 PUSH2 0x4799 JUMP JUMPDEST PUSH2 0x1593 JUMP JUMPDEST CALLVALUE DUP1 ISZERO PUSH2 0x5B8 JUMPI PUSH1 0x0 DUP1 REVERT JUMPDEST POP PUSH2 0x3E4 PUSH2 0x5C7 CALLDATASIZE PUSH1 0x4 PUSH2 0x46A3 JUMP JUMPDEST PUSH2 0x1764 JUMP JUMPDEST CALLVALUE DUP1 ISZERO PUSH2 0x5D8 JUMPI PUSH1 0x0 DUP1 REVERT JUMPDEST POP PUSH1 0xD SLOAD PUSH2 0x3E4 SWAP1 PUSH1 0x1 PUSH1 0x1 PUSH1 0xA0 SHL SUB AND DUP2 JUMP JUMPDEST CALLVALUE DUP1 ISZERO PUSH2 0x5F8 JUMPI PUSH1 0x0 DUP1 REVERT JUMPDEST POP PUSH2 0x4FE PUSH2 0x1774 JUMP JUMPDEST CALLVALUE DUP1 ISZERO PUSH2 0x60D JUMPI PUSH1 0x0 DUP1 REVERT JUMPDEST POP PUSH2 0x323 PUSH2 0x61C CALLDATASIZE PUSH1 0x4 PUSH2 0x4646 JUMP JUMPDEST PUSH2 0x1788 JUMP JUMPDEST CALLVALUE DUP1 ISZERO PUSH2 0x62D JUMPI PUSH1 0x0 DUP1 REVERT JUMPDEST POP PUSH2 0x674 PUSH2 0x63C CALLDATASIZE PUSH1 0x4 PUSH2 0x466A JUMP JUMPDEST PUSH1 0x1 PUSH1 0x1 PUSH1 0xA0 SHL SUB SWAP2 DUP3 AND PUSH1 0x0 SWAP1 DUP2 MSTORE PUSH1 0x4 PUSH1 0x20 SWAP1 DUP2 MSTORE PUSH1 0x40 DUP1 DUP4 KECCAK256 SWAP4 SWAP1 SWAP5 AND DUP3 MSTORE SWAP2 SWAP1 SWAP2 MSTORE KECCAK256 DUP1 SLOAD PUSH1 0x1 DUP3 ADD SLOAD PUSH1 0x2 SWAP1 SWAP3 ADD SLOAD SWAP1 SWAP3 JUMP JUMPDEST PUSH1 0x40 DUP1 MLOAD SWAP4 DUP5 MSTORE PUSH1 0x20 DUP5 ADD SWAP3 SWAP1 SWAP3 MSTORE SWAP1 DUP3 ADD MSTORE PUSH1 0x60 ADD PUSH2 0x32F JUMP JUMPDEST CALLVALUE DUP1 ISZERO PUSH2 0x69B JUMPI PUSH1 0x0 DUP1 REVERT JUMPDEST POP PUSH2 0x323 PUSH2 0x6AA CALLDATASIZE PUSH1 0x4 PUSH2 0x4646 JUMP JUMPDEST PUSH2 0x1938 JUMP JUMPDEST CALLVALUE DUP1 ISZERO PUSH2 0x6BB JUMPI PUSH1 0x0 DUP1 REVERT JUMPDEST POP PUSH2 0x6CF PUSH2 0x6CA CALLDATASIZE PUSH1 0x4 PUSH2 0x4646 JUMP JUMPDEST PUSH2 0x1B76 JUMP JUMPDEST PUSH1 0x40 MLOAD PUSH2 0x32F SWAP7 SWAP6 SWAP5 SWAP4 SWAP3 SWAP2 SWAP1 PUSH2 0x4837 JUMP JUMPDEST CALLVALUE DUP1 ISZERO PUSH2 0x6ED JUMPI PUSH1 0x0 DUP1 REVERT JUMPDEST POP PUSH2 0x370 PUSH1 0x7 SLOAD DUP2 JUMP JUMPDEST CALLVALUE DUP1 ISZERO PUSH2 0x703 JUMPI PUSH1 0x0 DUP1 REVERT JUMPDEST POP PUSH1 0x2 SLOAD PUSH1 0x1 PUSH1 0x1 PUSH1 0xA0 SHL SUB AND PUSH2 0x3E4 JUMP JUMPDEST CALLVALUE DUP1 ISZERO PUSH2 0x721 JUMPI PUSH1 0x0 DUP1 REVERT JUMPDEST POP PUSH2 0x370 PUSH2 0x730 CALLDATASIZE PUSH1 0x4 PUSH2 0x489B JUMP JUMPDEST PUSH1 0xC PUSH1 0x20 SWAP1 DUP2 MSTORE PUSH1 0x0 SWAP3 DUP4 MSTORE PUSH1 0x40 DUP1 DUP5 KECCAK256 SWAP1 SWAP2 MSTORE SWAP1 DUP3 MSTORE SWAP1 KECCAK256 SLOAD DUP2 JUMP JUMPDEST CALLVALUE DUP1 ISZERO PUSH2 0x759 JUMPI PUSH1 0x0 DUP1 REVERT JUMPDEST POP PUSH2 0x370 PUSH1 0x1 SLOAD DUP2 JUMP JUMPDEST CALLVALUE DUP1 ISZERO PUSH2 0x76F JUMPI PUSH1 0x0 DUP1 REVERT JUMPDEST POP PUSH2 0x323 PUSH2 0x77E CALLDATASIZE PUSH1 0x4 PUSH2 0x4646 JUMP JUMPDEST PUSH2 0x1F88 JUMP JUMPDEST CALLVALUE DUP1 ISZERO PUSH2 0x78F JUMPI PUSH1 0x0 DUP1 REVERT JUMPDEST POP PUSH2 0x370 PUSH12 0x33B2E3C9FD0803CE8000000 DUP2 JUMP JUMPDEST CALLVALUE DUP1 ISZERO PUSH2 0x7AF JUMPI PUSH1 0x0 DUP1 REVERT JUMPDEST POP PUSH2 0x7B8 PUSH2 0x1FE8 JUMP JUMPDEST PUSH1 0x40 MLOAD PUSH2 0x32F SWAP2 SWAP1 PUSH2 0x48C7 JUMP JUMPDEST CALLVALUE DUP1 ISZERO PUSH2 0x7D1 JUMPI PUSH1 0x0 DUP1 REVERT JUMPDEST POP PUSH2 0x4FE PUSH2 0x7E0 CALLDATASIZE PUSH1 0x4 PUSH2 0x48DA JUMP JUMPDEST PUSH2 0x204A JUMP JUMPDEST PUSH2 0x323 PUSH2 0x7F3 CALLDATASIZE PUSH1 0x4 PUSH2 0x49A1 JUMP JUMPDEST PUSH2 0x2476 JUMP JUMPDEST CALLVALUE DUP1 ISZERO PUSH2 0x804 JUMPI PUSH1 0x0 DUP1 REVERT JUMPDEST POP PUSH2 0x818 PUSH2 0x813 CALLDATASIZE PUSH1 0x4 PUSH2 0x4646 JUMP JUMPDEST PUSH2 0x29EF JUMP JUMPDEST PUSH1 0x40 MLOAD PUSH2 0x32F SWAP6 SWAP5 SWAP4 SWAP3 SWAP2 SWAP1 PUSH2 0x4AED JUMP JUMPDEST CALLVALUE DUP1 ISZERO PUSH2 0x835 JUMPI PUSH1 0x0 DUP1 REVERT JUMPDEST POP PUSH2 0x7B8 PUSH2 0x2DFC JUMP JUMPDEST CALLVALUE DUP1 ISZERO PUSH2 0x84A JUMPI PUSH1 0x0 DUP1 REVERT JUMPDEST POP PUSH1 0x2 SLOAD PUSH2 0x3E4 SWAP1 PUSH1 0x1 PUSH1 0x1 PUSH1 0xA0 SHL SUB AND DUP2 JUMP JUMPDEST CALLVALUE DUP1 ISZERO PUSH2 0x86A JUMPI PUSH1 0x0 DUP1 REVERT JUMPDEST POP PUSH2 0x323 PUSH2 0x879 CALLDATASIZE PUSH1 0x4 PUSH2 0x4BBD JUMP JUMPDEST PUSH2 0x2E5C JUMP JUMPDEST PUSH2 0x4FE PUSH2 0x88C CALLDATASIZE PUSH1 0x4 PUSH2 0x4C8E JUMP JUMPDEST PUSH2 0x2FE8 JUMP JUMPDEST CALLVALUE DUP1 ISZERO PUSH2 0x89D JUMPI PUSH1 0x0 DUP1 REVERT JUMPDEST POP PUSH2 0x323 PUSH2 0x8AC CALLDATASIZE PUSH1 0x4 PUSH2 0x4646 JUMP JUMPDEST PUSH2 0x3578 JUMP JUMPDEST CALLVALUE DUP1 ISZERO PUSH2 0x8BD JUMPI PUSH1 0x0 DUP1 REVERT JUMPDEST POP PUSH2 0x370 PUSH11 0x52B7D2DCC80CD2E4000000 DUP2 JUMP JUMPDEST CALLVALUE DUP1 ISZERO PUSH2 0x8DC JUMPI PUSH1 0x0 DUP1 REVERT JUMPDEST POP PUSH2 0x8E5 PUSH2 0x35FE JUMP JUMPDEST PUSH1 0x40 DUP1 MLOAD SWAP3 DUP4 MSTORE PUSH1 0x20 DUP4 ADD SWAP2 SWAP1 SWAP2 MSTORE ADD PUSH2 0x32F JUMP JUMPDEST CALLVALUE DUP1 ISZERO PUSH2 0x906 JUMPI PUSH1 0x0 DUP1 REVERT JUMPDEST POP PUSH2 0x90F PUSH1 0x15 DUP2 JUMP JUMPDEST PUSH1 0x40 MLOAD PUSH2 0xFFFF SWAP1 SWAP2 AND DUP2 MSTORE PUSH1 0x20 ADD PUSH2 0x32F JUMP JUMPDEST CALLVALUE DUP1 ISZERO PUSH2 0x92E JUMPI PUSH1 0x0 DUP1 REVERT JUMPDEST POP PUSH2 0x370 PUSH2 0x3A98 DUP2 JUMP JUMPDEST CALLVALUE DUP1 ISZERO PUSH2 0x944 JUMPI PUSH1 0x0 DUP1 REVERT JUMPDEST POP PUSH2 0x3E4 PUSH2 0x953 CALLDATASIZE PUSH1 0x4 PUSH2 0x4646 JUMP JUMPDEST PUSH1 0x9 PUSH1 0x20 MSTORE PUSH1 0x0 SWAP1 DUP2 MSTORE PUSH1 0x40 SWAP1 KECCAK256 SLOAD PUSH1 0x1 PUSH1 0x1 PUSH1 0xA0 SHL SUB AND DUP2 JUMP JUMPDEST CALLVALUE DUP1 ISZERO PUSH2 0x97A JUMPI PUSH1 0x0 DUP1 REVERT JUMPDEST POP PUSH2 0x984 PUSH2 0x7080 DUP2 JUMP JUMPDEST PUSH1 0x40 MLOAD PUSH1 0x1 PUSH1 0x1 PUSH1 0x40 SHL SUB SWAP1 SWAP2 AND DUP2 MSTORE PUSH1 0x20 ADD PUSH2 0x32F JUMP JUMPDEST CALLVALUE DUP1 ISZERO PUSH2 0x9A8 JUMPI PUSH1 0x0 DUP1 REVERT JUMPDEST POP PUSH2 0x323 PUSH2 0x9B7 CALLDATASIZE PUSH1 0x4 PUSH2 0x4646 JUMP JUMPDEST PUSH2 0x3613 JUMP JUMPDEST CALLVALUE DUP1 ISZERO PUSH2 0x9C8 JUMPI PUSH1 0x0 DUP1 REVERT JUMPDEST POP PUSH2 0x4FE PUSH2 0x9D7 CALLDATASIZE PUSH1 0x4 PUSH2 0x4646 JUMP JUMPDEST PUSH2 0x3A99 JUMP JUMPDEST CALLVALUE DUP1 ISZERO PUSH2 0x9E8 JUMPI PUSH1 0x0 DUP1 REVERT JUMPDEST POP PUSH2 0x370 PUSH2 0x2710 DUP2 JUMP JUMPDEST PUSH1 0x0 ORIGIN DUP2 PUSH1 0x1 PUSH1 0x1 PUSH1 0xA0 SHL SUB DUP5 AND PUSH1 0x0 SWAP1 DUP2 MSTORE PUSH1 0x3 PUSH1 0x20 MSTORE PUSH1 0x40 SWAP1 KECCAK256 SLOAD PUSH1 0x1 PUSH1 0xA0 SHL SWAP1 DIV PUSH1 0xFF AND PUSH1 0x4 DUP2 GT ISZERO PUSH2 0xA2A JUMPI PUSH2 0xA2A PUSH2 0x47DD JUMP JUMPDEST SUB PUSH2 0xA72 JUMPI PUSH1 0x40 MLOAD PUSH3 0x461BCD PUSH1 0xE5 SHL DUP2 MSTORE PUSH1 0x20 PUSH1 0x4 DUP3 ADD MSTORE PUSH1 0x13 PUSH1 0x24 DUP3 ADD MSTORE PUSH19 0x15985B1A59185D1BDC881B9BDD08195E1A5CDD PUSH1 0x6A SHL PUSH1 0x44 DUP3 ADD MSTORE PUSH1 0x64 ADD JUMPDEST PUSH1 0x40 MLOAD DUP1 SWAP2 SUB SWAP1 REVERT JUMPDEST PUSH1 0x1 PUSH1 0x1 PUSH1 0xA0 SHL SUB DUP4 DUP2 AND PUSH1 0x0 SWAP1 DUP2 MSTORE PUSH1 0x3 PUSH1 0x20 MSTORE PUSH1 0x40 SWAP1 KECCAK256 SLOAD DUP2 AND SWAP1 DUP3 AND EQ PUSH2 0xAF5 JUMPI PUSH1 0x40 MLOAD PUSH3 0x461BCD PUSH1 0xE5 SHL DUP2 MSTORE PUSH1 0x20 PUSH1 0x4 DUP3 ADD MSTORE PUSH1 0x2E PUSH1 0x24 DUP3 ADD MSTORE PUSH32 0x596F7520617265206E6F742074686520666565207265636569766572206F6620 PUSH1 0x44 DUP3 ADD MSTORE PUSH14 0x3A3434B9903B30B634B230BA37B9 PUSH1 0x91 SHL PUSH1 0x64 DUP3 ADD MSTORE PUSH1 0x84 ADD PUSH2 0xA69 JUMP JUMPDEST PUSH1 0x1 PUSH1 0x1 PUSH1 0xA0 SHL SUB DUP4 AND PUSH1 0x0 SWAP1 DUP2 MSTORE PUSH1 0x3 PUSH1 0x20 MSTORE PUSH1 0x40 SWAP1 KECCAK256 PUSH1 0x7 ADD SLOAD DUP1 PUSH2 0xB5E JUMPI PUSH1 0x40 MLOAD PUSH3 0x461BCD PUSH1 0xE5 SHL DUP2 MSTORE PUSH1 0x20 PUSH1 0x4 DUP3 ADD MSTORE PUSH1 0x1A PUSH1 0x24 DUP3 ADD MSTORE PUSH32 0x596F7520646F6E2774206861766520616E792070726F66697473000000000000 PUSH1 0x44 DUP3 ADD MSTORE PUSH1 0x64 ADD PUSH2 0xA69 JUMP JUMPDEST PUSH1 0x1 PUSH1 0x1 PUSH1 0xA0 SHL SUB DUP5 AND PUSH1 0x0 SWAP1 DUP2 MSTORE PUSH1 0x3 PUSH1 0x20 MSTORE PUSH1 0x40 DUP2 KECCAK256 PUSH1 0x7 ADD SSTORE DUP1 ISZERO PUSH2 0xBB8 JUMPI PUSH1 0x40 MLOAD PUSH1 0x1 PUSH1 0x1 PUSH1 0xA0 SHL SUB DUP4 AND SWAP1 DUP3 ISZERO PUSH2 0x8FC MUL SWAP1 DUP4 SWAP1 PUSH1 0x0 DUP2 DUP2 DUP2 DUP6 DUP9 DUP9 CALL SWAP4 POP POP POP POP ISZERO DUP1 ISZERO PUSH2 0xBB6 JUMPI RETURNDATASIZE PUSH1 0x0 DUP1 RETURNDATACOPY RETURNDATASIZE PUSH1 0x0 REVERT JUMPDEST POP JUMPDEST PUSH2 0xBC1 DUP5 PUSH2 0x1788 JUMP JUMPDEST POP PUSH1 0x40 DUP1 MLOAD DUP3 DUP2 MSTORE TIMESTAMP PUSH1 0x20 DUP3 ADD MSTORE PUSH1 0x1 PUSH1 0x1 PUSH1 0xA0 SHL SUB DUP1 DUP6 AND SWAP3 SWAP1 DUP8 AND SWAP2 PUSH32 0x51A69B4502F660774C9339825C7B5ADBF0B8622289134647E29728EC5D9B3BB9 SWAP2 ADD PUSH1 0x40 MLOAD DUP1 SWAP2 SUB SWAP1 LOG3 POP PUSH1 0x1 SWAP4 SWAP3 POP POP POP JUMP JUMPDEST ORIGIN PUSH1 0x0 DUP2 DUP2 MSTORE PUSH1 0x4 PUSH1 0x20 DUP2 DUP2 MSTORE PUSH1 0x40 DUP1 DUP5 KECCAK256 PUSH1 0x1 PUSH1 0x1 PUSH1 0xA0 SHL SUB DUP8 AND DUP6 MSTORE DUP3 MSTORE DUP1 DUP5 KECCAK256 PUSH1 0x3 SWAP1 SWAP3 MSTORE DUP4 KECCAK256 SLOAD SWAP3 SWAP4 SWAP3 SWAP1 SWAP2 DUP5 SWAP2 PUSH1 0x1 PUSH1 0xA0 SHL SWAP1 DIV PUSH1 0xFF AND SWAP1 DUP2 GT ISZERO PUSH2 0xC60 JUMPI PUSH2 0xC60 PUSH2 0x47DD JUMP JUMPDEST SUB PUSH2 0xCA3 JUMPI PUSH1 0x40 MLOAD PUSH3 0x461BCD PUSH1 0xE5 SHL DUP2 MSTORE PUSH1 0x20 PUSH1 0x4 DUP3 ADD MSTORE PUSH1 0x13 PUSH1 0x24 DUP3 ADD MSTORE PUSH19 0x1D985B1A59185D1BDC881B9BDD08195E1A5CDD PUSH1 0x6A SHL PUSH1 0x44 DUP3 ADD MSTORE PUSH1 0x64 ADD PUSH2 0xA69 JUMP JUMPDEST DUP1 PUSH1 0x1 ADD SLOAD PUSH1 0x0 SUB PUSH2 0xCF7 JUMPI PUSH1 0x40 MLOAD PUSH3 0x461BCD PUSH1 0xE5 SHL DUP2 MSTORE PUSH1 0x20 PUSH1 0x4 DUP3 ADD MSTORE PUSH1 0x19 PUSH1 0x24 DUP3 ADD MSTORE PUSH32 0x596F75206861766520746F20756E7374616B6520666972737400000000000000 PUSH1 0x44 DUP3 ADD MSTORE PUSH1 0x64 ADD PUSH2 0xA69 JUMP JUMPDEST PUSH1 0x1 DUP2 ADD SLOAD NUMBER SWAP1 PUSH2 0xD0B SWAP1 PUSH2 0x7080 SWAP1 PUSH2 0x4D6C JUMP JUMPDEST GT ISZERO PUSH2 0xD63 JUMPI PUSH1 0x40 MLOAD PUSH3 0x461BCD PUSH1 0xE5 SHL DUP2 MSTORE PUSH1 0x20 PUSH1 0x4 DUP3 ADD MSTORE PUSH1 0x21 PUSH1 0x24 DUP3 ADD MSTORE PUSH32 0x596F7572207374616B696E6720686176656E277420756E6C6F636B6564207965 PUSH1 0x44 DUP3 ADD MSTORE PUSH1 0x1D PUSH1 0xFA SHL PUSH1 0x64 DUP3 ADD MSTORE PUSH1 0x84 ADD PUSH2 0xA69 JUMP JUMPDEST DUP1 SLOAD PUSH2 0xDAC JUMPI PUSH1 0x40 MLOAD PUSH3 0x461BCD PUSH1 0xE5 SHL DUP2 MSTORE PUSH1 0x20 PUSH1 0x4 DUP3 ADD MSTORE PUSH1 0x18 PUSH1 0x24 DUP3 ADD MSTORE PUSH24 0x596F7520646F6E2774206861766520616E79207374616B65 PUSH1 0x40 SHL PUSH1 0x44 DUP3 ADD MSTORE PUSH1 0x64 ADD PUSH2 0xA69 JUMP JUMPDEST DUP1 SLOAD PUSH1 0x0 DUP1 DUP4 SSTORE PUSH1 0x1 DUP4 ADD DUP2 SWAP1 SSTORE PUSH1 0x40 MLOAD PUSH1 0x1 PUSH1 0x1 PUSH1 0xA0 SHL SUB DUP6 AND SWAP2 DUP4 ISZERO PUSH2 0x8FC MUL SWAP2 DUP5 SWAP2 DUP2 DUP2 DUP2 DUP6 DUP9 DUP9 CALL SWAP4 POP POP POP POP ISZERO DUP1 ISZERO PUSH2 0xDEE JUMPI RETURNDATASIZE PUSH1 0x0 DUP1 RETURNDATACOPY RETURNDATASIZE PUSH1 0x0 REVERT JUMPDEST POP PUSH1 0x40 DUP1 MLOAD DUP3 DUP2 MSTORE TIMESTAMP PUSH1 0x20 DUP3 ADD MSTORE PUSH1 0x1 PUSH1 0x1 PUSH1 0xA0 SHL SUB DUP1 DUP9 AND SWAP3 SWAP1 DUP7 AND SWAP2 PUSH32 0xA70CD94070CD852339A76B32CF2D95A3C8F2A322269163D276071C1C14955619 SWAP2 ADD JUMPDEST PUSH1 0x40 MLOAD DUP1 SWAP2 SUB SWAP1 LOG3 POP PUSH1 0x1 SWAP5 SWAP4 POP POP POP POP JUMP JUMPDEST PUSH1 0x0 DUP1 SLOAD PUSH1 0xFF AND PUSH2 0xE66 JUMPI PUSH1 0x40 MLOAD PUSH3 0x461BCD PUSH1 0xE5 SHL DUP2 MSTORE PUSH1 0x4 ADD PUSH2 0xA69 SWAP1 PUSH2 0x4D7F JUMP JUMPDEST ORIGIN CALLVALUE PUSH1 0x1 PUSH1 0x1 PUSH1 0x1 PUSH1 0xA0 SHL SUB DUP6 AND PUSH1 0x0 SWAP1 DUP2 MSTORE PUSH1 0x3 PUSH1 0x20 MSTORE PUSH1 0x40 SWAP1 KECCAK256 SLOAD PUSH1 0x1 PUSH1 0xA0 SHL SWAP1 DIV PUSH1 0xFF AND PUSH1 0x4 DUP2 GT ISZERO PUSH2 0xE9E JUMPI PUSH2 0xE9E PUSH2 0x47DD JUMP JUMPDEST EQ DUP1 PUSH2 0xEDD JUMPI POP PUSH1 0x2 PUSH1 0x1 PUSH1 0x1 PUSH1 0xA0 SHL SUB DUP6 AND PUSH1 0x0 SWAP1 DUP2 MSTORE PUSH1 0x3 PUSH1 0x20 MSTORE PUSH1 0x40 SWAP1 KECCAK256 SLOAD PUSH1 0x1 PUSH1 0xA0 SHL SWAP1 DIV PUSH1 0xFF AND PUSH1 0x4 DUP2 GT ISZERO PUSH2 0xEDB JUMPI PUSH2 0xEDB PUSH2 0x47DD JUMP JUMPDEST EQ JUMPDEST PUSH2 0xF3F JUMPI PUSH1 0x40 MLOAD PUSH3 0x461BCD PUSH1 0xE5 SHL DUP2 MSTORE PUSH1 0x20 PUSH1 0x4 DUP3 ADD MSTORE PUSH1 0x2D PUSH1 0x24 DUP3 ADD MSTORE PUSH32 0x43616E2774207374616B6520746F20612076616C696461746F7220696E206162 PUSH1 0x44 DUP3 ADD MSTORE PUSH13 0x6E6F726D616C20737461747573 PUSH1 0x98 SHL PUSH1 0x64 DUP3 ADD MSTORE PUSH1 0x84 ADD PUSH2 0xA69 JUMP JUMPDEST PUSH1 0x1 PUSH1 0x1 PUSH1 0xA0 SHL SUB DUP1 DUP4 AND PUSH1 0x0 SWAP1 DUP2 MSTORE PUSH1 0x4 PUSH1 0x20 SWAP1 DUP2 MSTORE PUSH1 0x40 DUP1 DUP4 KECCAK256 SWAP4 DUP9 AND DUP4 MSTORE SWAP3 SWAP1 MSTORE KECCAK256 PUSH1 0x1 ADD SLOAD ISZERO PUSH2 0xFC0 JUMPI PUSH1 0x40 MLOAD PUSH3 0x461BCD PUSH1 0xE5 SHL DUP2 MSTORE PUSH1 0x20 PUSH1 0x4 DUP3 ADD MSTORE PUSH1 0x22 PUSH1 0x24 DUP3 ADD MSTORE PUSH32 0x43616E2774207374616B65207768656E20796F752061726520756E7374616B69 PUSH1 0x44 DUP3 ADD MSTORE PUSH2 0x6E67 PUSH1 0xF0 SHL PUSH1 0x64 DUP3 ADD MSTORE PUSH1 0x84 ADD PUSH2 0xA69 JUMP JUMPDEST PUSH1 0x1 PUSH1 0x1 PUSH1 0xA0 SHL SUB DUP1 DUP6 AND PUSH1 0x0 DUP2 DUP2 MSTORE PUSH1 0x3 PUSH1 0x20 MSTORE PUSH1 0x40 SWAP1 KECCAK256 SWAP2 DUP5 AND SUB PUSH2 0x104B JUMPI PUSH11 0x52B7D2DCC80CD2E4000000 DUP3 DUP3 PUSH1 0x1 ADD SLOAD PUSH2 0xFFD SWAP2 SWAP1 PUSH2 0x4D6C JUMP JUMPDEST LT ISZERO PUSH2 0x1046 JUMPI PUSH1 0x40 MLOAD PUSH3 0x461BCD PUSH1 0xE5 SHL DUP2 MSTORE PUSH1 0x20 PUSH1 0x4 DUP3 ADD MSTORE PUSH1 0x18 PUSH1 0x24 DUP3 ADD MSTORE PUSH24 0xA6E8C2D6D2DCCE40C6DED2DCE640DCDEE840CADCDEEACED PUSH1 0x43 SHL PUSH1 0x44 DUP3 ADD MSTORE PUSH1 0x64 ADD PUSH2 0xA69 JUMP JUMPDEST PUSH2 0x10A1 JUMP JUMPDEST PUSH11 0x52B7D2DCC80CD2E4000000 DUP3 LT ISZERO PUSH2 0x10A1 JUMPI PUSH1 0x40 MLOAD PUSH3 0x461BCD PUSH1 0xE5 SHL DUP2 MSTORE PUSH1 0x20 PUSH1 0x4 DUP3 ADD MSTORE PUSH1 0x18 PUSH1 0x24 DUP3 ADD MSTORE PUSH24 0xA6E8C2D6D2DCCE40C6DED2DCE640DCDEE840CADCDEEACED PUSH1 0x43 SHL PUSH1 0x44 DUP3 ADD MSTORE PUSH1 0x64 ADD PUSH2 0xA69 JUMP JUMPDEST PUSH1 0x1 PUSH1 0x1 PUSH1 0xA0 SHL SUB DUP1 DUP5 AND PUSH1 0x0 SWAP1 DUP2 MSTORE PUSH1 0x4 PUSH1 0x20 SWAP1 DUP2 MSTORE PUSH1 0x40 DUP1 DUP4 KECCAK256 SWAP4 DUP10 AND DUP4 MSTORE SWAP3 SWAP1 MSTORE SWAP1 DUP2 KECCAK256 SLOAD SWAP1 SUB PUSH2 0x1188 JUMPI PUSH1 0x9 DUP2 ADD DUP1 SLOAD PUSH1 0x1 PUSH1 0x1 PUSH1 0xA0 SHL SUB DUP1 DUP7 AND PUSH1 0x0 DUP2 DUP2 MSTORE PUSH1 0x4 PUSH1 0x20 SWAP1 DUP2 MSTORE PUSH1 0x40 DUP1 DUP4 KECCAK256 SWAP5 DUP13 AND DUP1 DUP5 MSTORE SWAP5 DUP3 MSTORE DUP1 DUP4 KECCAK256 PUSH1 0x2 ADD DUP7 SWAP1 SSTORE PUSH1 0x1 DUP7 ADD DUP8 SSTORE SWAP6 DUP3 MSTORE DUP1 DUP3 KECCAK256 SWAP1 SWAP5 ADD DUP1 SLOAD PUSH1 0x1 PUSH1 0x1 PUSH1 0xA0 SHL SUB NOT AND SWAP1 SWAP3 OR SWAP1 SWAP2 SSTORE SWAP1 DUP2 MSTORE PUSH1 0xB SWAP1 SWAP2 MSTORE SWAP1 DUP2 KECCAK256 SLOAD SWAP1 SUB PUSH2 0x1152 JUMPI PUSH1 0x1 PUSH1 0x1 PUSH1 0xA0 SHL SUB DUP6 AND PUSH1 0x0 SWAP1 DUP2 MSTORE PUSH1 0xB PUSH1 0x20 MSTORE PUSH1 0x40 SWAP1 KECCAK256 TIMESTAMP SWAP1 SSTORE JUMPDEST PUSH1 0x1 PUSH1 0x1 PUSH1 0xA0 SHL SUB DUP1 DUP7 AND PUSH1 0x0 DUP2 DUP2 MSTORE PUSH1 0xB PUSH1 0x20 SWAP1 DUP2 MSTORE PUSH1 0x40 DUP1 DUP4 KECCAK256 SLOAD SWAP5 DUP9 AND DUP4 MSTORE PUSH1 0xA DUP3 MSTORE DUP1 DUP4 KECCAK256 SWAP4 DUP4 MSTORE SWAP3 SWAP1 MSTORE KECCAK256 SSTORE PUSH2 0x1193 JUMP JUMPDEST PUSH2 0x1191 DUP6 PUSH2 0x1788 JUMP JUMPDEST POP JUMPDEST DUP2 DUP2 PUSH1 0x1 ADD SLOAD PUSH2 0x11A3 SWAP2 SWAP1 PUSH2 0x4D6C JUMP JUMPDEST PUSH1 0x1 DUP3 ADD SSTORE PUSH1 0x2 DUP2 SLOAD PUSH1 0x1 PUSH1 0xA0 SHL SWAP1 DIV PUSH1 0xFF AND PUSH1 0x4 DUP2 GT ISZERO PUSH2 0x11C7 JUMPI PUSH2 0x11C7 PUSH2 0x47DD JUMP JUMPDEST EQ PUSH2 0x11DE JUMPI DUP1 SLOAD PUSH1 0xFF PUSH1 0xA0 SHL NOT AND PUSH1 0x1 PUSH1 0xA1 SHL OR DUP2 SSTORE JUMPDEST PUSH2 0x11EC DUP6 DUP3 PUSH1 0x1 ADD SLOAD PUSH2 0x3B0F JUMP JUMPDEST PUSH1 0x1 PUSH1 0x1 PUSH1 0xA0 SHL SUB DUP1 DUP5 AND PUSH1 0x0 SWAP1 DUP2 MSTORE PUSH1 0x4 PUSH1 0x20 SWAP1 DUP2 MSTORE PUSH1 0x40 DUP1 DUP4 KECCAK256 SWAP4 DUP10 AND DUP4 MSTORE SWAP3 SWAP1 MSTORE KECCAK256 SLOAD PUSH2 0x121D SWAP1 DUP4 SWAP1 PUSH2 0x4D6C JUMP JUMPDEST PUSH1 0x1 PUSH1 0x1 PUSH1 0xA0 SHL SUB DUP1 DUP6 AND PUSH1 0x0 SWAP1 DUP2 MSTORE PUSH1 0x4 PUSH1 0x20 SWAP1 DUP2 MSTORE PUSH1 0x40 DUP1 DUP4 KECCAK256 SWAP4 DUP11 AND DUP4 MSTORE SWAP3 SWAP1 MSTORE KECCAK256 SSTORE PUSH1 0x7 SLOAD PUSH2 0x1251 SWAP1 DUP4 SWAP1 PUSH2 0x4D6C JUMP JUMPDEST PUSH1 0x7 SSTORE PUSH1 0x40 DUP1 MLOAD DUP4 DUP2 MSTORE TIMESTAMP PUSH1 0x20 DUP3 ADD MSTORE PUSH1 0x1 PUSH1 0x1 PUSH1 0xA0 SHL SUB DUP1 DUP9 AND SWAP3 SWAP1 DUP7 AND SWAP2 PUSH32 0xB9BA725934532316CFFE10975DA6EB25AD49C2D1C294D982C46C9F8D684EE075 SWAP2 ADD PUSH2 0xE30 JUMP JUMPDEST SWAP2 SWAP1 POP JUMP JUMPDEST PUSH1 0x1 PUSH1 0x1 PUSH1 0xA0 SHL SUB DUP1 DUP4 AND PUSH1 0x0 SWAP1 DUP2 MSTORE PUSH1 0xA PUSH1 0x20 SWAP1 DUP2 MSTORE PUSH1 0x40 DUP1 DUP4 KECCAK256 SWAP4 DUP6 AND DUP4 MSTORE SWAP3 SWAP1 MSTORE SWAP1 DUP2 KECCAK256 SLOAD ISZERO PUSH2 0x13A4 JUMPI PUSH1 0x1 PUSH1 0x1 PUSH1 0xA0 SHL SUB DUP1 DUP4 AND PUSH1 0x0 DUP2 DUP2 MSTORE PUSH1 0xC PUSH1 0x20 SWAP1 DUP2 MSTORE PUSH1 0x40 DUP1 DUP4 KECCAK256 SWAP5 DUP9 AND DUP4 MSTORE PUSH1 0xA DUP3 MSTORE DUP1 DUP4 KECCAK256 DUP5 DUP5 MSTORE DUP3 MSTORE DUP1 DUP4 KECCAK256 SLOAD DUP4 MSTORE DUP5 DUP3 MSTORE DUP1 DUP4 KECCAK256 SLOAD SWAP4 DUP4 MSTORE PUSH1 0xB DUP3 MSTORE DUP1 DUP4 KECCAK256 SLOAD DUP4 MSTORE SWAP4 SWAP1 MSTORE SWAP2 DUP3 KECCAK256 SLOAD PUSH2 0x1323 SWAP2 SWAP1 PUSH2 0x4DA5 JUMP JUMPDEST SWAP1 POP DUP1 ISZERO PUSH2 0x13A2 JUMPI PUSH1 0x1 PUSH1 0x1 PUSH1 0xA0 SHL SUB DUP1 DUP6 AND PUSH1 0x0 SWAP1 DUP2 MSTORE PUSH1 0x4 PUSH1 0x20 SWAP1 DUP2 MSTORE PUSH1 0x40 DUP1 DUP4 KECCAK256 SWAP4 DUP8 AND DUP4 MSTORE SWAP3 DUP2 MSTORE SWAP1 DUP3 SWAP1 KECCAK256 DUP3 MLOAD PUSH1 0x60 DUP2 ADD DUP5 MSTORE DUP2 SLOAD DUP1 DUP3 MSTORE PUSH1 0x1 DUP4 ADD SLOAD SWAP4 DUP3 ADD SWAP4 SWAP1 SWAP4 MSTORE PUSH1 0x2 SWAP1 SWAP2 ADD SLOAD SWAP3 DUP2 ADD SWAP3 SWAP1 SWAP3 MSTORE PUSH9 0x56BC75E2D63100000 SWAP1 PUSH2 0x138F SWAP1 DUP5 SWAP1 PUSH2 0x4DB8 JUMP JUMPDEST PUSH2 0x1399 SWAP2 SWAP1 PUSH2 0x4DE5 JUMP JUMPDEST SWAP3 POP POP POP PUSH2 0x13A8 JUMP JUMPDEST POP JUMPDEST POP PUSH1 0x0 JUMPDEST SWAP3 SWAP2 POP POP JUMP JUMPDEST PUSH1 0x0 DUP1 JUMPDEST PUSH1 0x5 SLOAD DUP2 LT ISZERO PUSH2 0x13A4 JUMPI DUP3 PUSH1 0x1 PUSH1 0x1 PUSH1 0xA0 SHL SUB AND PUSH1 0x5 DUP3 DUP2 SLOAD DUP2 LT PUSH2 0x13D9 JUMPI PUSH2 0x13D9 PUSH2 0x4DF9 JUMP JUMPDEST PUSH1 0x0 SWAP2 DUP3 MSTORE PUSH1 0x20 SWAP1 SWAP2 KECCAK256 ADD SLOAD PUSH1 0x1 PUSH1 0x1 PUSH1 0xA0 SHL SUB AND SUB PUSH2 0x13FC JUMPI POP PUSH1 0x1 SWAP3 SWAP2 POP POP JUMP JUMPDEST DUP1 PUSH2 0x1406 DUP2 PUSH2 0x4E0F JUMP JUMPDEST SWAP2 POP POP PUSH2 0x13B2 JUMP JUMPDEST CALLER PUSH2 0xF001 EQ PUSH2 0x1456 JUMPI PUSH1 0x40 MLOAD PUSH3 0x461BCD PUSH1 0xE5 SHL DUP2 MSTORE PUSH1 0x20 PUSH1 0x4 DUP3 ADD MSTORE PUSH1 0x14 PUSH1 0x24 DUP3 ADD MSTORE PUSH20 0x50756E69736820636F6E7472616374206F6E6C79 PUSH1 0x60 SHL PUSH1 0x44 DUP3 ADD MSTORE PUSH1 0x64 ADD PUSH2 0xA69 JUMP JUMPDEST PUSH1 0x1 PUSH1 0x1 PUSH1 0xA0 SHL SUB DUP2 AND PUSH1 0x0 SWAP1 DUP2 MSTORE PUSH1 0x3 PUSH1 0x20 MSTORE PUSH1 0x40 SWAP1 KECCAK256 PUSH1 0x7 ADD SLOAD PUSH2 0x147B DUP3 PUSH2 0x3DD8 JUMP JUMPDEST PUSH1 0x6 SLOAD PUSH1 0x1 LT ISZERO PUSH2 0x14D4 JUMPI PUSH2 0x148F DUP3 PUSH2 0x3EF0 JUMP JUMPDEST PUSH1 0x40 DUP1 MLOAD DUP3 DUP2 MSTORE TIMESTAMP PUSH1 0x20 DUP3 ADD MSTORE PUSH1 0x1 PUSH1 0x1 PUSH1 0xA0 SHL SUB DUP5 AND SWAP2 PUSH32 0xA26DE7AB324EAC08C596549F421E5C8741213D237D2E9A2C9C0EBDE0A7A849FE SWAP2 ADD JUMPDEST PUSH1 0x40 MLOAD DUP1 SWAP2 SUB SWAP1 LOG2 JUMPDEST POP POP JUMP JUMPDEST PUSH1 0x6 DUP2 DUP2 SLOAD DUP2 LT PUSH2 0x14E8 JUMPI PUSH1 0x0 DUP1 REVERT JUMPDEST PUSH1 0x0 SWAP2 DUP3 MSTORE PUSH1 0x20 SWAP1 SWAP2 KECCAK256 ADD SLOAD PUSH1 0x1 PUSH1 0x1 PUSH1 0xA0 SHL SUB AND SWAP1 POP DUP2 JUMP JUMPDEST PUSH2 0x150A PUSH2 0x3F60 JUMP JUMPDEST PUSH1 0x1 PUSH1 0x1 PUSH1 0xA0 SHL SUB DUP2 AND PUSH2 0x151D JUMPI PUSH1 0x0 DUP1 REVERT JUMPDEST PUSH1 0xD DUP1 SLOAD PUSH1 0x1 PUSH1 0x1 PUSH1 0xA0 SHL SUB NOT AND PUSH1 0x1 PUSH1 0x1 PUSH1 0xA0 SHL SUB SWAP3 SWAP1 SWAP3 AND SWAP2 SWAP1 SWAP2 OR SWAP1 SSTORE JUMP JUMPDEST CALLER PUSH2 0xF001 EQ PUSH2 0x1587 JUMPI PUSH1 0x40 MLOAD PUSH3 0x461BCD PUSH1 0xE5 SHL DUP2 MSTORE PUSH1 0x20 PUSH1 0x4 DUP3 ADD MSTORE PUSH1 0x14 PUSH1 0x24 DUP3 ADD MSTORE PUSH20 0x50756E69736820636F6E7472616374206F6E6C79 PUSH1 0x60 SHL PUSH1 0x44 DUP3 ADD MSTORE PUSH1 0x64 ADD PUSH2 0xA69 JUMP JUMPDEST PUSH2 0x1590 DUP2 PUSH2 0x3DD8 JUMP JUMPDEST POP JUMP JUMPDEST CALLER COINBASE EQ PUSH2 0x15CF JUMPI PUSH1 0x40 MLOAD PUSH3 0x461BCD PUSH1 0xE5 SHL DUP2 MSTORE PUSH1 0x20 PUSH1 0x4 DUP3 ADD MSTORE PUSH1 0xA PUSH1 0x24 DUP3 ADD MSTORE PUSH10 0x4D696E6572206F6E6C79 PUSH1 0xB0 SHL PUSH1 0x44 DUP3 ADD MSTORE PUSH1 0x64 ADD PUSH2 0xA69 JUMP JUMPDEST NUMBER PUSH1 0x0 SWAP1 DUP2 MSTORE PUSH1 0xF PUSH1 0x20 SWAP1 DUP2 MSTORE PUSH1 0x40 DUP1 DUP4 KECCAK256 PUSH1 0x1 DUP5 MSTORE SWAP1 SWAP2 MSTORE SWAP1 KECCAK256 SLOAD PUSH1 0xFF AND ISZERO PUSH2 0x163B JUMPI PUSH1 0x40 MLOAD PUSH3 0x461BCD PUSH1 0xE5 SHL DUP2 MSTORE PUSH1 0x20 PUSH1 0x4 DUP3 ADD MSTORE PUSH1 0x1A PUSH1 0x24 DUP3 ADD MSTORE PUSH32 0x56616C696461746F727320616C72656164792075706461746564000000000000 PUSH1 0x44 DUP3 ADD MSTORE PUSH1 0x64 ADD PUSH2 0xA69 JUMP JUMPDEST PUSH1 0x0 SLOAD PUSH1 0xFF AND PUSH2 0x165D JUMPI PUSH1 0x40 MLOAD PUSH3 0x461BCD PUSH1 0xE5 SHL DUP2 MSTORE PUSH1 0x4 ADD PUSH2 0xA69 SWAP1 PUSH2 0x4D7F JUMP JUMPDEST DUP1 PUSH2 0x1668 DUP2 NUMBER PUSH2 0x4E28 JUMP JUMPDEST ISZERO PUSH2 0x16A8 JUMPI PUSH1 0x40 MLOAD PUSH3 0x461BCD PUSH1 0xE5 SHL DUP2 MSTORE PUSH1 0x20 PUSH1 0x4 DUP3 ADD MSTORE PUSH1 0x10 PUSH1 0x24 DUP3 ADD MSTORE PUSH16 0x426C6F636B2065706F6368206F6E6C79 PUSH1 0x80 SHL PUSH1 0x44 DUP3 ADD MSTORE PUSH1 0x64 ADD PUSH2 0xA69 JUMP JUMPDEST NUMBER PUSH1 0x0 SWAP1 DUP2 MSTORE PUSH1 0xF PUSH1 0x20 SWAP1 DUP2 MSTORE PUSH1 0x40 DUP1 DUP4 KECCAK256 PUSH1 0x1 DUP1 DUP6 MSTORE SWAP3 MSTORE SWAP1 SWAP2 KECCAK256 DUP1 SLOAD PUSH1 0xFF NOT AND SWAP1 SWAP2 OR SWAP1 SSTORE DUP3 MLOAD PUSH2 0x1714 JUMPI PUSH1 0x40 MLOAD PUSH3 0x461BCD PUSH1 0xE5 SHL DUP2 MSTORE PUSH1 0x20 PUSH1 0x4 DUP3 ADD MSTORE PUSH1 0x14 PUSH1 0x24 DUP3 ADD MSTORE PUSH20 0x56616C696461746F722073657420656D70747921 PUSH1 0x60 SHL PUSH1 0x44 DUP3 ADD MSTORE PUSH1 0x64 ADD PUSH2 0xA69 JUMP JUMPDEST DUP3 MLOAD PUSH2 0x1727 SWAP1 PUSH1 0x5 SWAP1 PUSH1 0x20 DUP7 ADD SWAP1 PUSH2 0x45B7 JUMP JUMPDEST POP PUSH32 0xEACEA8F3C22F06C0B18306BDB04D0A967255129E8CE0094DEBB0A0FF89D006B5 DUP4 PUSH1 0x40 MLOAD PUSH2 0x1757 SWAP2 SWAP1 PUSH2 0x48C7 JUMP JUMPDEST PUSH1 0x40 MLOAD DUP1 SWAP2 SUB SWAP1 LOG1 POP POP POP JUMP JUMPDEST PUSH1 0x5 DUP2 DUP2 SLOAD DUP2 LT PUSH2 0x14E8 JUMPI PUSH1 0x0 DUP1 REVERT JUMPDEST PUSH2 0x177C PUSH2 0x3F60 JUMP JUMPDEST PUSH2 0x1786 PUSH1 0x0 PUSH2 0x3FBA JUMP JUMPDEST JUMP JUMPDEST ORIGIN PUSH1 0x0 SWAP1 DUP2 MSTORE PUSH1 0xA PUSH1 0x20 SWAP1 DUP2 MSTORE PUSH1 0x40 DUP1 DUP4 KECCAK256 PUSH1 0x1 PUSH1 0x1 PUSH1 0xA0 SHL SUB DUP6 AND DUP5 MSTORE SWAP1 SWAP2 MSTORE DUP2 KECCAK256 SLOAD PUSH2 0x17E9 JUMPI PUSH1 0x40 MLOAD PUSH3 0x461BCD PUSH1 0xE5 SHL DUP2 MSTORE PUSH1 0x20 PUSH1 0x4 DUP3 ADD MSTORE PUSH1 0xE PUSH1 0x24 DUP3 ADD MSTORE PUSH14 0x1B9BDD1A1A5B99C81CDD185AD959 PUSH1 0x92 SHL PUSH1 0x44 DUP3 ADD MSTORE PUSH1 0x64 ADD PUSH2 0xA69 JUMP JUMPDEST ORIGIN PUSH1 0x0 DUP2 DUP2 MSTORE PUSH1 0x4 PUSH1 0x20 SWAP1 DUP2 MSTORE PUSH1 0x40 DUP1 DUP4 KECCAK256 PUSH1 0x1 PUSH1 0x1 PUSH1 0xA0 SHL SUB DUP8 AND DUP1 DUP6 MSTORE SWAP1 DUP4 MSTORE DUP2 DUP5 KECCAK256 PUSH1 0xC DUP5 MSTORE DUP3 DUP6 KECCAK256 SWAP6 DUP6 MSTORE PUSH1 0xA DUP5 MSTORE DUP3 DUP6 KECCAK256 DUP3 DUP7 MSTORE DUP5 MSTORE DUP3 DUP6 KECCAK256 SLOAD DUP6 MSTORE DUP6 DUP5 MSTORE DUP3 DUP6 KECCAK256 SLOAD SWAP2 DUP6 MSTORE PUSH1 0xB DUP5 MSTORE DUP3 DUP6 KECCAK256 SLOAD DUP6 MSTORE SWAP5 SWAP1 SWAP3 MSTORE DUP3 KECCAK256 SLOAD PUSH2 0x184F SWAP2 SWAP1 PUSH2 0x4DA5 JUMP JUMPDEST SWAP1 POP DUP1 ISZERO PUSH2 0x192E JUMPI PUSH1 0x1 PUSH1 0x1 PUSH1 0xA0 SHL SUB DUP5 AND PUSH1 0x0 DUP2 DUP2 MSTORE PUSH1 0xB PUSH1 0x20 SWAP1 DUP2 MSTORE PUSH1 0x40 DUP1 DUP4 KECCAK256 SLOAD ORIGIN DUP5 MSTORE PUSH1 0xA DUP4 MSTORE DUP2 DUP5 KECCAK256 SWAP5 DUP5 MSTORE SWAP4 SWAP1 SWAP2 MSTORE DUP2 KECCAK256 SWAP2 SWAP1 SWAP2 SSTORE DUP3 SLOAD PUSH9 0x56BC75E2D63100000 SWAP1 PUSH2 0x18A2 SWAP1 DUP5 SWAP1 PUSH2 0x4DB8 JUMP JUMPDEST PUSH2 0x18AC SWAP2 SWAP1 PUSH2 0x4DE5 JUMP JUMPDEST PUSH1 0x40 MLOAD SWAP1 SWAP2 POP ORIGIN SWAP1 DUP3 ISZERO PUSH2 0x8FC MUL SWAP1 DUP4 SWAP1 PUSH1 0x0 DUP2 DUP2 DUP2 DUP6 DUP9 DUP9 CALL SWAP4 POP POP POP POP ISZERO DUP1 ISZERO PUSH2 0x18DC JUMPI RETURNDATASIZE PUSH1 0x0 DUP1 RETURNDATACOPY RETURNDATASIZE PUSH1 0x0 REVERT JUMPDEST POP PUSH1 0x40 DUP1 MLOAD ORIGIN DUP2 MSTORE PUSH1 0x1 PUSH1 0x1 PUSH1 0xA0 SHL SUB DUP8 AND PUSH1 0x20 DUP3 ADD MSTORE SWAP1 DUP2 ADD DUP3 SWAP1 MSTORE TIMESTAMP PUSH1 0x60 DUP3 ADD MSTORE PUSH32 0x7DAF1212D032F2F66DB6DBB919BBD591BE3D954B5B6EE491709CBB5FBE4F5170 SWAP1 PUSH1 0x80 ADD PUSH1 0x40 MLOAD DUP1 SWAP2 SUB SWAP1 LOG1 POP JUMPDEST POP PUSH1 0x1 SWAP4 SWAP3 POP POP POP JUMP JUMPDEST PUSH1 0x0 CALLER PUSH2 0xF002 EQ PUSH2 0x1984 JUMPI PUSH1 0x40 MLOAD PUSH3 0x461BCD PUSH1 0xE5 SHL DUP2 MSTORE PUSH1 0x20 PUSH1 0x4 DUP3 ADD MSTORE PUSH1 0x16 PUSH1 0x24 DUP3 ADD MSTORE PUSH22 0x50726F706F73616C20636F6E7472616374206F6E6C79 PUSH1 0x50 SHL PUSH1 0x44 DUP3 ADD MSTORE PUSH1 0x64 ADD PUSH2 0xA69 JUMP JUMPDEST PUSH1 0x0 SLOAD PUSH1 0xFF AND PUSH2 0x19A6 JUMPI PUSH1 0x40 MLOAD PUSH3 0x461BCD PUSH1 0xE5 SHL DUP2 MSTORE PUSH1 0x4 ADD PUSH2 0xA69 SWAP1 PUSH2 0x4D7F JUMP JUMPDEST PUSH1 0x3 PUSH1 0x1 PUSH1 0x1 PUSH1 0xA0 SHL SUB DUP4 AND PUSH1 0x0 SWAP1 DUP2 MSTORE PUSH1 0x3 PUSH1 0x20 MSTORE PUSH1 0x40 SWAP1 KECCAK256 SLOAD PUSH1 0x1 PUSH1 0xA0 SHL SWAP1 DIV PUSH1 0xFF AND PUSH1 0x4 DUP2 GT ISZERO PUSH2 0x19DC JUMPI PUSH2 0x19DC PUSH2 0x47DD JUMP JUMPDEST EQ ISZERO DUP1 ISZERO PUSH2 0x1A1E JUMPI POP PUSH1 0x4 PUSH1 0x1 PUSH1 0x1 PUSH1 0xA0 SHL SUB DUP4 AND PUSH1 0x0 SWAP1 DUP2 MSTORE PUSH1 0x3 PUSH1 0x20 MSTORE PUSH1 0x40 SWAP1 KECCAK256 SLOAD PUSH1 0x1 PUSH1 0xA0 SHL SWAP1 DIV PUSH1 0xFF AND PUSH1 0x4 DUP2 GT ISZERO PUSH2 0x1A1B JUMPI PUSH2 0x1A1B PUSH2 0x47DD JUMP JUMPDEST EQ ISZERO JUMPDEST ISZERO PUSH2 0x1A2B JUMPI POP PUSH1 0x1 SWAP2 SWAP1 POP JUMP JUMPDEST PUSH1 0x4 PUSH1 0x1 PUSH1 0x1 PUSH1 0xA0 SHL SUB DUP4 AND PUSH1 0x0 SWAP1 DUP2 MSTORE PUSH1 0x3 PUSH1 0x20 MSTORE PUSH1 0x40 SWAP1 KECCAK256 SLOAD PUSH1 0x1 PUSH1 0xA0 SHL SWAP1 DIV PUSH1 0xFF AND PUSH1 0x4 DUP2 GT ISZERO PUSH2 0x1A61 JUMPI PUSH2 0x1A61 PUSH2 0x47DD JUMP JUMPDEST SUB PUSH2 0x1B11 JUMPI PUSH1 0xE SLOAD PUSH1 0x40 MLOAD PUSH4 0x63E1D451 PUSH1 0xE0 SHL DUP2 MSTORE PUSH1 0x1 PUSH1 0x1 PUSH1 0xA0 SHL SUB DUP5 DUP2 AND PUSH1 0x4 DUP4 ADD MSTORE SWAP1 SWAP2 AND SWAP1 PUSH4 0x63E1D451 SWAP1 PUSH1 0x24 ADD PUSH1 0x20 PUSH1 0x40 MLOAD DUP1 DUP4 SUB DUP2 PUSH1 0x0 DUP8 GAS CALL ISZERO DUP1 ISZERO PUSH2 0x1AB2 JUMPI RETURNDATASIZE PUSH1 0x0 DUP1 RETURNDATACOPY RETURNDATASIZE PUSH1 0x0 REVERT JUMPDEST POP POP POP POP PUSH1 0x40 MLOAD RETURNDATASIZE PUSH1 0x1F NOT PUSH1 0x1F DUP3 ADD AND DUP3 ADD DUP1 PUSH1 0x40 MSTORE POP DUP2 ADD SWAP1 PUSH2 0x1AD6 SWAP2 SWAP1 PUSH2 0x4E3C JUMP JUMPDEST PUSH2 0x1B11 JUMPI PUSH1 0x40 MLOAD PUSH3 0x461BCD PUSH1 0xE5 SHL DUP2 MSTORE PUSH1 0x20 PUSH1 0x4 DUP3 ADD MSTORE PUSH1 0xC PUSH1 0x24 DUP3 ADD MSTORE PUSH12 0x18DB19585B8819985A5B1959 PUSH1 0xA2 SHL PUSH1 0x44 DUP3 ADD MSTORE PUSH1 0x64 ADD PUSH2 0xA69 JUMP JUMPDEST PUSH1 0x1 PUSH1 0x1 PUSH1 0xA0 SHL SUB DUP3 AND PUSH1 0x0 DUP2 DUP2 MSTORE PUSH1 0x3 PUSH1 0x20 SWAP1 DUP2 MSTORE PUSH1 0x40 SWAP2 DUP3 SWAP1 KECCAK256 DUP1 SLOAD PUSH1 0xFF PUSH1 0xA0 SHL NOT AND PUSH1 0x1 PUSH1 0xA1 SHL OR SWAP1 SSTORE SWAP1 MLOAD TIMESTAMP DUP2 MSTORE PUSH32 0xD8B2C426EC1BE69CA7583D26B1E893946E3227430D3EBC3BD64D9E1C469CB400 SWAP2 ADD PUSH1 0x40 MLOAD DUP1 SWAP2 SUB SWAP1 LOG2 POP PUSH1 0x1 SWAP2 SWAP1 POP JUMP JUMPDEST PUSH1 0x1 PUSH1 0x1 PUSH1 0xA0 SHL SUB DUP2 DUP2 AND PUSH1 0x0 SWAP1 DUP2 MSTORE PUSH1 0x3 PUSH1 0x20 SWAP1 DUP2 MSTORE PUSH1 0x40 DUP1 DUP4 KECCAK256 DUP2 MLOAD PUSH1 0xE0 DUP2 ADD SWAP1 SWAP3 MSTORE DUP1 SLOAD SWAP5 DUP6 AND DUP3 MSTORE SWAP3 SWAP4 DUP5 SWAP4 DUP5 SWAP4 DUP5 SWAP4 DUP5 SWAP4 PUSH1 0x60 SWAP4 DUP6 SWAP4 SWAP1 SWAP2 SWAP1 DUP4 ADD SWAP1 PUSH1 0x1 PUSH1 0xA0 SHL SWAP1 DIV PUSH1 0xFF AND PUSH1 0x4 DUP2 GT ISZERO PUSH2 0x1BD2 JUMPI PUSH2 0x1BD2 PUSH2 0x47DD JUMP JUMPDEST PUSH1 0x4 DUP2 GT ISZERO PUSH2 0x1BE3 JUMPI PUSH2 0x1BE3 PUSH2 0x47DD JUMP JUMPDEST DUP2 MSTORE PUSH1 0x20 ADD PUSH1 0x1 DUP3 ADD SLOAD DUP2 MSTORE PUSH1 0x20 ADD PUSH1 0x2 DUP3 ADD PUSH1 0x40 MLOAD DUP1 PUSH1 0xA0 ADD PUSH1 0x40 MSTORE SWAP1 DUP2 PUSH1 0x0 DUP3 ADD DUP1 SLOAD PUSH2 0x1C11 SWAP1 PUSH2 0x4E5E JUMP JUMPDEST DUP1 PUSH1 0x1F ADD PUSH1 0x20 DUP1 SWAP2 DIV MUL PUSH1 0x20 ADD PUSH1 0x40 MLOAD SWAP1 DUP2 ADD PUSH1 0x40 MSTORE DUP1 SWAP3 SWAP2 SWAP1 DUP2 DUP2 MSTORE PUSH1 0x20 ADD DUP3 DUP1 SLOAD PUSH2 0x1C3D SWAP1 PUSH2 0x4E5E JUMP JUMPDEST DUP1 ISZERO PUSH2 0x1C8A JUMPI DUP1 PUSH1 0x1F LT PUSH2 0x1C5F JUMPI PUSH2 0x100 DUP1 DUP4 SLOAD DIV MUL DUP4 MSTORE SWAP2 PUSH1 0x20 ADD SWAP2 PUSH2 0x1C8A JUMP JUMPDEST DUP3 ADD SWAP2 SWAP1 PUSH1 0x0 MSTORE PUSH1 0x20 PUSH1 0x0 KECCAK256 SWAP1 JUMPDEST DUP2 SLOAD DUP2 MSTORE SWAP1 PUSH1 0x1 ADD SWAP1 PUSH1 0x20 ADD DUP1 DUP4 GT PUSH2 0x1C6D JUMPI DUP3 SWAP1 SUB PUSH1 0x1F AND DUP3 ADD SWAP2 JUMPDEST POP POP POP POP POP DUP2 MSTORE PUSH1 0x20 ADD PUSH1 0x1 DUP3 ADD DUP1 SLOAD PUSH2 0x1CA3 SWAP1 PUSH2 0x4E5E JUMP JUMPDEST DUP1 PUSH1 0x1F ADD PUSH1 0x20 DUP1 SWAP2 DIV MUL PUSH1 0x20 ADD PUSH1 0x40 MLOAD SWAP1 DUP2 ADD PUSH1 0x40 MSTORE DUP1 SWAP3 SWAP2 SWAP1 DUP2 DUP2 MSTORE PUSH1 0x20 ADD DUP3 DUP1 SLOAD PUSH2 0x1CCF SWAP1 PUSH2 0x4E5E JUMP JUMPDEST DUP1 ISZERO PUSH2 0x1D1C JUMPI DUP1 PUSH1 0x1F LT PUSH2 0x1CF1 JUMPI PUSH2 0x100 DUP1 DUP4 SLOAD DIV MUL DUP4 MSTORE SWAP2 PUSH1 0x20 ADD SWAP2 PUSH2 0x1D1C JUMP JUMPDEST DUP3 ADD SWAP2 SWAP1 PUSH1 0x0 MSTORE PUSH1 0x20 PUSH1 0x0 KECCAK256 SWAP1 JUMPDEST DUP2 SLOAD DUP2 MSTORE SWAP1 PUSH1 0x1 ADD SWAP1 PUSH1 0x20 ADD DUP1 DUP4 GT PUSH2 0x1CFF JUMPI DUP3 SWAP1 SUB PUSH1 0x1F AND DUP3 ADD SWAP2 JUMPDEST POP POP POP POP POP DUP2 MSTORE PUSH1 0x20 ADD PUSH1 0x2 DUP3 ADD DUP1 SLOAD PUSH2 0x1D35 SWAP1 PUSH2 0x4E5E JUMP JUMPDEST DUP1 PUSH1 0x1F ADD PUSH1 0x20 DUP1 SWAP2 DIV MUL PUSH1 0x20 ADD PUSH1 0x40 MLOAD SWAP1 DUP2 ADD PUSH1 0x40 MSTORE DUP1 SWAP3 SWAP2 SWAP1 DUP2 DUP2 MSTORE PUSH1 0x20 ADD DUP3 DUP1 SLOAD PUSH2 0x1D61 SWAP1 PUSH2 0x4E5E JUMP JUMPDEST DUP1 ISZERO PUSH2 0x1DAE JUMPI DUP1 PUSH1 0x1F LT PUSH2 0x1D83 JUMPI PUSH2 0x100 DUP1 DUP4 SLOAD DIV MUL DUP4 MSTORE SWAP2 PUSH1 0x20 ADD SWAP2 PUSH2 0x1DAE JUMP JUMPDEST DUP3 ADD SWAP2 SWAP1 PUSH1 0x0 MSTORE PUSH1 0x20 PUSH1 0x0 KECCAK256 SWAP1 JUMPDEST DUP2 SLOAD DUP2 MSTORE SWAP1 PUSH1 0x1 ADD SWAP1 PUSH1 0x20 ADD DUP1 DUP4 GT PUSH2 0x1D91 JUMPI DUP3 SWAP1 SUB PUSH1 0x1F AND DUP3 ADD SWAP2 JUMPDEST POP POP POP POP POP DUP2 MSTORE PUSH1 0x20 ADD PUSH1 0x3 DUP3 ADD DUP1 SLOAD PUSH2 0x1DC7 SWAP1 PUSH2 0x4E5E JUMP JUMPDEST DUP1 PUSH1 0x1F ADD PUSH1 0x20 DUP1 SWAP2 DIV MUL PUSH1 0x20 ADD PUSH1 0x40 MLOAD SWAP1 DUP2 ADD PUSH1 0x40 MSTORE DUP1 SWAP3 SWAP2 SWAP1 DUP2 DUP2 MSTORE PUSH1 0x20 ADD DUP3 DUP1 SLOAD PUSH2 0x1DF3 SWAP1 PUSH2 0x4E5E JUMP JUMPDEST DUP1 ISZERO PUSH2 0x1E40 JUMPI DUP1 PUSH1 0x1F LT PUSH2 0x1E15 JUMPI PUSH2 0x100 DUP1 DUP4 SLOAD DIV MUL DUP4 MSTORE SWAP2 PUSH1 0x20 ADD SWAP2 PUSH2 0x1E40 JUMP JUMPDEST DUP3 ADD SWAP2 SWAP1 PUSH1 0x0 MSTORE PUSH1 0x20 PUSH1 0x0 KECCAK256 SWAP1 JUMPDEST DUP2 SLOAD DUP2 MSTORE SWAP1 PUSH1 0x1 ADD SWAP1 PUSH1 0x20 ADD DUP1 DUP4 GT PUSH2 0x1E23 JUMPI DUP3 SWAP1 SUB PUSH1 0x1F AND DUP3 ADD SWAP2 JUMPDEST POP POP POP POP POP DUP2 MSTORE PUSH1 0x20 ADD PUSH1 0x4 DUP3 ADD DUP1 SLOAD PUSH2 0x1E59 SWAP1 PUSH2 0x4E5E JUMP JUMPDEST DUP1 PUSH1 0x1F ADD PUSH1 0x20 DUP1 SWAP2 DIV MUL PUSH1 0x20 ADD PUSH1 0x40 MLOAD SWAP1 DUP2 ADD PUSH1 0x40 MSTORE DUP1 SWAP3 SWAP2 SWAP1 DUP2 DUP2 MSTORE PUSH1 0x20 ADD DUP3 DUP1 SLOAD PUSH2 0x1E85 SWAP1 PUSH2 0x4E5E JUMP JUMPDEST DUP1 ISZERO PUSH2 0x1ED2 JUMPI DUP1 PUSH1 0x1F LT PUSH2 0x1EA7 JUMPI PUSH2 0x100 DUP1 DUP4 SLOAD DIV MUL DUP4 MSTORE SWAP2 PUSH1 0x20 ADD SWAP2 PUSH2 0x1ED2 JUMP JUMPDEST DUP3 ADD SWAP2 SWAP1 PUSH1 0x0 MSTORE PUSH1 0x20 PUSH1 0x0 KECCAK256 SWAP1 JUMPDEST DUP2 SLOAD DUP2 MSTORE SWAP1 PUSH1 0x1 ADD SWAP1 PUSH1 0x20 ADD DUP1 DUP4 GT PUSH2 0x1EB5 JUMPI DUP3 SWAP1 SUB PUSH1 0x1F AND DUP3 ADD SWAP2 JUMPDEST POP POP POP POP POP DUP2 MSTORE POP POP DUP2 MSTORE PUSH1 0x20 ADD PUSH1 0x7 DUP3 ADD SLOAD DUP2 MSTORE PUSH1 0x20 ADD PUSH1 0x8 DUP3 ADD SLOAD DUP2 MSTORE PUSH1 0x20 ADD PUSH1 0x9 DUP3 ADD DUP1 SLOAD DUP1 PUSH1 0x20 MUL PUSH1 0x20 ADD PUSH1 0x40 MLOAD SWAP1 DUP2 ADD PUSH1 0x40 MSTORE DUP1 SWAP3 SWAP2 SWAP1 DUP2 DUP2 MSTORE PUSH1 0x20 ADD DUP3 DUP1 SLOAD DUP1 ISZERO PUSH2 0x1F4C JUMPI PUSH1 0x20 MUL DUP3 ADD SWAP2 SWAP1 PUSH1 0x0 MSTORE PUSH1 0x20 PUSH1 0x0 KECCAK256 SWAP1 JUMPDEST DUP2 SLOAD PUSH1 0x1 PUSH1 0x1 PUSH1 0xA0 SHL SUB AND DUP2 MSTORE PUSH1 0x1 SWAP1 SWAP2 ADD SWAP1 PUSH1 0x20 ADD DUP1 DUP4 GT PUSH2 0x1F2E JUMPI JUMPDEST POP POP POP SWAP2 SWAP1 SWAP3 MSTORE POP POP DUP2 MLOAD PUSH1 0x20 DUP4 ADD MLOAD PUSH1 0x40 DUP5 ADD MLOAD PUSH1 0x80 DUP6 ADD MLOAD PUSH1 0xA0 DUP7 ADD MLOAD PUSH1 0xC0 SWAP1 SWAP7 ADD MLOAD SWAP4 SWAP15 SWAP3 SWAP14 POP SWAP1 SWAP12 POP SWAP10 POP SWAP3 SWAP8 POP SWAP6 POP SWAP1 SWAP4 POP POP POP POP JUMP JUMPDEST PUSH1 0x0 DUP1 JUMPDEST PUSH1 0x6 SLOAD DUP2 LT ISZERO PUSH2 0x13A4 JUMPI DUP3 PUSH1 0x1 PUSH1 0x1 PUSH1 0xA0 SHL SUB AND PUSH1 0x6 DUP3 DUP2 SLOAD DUP2 LT PUSH2 0x1FB3 JUMPI PUSH2 0x1FB3 PUSH2 0x4DF9 JUMP JUMPDEST PUSH1 0x0 SWAP2 DUP3 MSTORE PUSH1 0x20 SWAP1 SWAP2 KECCAK256 ADD SLOAD PUSH1 0x1 PUSH1 0x1 PUSH1 0xA0 SHL SUB AND SUB PUSH2 0x1FD6 JUMPI POP PUSH1 0x1 SWAP3 SWAP2 POP POP JUMP JUMPDEST DUP1 PUSH2 0x1FE0 DUP2 PUSH2 0x4E0F JUMP JUMPDEST SWAP2 POP POP PUSH2 0x1F8C JUMP JUMPDEST PUSH1 0x60 PUSH1 0x5 DUP1 SLOAD DUP1 PUSH1 0x20 MUL PUSH1 0x20 ADD PUSH1 0x40 MLOAD SWAP1 DUP2 ADD PUSH1 0x40 MSTORE DUP1 SWAP3 SWAP2 SWAP1 DUP2 DUP2 MSTORE PUSH1 0x20 ADD DUP3 DUP1 SLOAD DUP1 ISZERO PUSH2 0x2040 JUMPI PUSH1 0x20 MUL DUP3 ADD SWAP2 SWAP1 PUSH1 0x0 MSTORE PUSH1 0x20 PUSH1 0x0 KECCAK256 SWAP1 JUMPDEST DUP2 SLOAD PUSH1 0x1 PUSH1 0x1 PUSH1 0xA0 SHL SUB AND DUP2 MSTORE PUSH1 0x1 SWAP1 SWAP2 ADD SWAP1 PUSH1 0x20 ADD DUP1 DUP4 GT PUSH2 0x2022 JUMPI JUMPDEST POP POP POP POP POP SWAP1 POP SWAP1 JUMP JUMPDEST PUSH1 0x0 SLOAD PUSH1 0xFF AND ISZERO PUSH2 0x2093 JUMPI PUSH1 0x40 MLOAD PUSH3 0x461BCD PUSH1 0xE5 SHL DUP2 MSTORE PUSH1 0x20 PUSH1 0x4 DUP3 ADD MSTORE PUSH1 0x13 PUSH1 0x24 DUP3 ADD MSTORE PUSH19 0x105B1C9958591E481A5B9A5D1A585B1A5E9959 PUSH1 0x6A SHL PUSH1 0x44 DUP3 ADD MSTORE PUSH1 0x64 ADD PUSH2 0xA69 JUMP JUMPDEST PUSH1 0xE DUP1 SLOAD PUSH1 0x1 PUSH1 0x1 PUSH1 0xA0 SHL SUB NOT SWAP1 DUP2 AND PUSH2 0xF001 OR SWAP1 SWAP2 SSTORE PUSH1 0x2 DUP1 SLOAD SWAP1 SWAP2 AND PUSH20 0xDF99DDE7C98A50293A19AD85E47AD3B42B08695 OR SWAP1 SSTORE PUSH1 0x0 JUMPDEST DUP2 DUP2 LT ISZERO PUSH2 0x2464 JUMPI PUSH1 0x0 DUP4 DUP4 DUP4 DUP2 DUP2 LT PUSH2 0x20E8 JUMPI PUSH2 0x20E8 PUSH2 0x4DF9 JUMP JUMPDEST SWAP1 POP PUSH1 0x20 MUL ADD PUSH1 0x20 DUP2 ADD SWAP1 PUSH2 0x20FD SWAP2 SWAP1 PUSH2 0x4646 JUMP JUMPDEST PUSH1 0x1 PUSH1 0x1 PUSH1 0xA0 SHL SUB AND SUB PUSH2 0x2153 JUMPI PUSH1 0x40 MLOAD PUSH3 0x461BCD PUSH1 0xE5 SHL DUP2 MSTORE PUSH1 0x20 PUSH1 0x4 DUP3 ADD MSTORE PUSH1 0x19 PUSH1 0x24 DUP3 ADD MSTORE PUSH32 0x496E76616C69642076616C696461746F72206164647265737300000000000000 PUSH1 0x44 DUP3 ADD MSTORE PUSH1 0x64 ADD PUSH2 0xA69 JUMP JUMPDEST TIMESTAMP PUSH1 0xB PUSH1 0x0 DUP6 DUP6 DUP6 DUP2 DUP2 LT PUSH2 0x216A JUMPI PUSH2 0x216A PUSH2 0x4DF9 JUMP JUMPDEST SWAP1 POP PUSH1 0x20 MUL ADD PUSH1 0x20 DUP2 ADD SWAP1 PUSH2 0x217F SWAP2 SWAP1 PUSH2 0x4646 JUMP JUMPDEST PUSH1 0x1 PUSH1 0x1 PUSH1 0xA0 SHL SUB AND DUP2 MSTORE PUSH1 0x20 DUP2 ADD SWAP2 SWAP1 SWAP2 MSTORE PUSH1 0x40 ADD PUSH1 0x0 KECCAK256 SSTORE PUSH2 0x21C3 DUP4 DUP4 DUP4 DUP2 DUP2 LT PUSH2 0x21AE JUMPI PUSH2 0x21AE PUSH2 0x4DF9 JUMP JUMPDEST SWAP1 POP PUSH1 0x20 MUL ADD PUSH1 0x20 DUP2 ADD SWAP1 PUSH2 0x4D9 SWAP2 SWAP1 PUSH2 0x4646 JUMP JUMPDEST PUSH2 0x2223 JUMPI PUSH1 0x5 DUP4 DUP4 DUP4 DUP2 DUP2 LT PUSH2 0x21DB JUMPI PUSH2 0x21DB PUSH2 0x4DF9 JUMP JUMPDEST SWAP1 POP PUSH1 0x20 MUL ADD PUSH1 0x20 DUP2 ADD SWAP1 PUSH2 0x21F0 SWAP2 SWAP1 PUSH2 0x4646 JUMP JUMPDEST DUP2 SLOAD PUSH1 0x1 DUP2 ADD DUP4 SSTORE PUSH1 0x0 SWAP3 DUP4 MSTORE PUSH1 0x20 SWAP1 SWAP3 KECCAK256 SWAP1 SWAP2 ADD DUP1 SLOAD PUSH1 0x1 PUSH1 0x1 PUSH1 0xA0 SHL SUB NOT AND PUSH1 0x1 PUSH1 0x1 PUSH1 0xA0 SHL SUB SWAP1 SWAP3 AND SWAP2 SWAP1 SWAP2 OR SWAP1 SSTORE JUMPDEST PUSH2 0x224D DUP4 DUP4 DUP4 DUP2 DUP2 LT PUSH2 0x2238 JUMPI PUSH2 0x2238 PUSH2 0x4DF9 JUMP JUMPDEST SWAP1 POP PUSH1 0x20 MUL ADD PUSH1 0x20 DUP2 ADD SWAP1 PUSH2 0x77E SWAP2 SWAP1 PUSH2 0x4646 JUMP JUMPDEST PUSH2 0x22AD JUMPI PUSH1 0x6 DUP4 DUP4 DUP4 DUP2 DUP2 LT PUSH2 0x2265 JUMPI PUSH2 0x2265 PUSH2 0x4DF9 JUMP JUMPDEST SWAP1 POP PUSH1 0x20 MUL ADD PUSH1 0x20 DUP2 ADD SWAP1 PUSH2 0x227A SWAP2 SWAP1 PUSH2 0x4646 JUMP JUMPDEST DUP2 SLOAD PUSH1 0x1 DUP2 ADD DUP4 SSTORE PUSH1 0x0 SWAP3 DUP4 MSTORE PUSH1 0x20 SWAP1 SWAP3 KECCAK256 SWAP1 SWAP2 ADD DUP1 SLOAD PUSH1 0x1 PUSH1 0x1 PUSH1 0xA0 SHL SUB NOT AND PUSH1 0x1 PUSH1 0x1 PUSH1 0xA0 SHL SUB SWAP1 SWAP3 AND SWAP2 SWAP1 SWAP2 OR SWAP1 SSTORE JUMPDEST PUSH1 0x0 PUSH1 0x3 DUP2 DUP6 DUP6 DUP6 DUP2 DUP2 LT PUSH2 0x22C4 JUMPI PUSH2 0x22C4 PUSH2 0x4DF9 JUMP JUMPDEST SWAP1 POP PUSH1 0x20 MUL ADD PUSH1 0x20 DUP2 ADD SWAP1 PUSH2 0x22D9 SWAP2 SWAP1 PUSH2 0x4646 JUMP JUMPDEST PUSH1 0x1 PUSH1 0x1 PUSH1 0xA0 SHL SUB SWAP1 DUP2 AND DUP3 MSTORE PUSH1 0x20 DUP3 ADD SWAP3 SWAP1 SWAP3 MSTORE PUSH1 0x40 ADD PUSH1 0x0 KECCAK256 SLOAD AND SUB PUSH2 0x237F JUMPI DUP3 DUP3 DUP3 DUP2 DUP2 LT PUSH2 0x230D JUMPI PUSH2 0x230D PUSH2 0x4DF9 JUMP JUMPDEST SWAP1 POP PUSH1 0x20 MUL ADD PUSH1 0x20 DUP2 ADD SWAP1 PUSH2 0x2322 SWAP2 SWAP1 PUSH2 0x4646 JUMP JUMPDEST PUSH1 0x3 PUSH1 0x0 DUP6 DUP6 DUP6 DUP2 DUP2 LT PUSH2 0x2338 JUMPI PUSH2 0x2338 PUSH2 0x4DF9 JUMP JUMPDEST SWAP1 POP PUSH1 0x20 MUL ADD PUSH1 0x20 DUP2 ADD SWAP1 PUSH2 0x234D SWAP2 SWAP1 PUSH2 0x4646 JUMP JUMPDEST PUSH1 0x1 PUSH1 0x1 PUSH1 0xA0 SHL SUB SWAP1 DUP2 AND DUP3 MSTORE PUSH1 0x20 DUP3 ADD SWAP3 SWAP1 SWAP3 MSTORE PUSH1 0x40 ADD PUSH1 0x0 KECCAK256 DUP1 SLOAD PUSH1 0x1 PUSH1 0x1 PUSH1 0xA0 SHL SUB NOT AND SWAP3 SWAP1 SWAP2 AND SWAP2 SWAP1 SWAP2 OR SWAP1 SSTORE JUMPDEST PUSH1 0x0 PUSH1 0x3 PUSH1 0x0 DUP6 DUP6 DUP6 DUP2 DUP2 LT PUSH2 0x2397 JUMPI PUSH2 0x2397 PUSH2 0x4DF9 JUMP JUMPDEST SWAP1 POP PUSH1 0x20 MUL ADD PUSH1 0x20 DUP2 ADD SWAP1 PUSH2 0x23AC SWAP2 SWAP1 PUSH2 0x4646 JUMP JUMPDEST PUSH1 0x1 PUSH1 0x1 PUSH1 0xA0 SHL SUB AND DUP2 MSTORE PUSH1 0x20 DUP2 ADD SWAP2 SWAP1 SWAP2 MSTORE PUSH1 0x40 ADD PUSH1 0x0 KECCAK256 SLOAD PUSH1 0x1 PUSH1 0xA0 SHL SWAP1 DIV PUSH1 0xFF AND PUSH1 0x4 DUP2 GT ISZERO PUSH2 0x23E1 JUMPI PUSH2 0x23E1 PUSH2 0x47DD JUMP JUMPDEST SUB PUSH2 0x2452 JUMPI PUSH1 0x2 PUSH1 0x3 PUSH1 0x0 DUP6 DUP6 DUP6 DUP2 DUP2 LT PUSH2 0x23FE JUMPI PUSH2 0x23FE PUSH2 0x4DF9 JUMP JUMPDEST SWAP1 POP PUSH1 0x20 MUL ADD PUSH1 0x20 DUP2 ADD SWAP1 PUSH2 0x2413 SWAP2 SWAP1 PUSH2 0x4646 JUMP JUMPDEST PUSH1 0x1 PUSH1 0x1 PUSH1 0xA0 SHL SUB AND DUP2 MSTORE PUSH1 0x20 DUP2 ADD SWAP2 SWAP1 SWAP2 MSTORE PUSH1 0x40 ADD PUSH1 0x0 KECCAK256 DUP1 SLOAD PUSH1 0xFF PUSH1 0xA0 SHL NOT AND PUSH1 0x1 PUSH1 0xA0 SHL DUP4 PUSH1 0x4 DUP2 GT ISZERO PUSH2 0x244C JUMPI PUSH2 0x244C PUSH2 0x47DD JUMP JUMPDEST MUL OR SWAP1 SSTORE POP JUMPDEST DUP1 PUSH2 0x245C DUP2 PUSH2 0x4E0F JUMP JUMPDEST SWAP2 POP POP PUSH2 0x20CC JUMP JUMPDEST POP POP PUSH1 0x0 DUP1 SLOAD PUSH1 0xFF NOT AND PUSH1 0x1 OR SWAP1 SSTORE POP JUMP JUMPDEST PUSH1 0x0 DUP1 SLOAD PUSH1 0xFF AND PUSH2 0x2499 JUMPI PUSH1 0x40 MLOAD PUSH3 0x461BCD PUSH1 0xE5 SHL DUP2 MSTORE PUSH1 0x4 ADD PUSH2 0xA69 SWAP1 PUSH2 0x4D7F JUMP JUMPDEST PUSH1 0x1 PUSH1 0x1 PUSH1 0xA0 SHL SUB DUP13 AND PUSH2 0x24E5 JUMPI PUSH1 0x40 MLOAD PUSH3 0x461BCD PUSH1 0xE5 SHL DUP2 MSTORE PUSH1 0x20 PUSH1 0x4 DUP3 ADD MSTORE PUSH1 0x13 PUSH1 0x24 DUP3 ADD MSTORE PUSH19 0x496E76616C6964206665652061646472657373 PUSH1 0x68 SHL PUSH1 0x44 DUP3 ADD MSTORE PUSH1 0x64 ADD PUSH2 0xA69 JUMP JUMPDEST PUSH2 0x25F4 DUP12 DUP12 DUP1 DUP1 PUSH1 0x1F ADD PUSH1 0x20 DUP1 SWAP2 DIV MUL PUSH1 0x20 ADD PUSH1 0x40 MLOAD SWAP1 DUP2 ADD PUSH1 0x40 MSTORE DUP1 SWAP4 SWAP3 SWAP2 SWAP1 DUP2 DUP2 MSTORE PUSH1 0x20 ADD DUP4 DUP4 DUP1 DUP3 DUP5 CALLDATACOPY PUSH1 0x0 SWAP3 ADD SWAP2 SWAP1 SWAP2 MSTORE POP POP PUSH1 0x40 DUP1 MLOAD PUSH1 0x20 PUSH1 0x1F DUP16 ADD DUP2 SWAP1 DIV DUP2 MUL DUP3 ADD DUP2 ADD SWAP1 SWAP3 MSTORE DUP14 DUP2 MSTORE SWAP3 POP DUP14 SWAP2 POP DUP13 SWAP1 DUP2 SWAP1 DUP5 ADD DUP4 DUP3 DUP1 DUP3 DUP5 CALLDATACOPY PUSH1 0x0 SWAP3 ADD SWAP2 SWAP1 SWAP2 MSTORE POP POP PUSH1 0x40 DUP1 MLOAD PUSH1 0x20 PUSH1 0x1F DUP15 ADD DUP2 SWAP1 DIV DUP2 MUL DUP3 ADD DUP2 ADD SWAP1 SWAP3 MSTORE DUP13 DUP2 MSTORE SWAP3 POP DUP13 SWAP2 POP DUP12 SWAP1 DUP2 SWAP1 DUP5 ADD DUP4 DUP3 DUP1 DUP3 DUP5 CALLDATACOPY PUSH1 0x0 SWAP3 ADD SWAP2 SWAP1 SWAP2 MSTORE POP POP PUSH1 0x40 DUP1 MLOAD PUSH1 0x20 PUSH1 0x1F DUP14 ADD DUP2 SWAP1 DIV DUP2 MUL DUP3 ADD DUP2 ADD SWAP1 SWAP3 MSTORE DUP12 DUP2 MSTORE SWAP3 POP DUP12 SWAP2 POP DUP11 SWAP1 DUP2 SWAP1 DUP5 ADD DUP4 DUP3 DUP1 DUP3 DUP5 CALLDATACOPY PUSH1 0x0 SWAP3 ADD SWAP2 SWAP1 SWAP2 MSTORE POP POP PUSH1 0x40 DUP1 MLOAD PUSH1 0x20 PUSH1 0x1F DUP13 ADD DUP2 SWAP1 DIV DUP2 MUL DUP3 ADD DUP2 ADD SWAP1 SWAP3 MSTORE DUP11 DUP2 MSTORE SWAP3 POP DUP11 SWAP2 POP DUP10 SWAP1 DUP2 SWAP1 DUP5 ADD DUP4 DUP3 DUP1 DUP3 DUP5 CALLDATACOPY PUSH1 0x0 SWAP3 ADD SWAP2 SWAP1 SWAP2 MSTORE POP PUSH2 0x2E5C SWAP3 POP POP POP JUMP JUMPDEST PUSH2 0x2636 JUMPI PUSH1 0x40 MLOAD PUSH3 0x461BCD PUSH1 0xE5 SHL DUP2 MSTORE PUSH1 0x20 PUSH1 0x4 DUP3 ADD MSTORE PUSH1 0x13 PUSH1 0x24 DUP3 ADD MSTORE PUSH19 0x24B73B30B634B2103232B9B1B934B83A34B7B7 PUSH1 0x69 SHL PUSH1 0x44 DUP3 ADD MSTORE PUSH1 0x64 ADD PUSH2 0xA69 JUMP JUMPDEST ORIGIN PUSH1 0x0 DUP2 DUP2 MSTORE PUSH1 0x3 PUSH1 0x20 MSTORE PUSH1 0x40 DUP2 KECCAK256 SLOAD DUP2 SWAP1 PUSH1 0x1 PUSH1 0xA0 SHL SWAP1 DIV PUSH1 0xFF AND PUSH1 0x4 DUP2 GT ISZERO PUSH2 0x2663 JUMPI PUSH2 0x2663 PUSH2 0x47DD JUMP JUMPDEST SUB PUSH2 0x2699 JUMPI POP PUSH1 0x1 PUSH1 0x1 PUSH1 0xA0 SHL SUB DUP2 AND PUSH1 0x0 SWAP1 DUP2 MSTORE PUSH1 0x3 PUSH1 0x20 MSTORE PUSH1 0x40 SWAP1 KECCAK256 DUP1 SLOAD PUSH1 0xFF PUSH1 0xA0 SHL NOT AND PUSH1 0x1 PUSH1 0xA0 SHL OR SWAP1 SSTORE PUSH1 0x1 PUSH2 0x26AA JUMP JUMPDEST CALLVALUE ISZERO PUSH2 0x26AA JUMPI PUSH1 0x0 SWAP3 POP POP POP PUSH2 0x29E0 JUMP JUMPDEST PUSH1 0x1 PUSH1 0x1 PUSH1 0xA0 SHL SUB DUP3 DUP2 AND PUSH1 0x0 SWAP1 DUP2 MSTORE PUSH1 0x3 PUSH1 0x20 MSTORE PUSH1 0x40 SWAP1 KECCAK256 SLOAD DUP2 AND SWAP1 DUP16 AND EQ PUSH2 0x271C JUMPI DUP14 PUSH1 0x3 PUSH1 0x0 DUP5 PUSH1 0x1 PUSH1 0x1 PUSH1 0xA0 SHL SUB AND PUSH1 0x1 PUSH1 0x1 PUSH1 0xA0 SHL SUB AND DUP2 MSTORE PUSH1 0x20 ADD SWAP1 DUP2 MSTORE PUSH1 0x20 ADD PUSH1 0x0 KECCAK256 PUSH1 0x0 ADD PUSH1 0x0 PUSH2 0x100 EXP DUP2 SLOAD DUP2 PUSH1 0x1 PUSH1 0x1 PUSH1 0xA0 SHL SUB MUL NOT AND SWAP1 DUP4 PUSH1 0x1 PUSH1 0x1 PUSH1 0xA0 SHL SUB AND MUL OR SWAP1 SSTORE POP JUMPDEST PUSH1 0x40 MLOAD DUP1 PUSH1 0xA0 ADD PUSH1 0x40 MSTORE DUP1 DUP15 DUP15 DUP1 DUP1 PUSH1 0x1F ADD PUSH1 0x20 DUP1 SWAP2 DIV MUL PUSH1 0x20 ADD PUSH1 0x40 MLOAD SWAP1 DUP2 ADD PUSH1 0x40 MSTORE DUP1 SWAP4 SWAP3 SWAP2 SWAP1 DUP2 DUP2 MSTORE PUSH1 0x20 ADD DUP4 DUP4 DUP1 DUP3 DUP5 CALLDATACOPY PUSH1 0x0 SWAP3 ADD SWAP2 SWAP1 SWAP2 MSTORE POP POP POP SWAP1 DUP3 MSTORE POP PUSH1 0x40 DUP1 MLOAD PUSH1 0x20 PUSH1 0x1F DUP16 ADD DUP2 SWAP1 DIV DUP2 MUL DUP3 ADD DUP2 ADD SWAP1 SWAP3 MSTORE DUP14 DUP2 MSTORE SWAP2 DUP2 ADD SWAP2 SWAP1 DUP15 SWAP1 DUP15 SWAP1 DUP2 SWAP1 DUP5 ADD DUP4 DUP3 DUP1 DUP3 DUP5 CALLDATACOPY PUSH1 0x0 SWAP3 ADD SWAP2 SWAP1 SWAP2 MSTORE POP POP POP SWAP1 DUP3 MSTORE POP PUSH1 0x40 DUP1 MLOAD PUSH1 0x20 PUSH1 0x1F DUP14 ADD DUP2 SWAP1 DIV DUP2 MUL DUP3 ADD DUP2 ADD SWAP1 SWAP3 MSTORE DUP12 DUP2 MSTORE SWAP2 DUP2 ADD SWAP2 SWAP1 DUP13 SWAP1 DUP13 SWAP1 DUP2 SWAP1 DUP5 ADD DUP4 DUP3 DUP1 DUP3 DUP5 CALLDATACOPY PUSH1 0x0 SWAP3 ADD SWAP2 SWAP1 SWAP2 MSTORE POP POP POP SWAP1 DUP3 MSTORE POP PUSH1 0x40 DUP1 MLOAD PUSH1 0x20 PUSH1 0x1F DUP12 ADD DUP2 SWAP1 DIV DUP2 MUL DUP3 ADD DUP2 ADD SWAP1 SWAP3 MSTORE DUP10 DUP2 MSTORE SWAP2 DUP2 ADD SWAP2 SWAP1 DUP11 SWAP1 DUP11 SWAP1 DUP2 SWAP1 DUP5 ADD DUP4 DUP3 DUP1 DUP3 DUP5 CALLDATACOPY PUSH1 0x0 SWAP3 ADD SWAP2 SWAP1 SWAP2 MSTORE POP POP POP SWAP1 DUP3 MSTORE POP PUSH1 0x40 DUP1 MLOAD PUSH1 0x20 PUSH1 0x1F DUP10 ADD DUP2 SWAP1 DIV DUP2 MUL DUP3 ADD DUP2 ADD SWAP1 SWAP3 MSTORE DUP8 DUP2 MSTORE SWAP2 DUP2 ADD SWAP2 SWAP1 DUP9 SWAP1 DUP9 SWAP1 DUP2 SWAP1 DUP5 ADD DUP4 DUP3 DUP1 DUP3 DUP5 CALLDATACOPY PUSH1 0x0 SWAP3 ADD DUP3 SWAP1 MSTORE POP SWAP4 SWAP1 SWAP5 MSTORE POP POP PUSH1 0x1 PUSH1 0x1 PUSH1 0xA0 SHL SUB DUP6 AND DUP2 MSTORE PUSH1 0x3 PUSH1 0x20 MSTORE PUSH1 0x40 SWAP1 KECCAK256 DUP3 MLOAD PUSH1 0x2 SWAP1 SWAP2 ADD SWAP2 POP DUP2 SWAP1 PUSH2 0x2875 SWAP1 DUP3 PUSH2 0x4EE7 JUMP JUMPDEST POP PUSH1 0x20 DUP3 ADD MLOAD PUSH1 0x1 DUP3 ADD SWAP1 PUSH2 0x288A SWAP1 DUP3 PUSH2 0x4EE7 JUMP JUMPDEST POP PUSH1 0x40 DUP3 ADD MLOAD PUSH1 0x2 DUP3 ADD SWAP1 PUSH2 0x289F SWAP1 DUP3 PUSH2 0x4EE7 JUMP JUMPDEST POP PUSH1 0x60 DUP3 ADD MLOAD PUSH1 0x3 DUP3 ADD SWAP1 PUSH2 0x28B4 SWAP1 DUP3 PUSH2 0x4EE7 JUMP JUMPDEST POP PUSH1 0x80 DUP3 ADD MLOAD PUSH1 0x4 DUP3 ADD SWAP1 PUSH2 0x28C9 SWAP1 DUP3 PUSH2 0x4EE7 JUMP JUMPDEST POP SWAP1 POP POP DUP1 ISZERO PUSH2 0x298B JUMPI PUSH12 0x19D971E4FE8401E74000000 CALLVALUE LT ISZERO PUSH2 0x292F JUMPI PUSH1 0x40 MLOAD PUSH3 0x461BCD PUSH1 0xE5 SHL DUP2 MSTORE PUSH1 0x20 PUSH1 0x4 DUP3 ADD MSTORE PUSH1 0x18 PUSH1 0x24 DUP3 ADD MSTORE PUSH32 0x496E76616C69642076616C696461746F7220616D6F756E740000000000000000 PUSH1 0x44 DUP3 ADD MSTORE PUSH1 0x64 ADD PUSH2 0xA69 JUMP JUMPDEST PUSH2 0x2938 DUP3 PUSH2 0xE43 JUMP JUMPDEST POP DUP14 PUSH1 0x1 PUSH1 0x1 PUSH1 0xA0 SHL SUB AND DUP3 PUSH1 0x1 PUSH1 0x1 PUSH1 0xA0 SHL SUB AND PUSH32 0x887EEC9D757B7247DD8E51198F9D1B8F27979BCEB34BDCC1BFFD4EC5EC736C22 TIMESTAMP PUSH1 0x40 MLOAD PUSH2 0x297E SWAP2 DUP2 MSTORE PUSH1 0x20 ADD SWAP1 JUMP JUMPDEST PUSH1 0x40 MLOAD DUP1 SWAP2 SUB SWAP1 LOG3 PUSH2 0x29D9 JUMP JUMPDEST DUP14 PUSH1 0x1 PUSH1 0x1 PUSH1 0xA0 SHL SUB AND DUP3 PUSH1 0x1 PUSH1 0x1 PUSH1 0xA0 SHL SUB AND PUSH32 0xB8421F65501371F54D58DE1937FF1E1CCDB76423EF6F84ACEA1814A0F6362CA0 TIMESTAMP PUSH1 0x40 MLOAD PUSH2 0x29D0 SWAP2 DUP2 MSTORE PUSH1 0x20 ADD SWAP1 JUMP JUMPDEST PUSH1 0x40 MLOAD DUP1 SWAP2 SUB SWAP1 LOG3 JUMPDEST PUSH1 0x1 SWAP3 POP POP POP JUMPDEST SWAP12 SWAP11 POP POP POP POP POP POP POP POP POP POP POP JUMP JUMPDEST PUSH1 0x1 PUSH1 0x1 PUSH1 0xA0 SHL SUB DUP2 DUP2 AND PUSH1 0x0 SWAP1 DUP2 MSTORE PUSH1 0x3 PUSH1 0x20 SWAP1 DUP2 MSTORE PUSH1 0x40 DUP1 DUP4 KECCAK256 DUP2 MLOAD PUSH1 0xE0 DUP2 ADD SWAP1 SWAP3 MSTORE DUP1 SLOAD SWAP5 DUP6 AND DUP3 MSTORE PUSH1 0x60 SWAP5 DUP6 SWAP5 DUP6 SWAP5 DUP6 SWAP5 DUP6 SWAP5 SWAP3 SWAP4 SWAP1 SWAP3 SWAP2 DUP4 ADD SWAP1 PUSH1 0x1 PUSH1 0xA0 SHL SWAP1 DIV PUSH1 0xFF AND PUSH1 0x4 DUP2 GT ISZERO PUSH2 0x2A49 JUMPI PUSH2 0x2A49 PUSH2 0x47DD JUMP JUMPDEST PUSH1 0x4 DUP2 GT ISZERO PUSH2 0x2A5A JUMPI PUSH2 0x2A5A PUSH2 0x47DD JUMP JUMPDEST DUP2 MSTORE PUSH1 0x20 ADD PUSH1 0x1 DUP3 ADD SLOAD DUP2 MSTORE PUSH1 0x20 ADD PUSH1 0x2 DUP3 ADD PUSH1 0x40 MLOAD DUP1 PUSH1 0xA0 ADD PUSH1 0x40 MSTORE SWAP1 DUP2 PUSH1 0x0 DUP3 ADD DUP1 SLOAD PUSH2 0x2A88 SWAP1 PUSH2 0x4E5E JUMP JUMPDEST DUP1 PUSH1 0x1F ADD PUSH1 0x20 DUP1 SWAP2 DIV MUL PUSH1 0x20 ADD PUSH1 0x40 MLOAD SWAP1 DUP2 ADD PUSH1 0x40 MSTORE DUP1 SWAP3 SWAP2 SWAP1 DUP2 DUP2 MSTORE PUSH1 0x20 ADD DUP3 DUP1 SLOAD PUSH2 0x2AB4 SWAP1 PUSH2 0x4E5E JUMP JUMPDEST DUP1 ISZERO PUSH2 0x2B01 JUMPI DUP1 PUSH1 0x1F LT PUSH2 0x2AD6 JUMPI PUSH2 0x100 DUP1 DUP4 SLOAD DIV MUL DUP4 MSTORE SWAP2 PUSH1 0x20 ADD SWAP2 PUSH2 0x2B01 JUMP JUMPDEST DUP3 ADD SWAP2 SWAP1 PUSH1 0x0 MSTORE PUSH1 0x20 PUSH1 0x0 KECCAK256 SWAP1 JUMPDEST DUP2 SLOAD DUP2 MSTORE SWAP1 PUSH1 0x1 ADD SWAP1 PUSH1 0x20 ADD DUP1 DUP4 GT PUSH2 0x2AE4 JUMPI DUP3 SWAP1 SUB PUSH1 0x1F AND DUP3 ADD SWAP2 JUMPDEST POP POP POP POP POP DUP2 MSTORE PUSH1 0x20 ADD PUSH1 0x1 DUP3 ADD DUP1 SLOAD PUSH2 0x2B1A SWAP1 PUSH2 0x4E5E JUMP JUMPDEST DUP1 PUSH1 0x1F ADD PUSH1 0x20 DUP1 SWAP2 DIV MUL PUSH1 0x20 ADD PUSH1 0x40 MLOAD SWAP1 DUP2 ADD PUSH1 0x40 MSTORE DUP1 SWAP3 SWAP2 SWAP1 DUP2 DUP2 MSTORE PUSH1 0x20 ADD DUP3 DUP1 SLOAD PUSH2 0x2B46 SWAP1 PUSH2 0x4E5E JUMP JUMPDEST DUP1 ISZERO PUSH2 0x2B93 JUMPI DUP1 PUSH1 0x1F LT PUSH2 0x2B68 JUMPI PUSH2 0x100 DUP1 DUP4 SLOAD DIV MUL DUP4 MSTORE SWAP2 PUSH1 0x20 ADD SWAP2 PUSH2 0x2B93 JUMP JUMPDEST DUP3 ADD SWAP2 SWAP1 PUSH1 0x0 MSTORE PUSH1 0x20 PUSH1 0x0 KECCAK256 SWAP1 JUMPDEST DUP2 SLOAD DUP2 MSTORE SWAP1 PUSH1 0x1 ADD SWAP1 PUSH1 0x20 ADD DUP1 DUP4 GT PUSH2 0x2B76 JUMPI DUP3 SWAP1 SUB PUSH1 0x1F AND DUP3 ADD SWAP2 JUMPDEST POP POP POP POP POP DUP2 MSTORE PUSH1 0x20 ADD PUSH1 0x2 DUP3 ADD DUP1 SLOAD PUSH2 0x2BAC SWAP1 PUSH2 0x4E5E JUMP JUMPDEST DUP1 PUSH1 0x1F ADD PUSH1 0x20 DUP1 SWAP2 DIV MUL PUSH1 0x20 ADD PUSH1 0x40 MLOAD SWAP1 DUP2 ADD PUSH1 0x40 MSTORE DUP1 SWAP3 SWAP2 SWAP1 DUP2 DUP2 MSTORE PUSH1 0x20 ADD DUP3 DUP1 SLOAD PUSH2 0x2BD8 SWAP1 PUSH2 0x4E5E JUMP JUMPDEST DUP1 ISZERO PUSH2 0x2C25 JUMPI DUP1 PUSH1 0x1F LT PUSH2 0x2BFA JUMPI PUSH2 0x100 DUP1 DUP4 SLOAD DIV MUL DUP4 MSTORE SWAP2 PUSH1 0x20 ADD SWAP2 PUSH2 0x2C25 JUMP JUMPDEST DUP3 ADD SWAP2 SWAP1 PUSH1 0x0 MSTORE PUSH1 0x20 PUSH1 0x0 KECCAK256 SWAP1 JUMPDEST DUP2 SLOAD DUP2 MSTORE SWAP1 PUSH1 0x1 ADD SWAP1 PUSH1 0x20 ADD DUP1 DUP4 GT PUSH2 0x2C08 JUMPI DUP3 SWAP1 SUB PUSH1 0x1F AND DUP3 ADD SWAP2 JUMPDEST POP POP POP POP POP DUP2 MSTORE PUSH1 0x20 ADD PUSH1 0x3 DUP3 ADD DUP1 SLOAD PUSH2 0x2C3E SWAP1 PUSH2 0x4E5E JUMP JUMPDEST DUP1 PUSH1 0x1F ADD PUSH1 0x20 DUP1 SWAP2 DIV MUL PUSH1 0x20 ADD PUSH1 0x40 MLOAD SWAP1 DUP2 ADD PUSH1 0x40 MSTORE DUP1 SWAP3 SWAP2 SWAP1 DUP2 DUP2 MSTORE PUSH1 0x20 ADD DUP3 DUP1 SLOAD PUSH2 0x2C6A SWAP1 PUSH2 0x4E5E JUMP JUMPDEST DUP1 ISZERO PUSH2 0x2CB7 JUMPI DUP1 PUSH1 0x1F LT PUSH2 0x2C8C JUMPI PUSH2 0x100 DUP1 DUP4 SLOAD DIV MUL DUP4 MSTORE SWAP2 PUSH1 0x20 ADD SWAP2 PUSH2 0x2CB7 JUMP JUMPDEST DUP3 ADD SWAP2 SWAP1 PUSH1 0x0 MSTORE PUSH1 0x20 PUSH1 0x0 KECCAK256 SWAP1 JUMPDEST DUP2 SLOAD DUP2 MSTORE SWAP1 PUSH1 0x1 ADD SWAP1 PUSH1 0x20 ADD DUP1 DUP4 GT PUSH2 0x2C9A JUMPI DUP3 SWAP1 SUB PUSH1 0x1F AND DUP3 ADD SWAP2 JUMPDEST POP POP POP POP POP DUP2 MSTORE PUSH1 0x20 ADD PUSH1 0x4 DUP3 ADD DUP1 SLOAD PUSH2 0x2CD0 SWAP1 PUSH2 0x4E5E JUMP JUMPDEST DUP1 PUSH1 0x1F ADD PUSH1 0x20 DUP1 SWAP2 DIV MUL PUSH1 0x20 ADD PUSH1 0x40 MLOAD SWAP1 DUP2 ADD PUSH1 0x40 MSTORE DUP1 SWAP3 SWAP2 SWAP1 DUP2 DUP2 MSTORE PUSH1 0x20 ADD DUP3 DUP1 SLOAD PUSH2 0x2CFC SWAP1 PUSH2 0x4E5E JUMP JUMPDEST DUP1 ISZERO PUSH2 0x2D49 JUMPI DUP1 PUSH1 0x1F LT PUSH2 0x2D1E JUMPI PUSH2 0x100 DUP1 DUP4 SLOAD DIV MUL DUP4 MSTORE SWAP2 PUSH1 0x20 ADD SWAP2 PUSH2 0x2D49 JUMP JUMPDEST DUP3 ADD SWAP2 SWAP1 PUSH1 0x0 MSTORE PUSH1 0x20 PUSH1 0x0 KECCAK256 SWAP1 JUMPDEST DUP2 SLOAD DUP2 MSTORE SWAP1 PUSH1 0x1 ADD SWAP1 PUSH1 0x20 ADD DUP1 DUP4 GT PUSH2 0x2D2C JUMPI DUP3 SWAP1 SUB PUSH1 0x1F AND DUP3 ADD SWAP2 JUMPDEST POP POP POP POP POP DUP2 MSTORE POP POP DUP2 MSTORE PUSH1 0x20 ADD PUSH1 0x7 DUP3 ADD SLOAD DUP2 MSTORE PUSH1 0x20 ADD PUSH1 0x8 DUP3 ADD SLOAD DUP2 MSTORE PUSH1 0x20 ADD PUSH1 0x9 DUP3 ADD DUP1 SLOAD DUP1 PUSH1 0x20 MUL PUSH1 0x20 ADD PUSH1 0x40 MLOAD SWAP1 DUP2 ADD PUSH1 0x40 MSTORE DUP1 SWAP3 SWAP2 SWAP1 DUP2 DUP2 MSTORE PUSH1 0x20 ADD DUP3 DUP1 SLOAD DUP1 ISZERO PUSH2 0x2DC3 JUMPI PUSH1 0x20 MUL DUP3 ADD SWAP2 SWAP1 PUSH1 0x0 MSTORE PUSH1 0x20 PUSH1 0x0 KECCAK256 SWAP1 JUMPDEST DUP2 SLOAD PUSH1 0x1 PUSH1 0x1 PUSH1 0xA0 SHL SUB AND DUP2 MSTORE PUSH1 0x1 SWAP1 SWAP2 ADD SWAP1 PUSH1 0x20 ADD DUP1 DUP4 GT PUSH2 0x2DA5 JUMPI JUMPDEST POP POP POP SWAP2 SWAP1 SWAP3 MSTORE POP POP POP PUSH1 0x60 SWAP1 DUP2 ADD MLOAD DUP1 MLOAD PUSH1 0x20 DUP3 ADD MLOAD PUSH1 0x40 DUP4 ADD MLOAD SWAP4 DUP4 ADD MLOAD PUSH1 0x80 SWAP1 SWAP4 ADD MLOAD SWAP2 SWAP12 SWAP1 SWAP11 POP SWAP3 SWAP9 POP SWAP1 SWAP7 POP SWAP5 POP SWAP3 POP POP POP JUMP JUMPDEST PUSH1 0x60 PUSH1 0x6 DUP1 SLOAD DUP1 PUSH1 0x20 MUL PUSH1 0x20 ADD PUSH1 0x40 MLOAD SWAP1 DUP2 ADD PUSH1 0x40 MSTORE DUP1 SWAP3 SWAP2 SWAP1 DUP2 DUP2 MSTORE PUSH1 0x20 ADD DUP3 DUP1 SLOAD DUP1 ISZERO PUSH2 0x2040 JUMPI PUSH1 0x20 MUL DUP3 ADD SWAP2 SWAP1 PUSH1 0x0 MSTORE PUSH1 0x20 PUSH1 0x0 KECCAK256 SWAP1 DUP2 SLOAD PUSH1 0x1 PUSH1 0x1 PUSH1 0xA0 SHL SUB AND DUP2 MSTORE PUSH1 0x1 SWAP1 SWAP2 ADD SWAP1 PUSH1 0x20 ADD DUP1 DUP4 GT PUSH2 0x2022 JUMPI POP POP POP POP POP SWAP1 POP SWAP1 JUMP JUMPDEST PUSH1 0x0 PUSH1 0x46 DUP7 MLOAD GT ISZERO PUSH2 0x2EA9 JUMPI PUSH1 0x40 MLOAD PUSH3 0x461BCD PUSH1 0xE5 SHL DUP2 MSTORE PUSH1 0x20 PUSH1 0x4 DUP3 ADD MSTORE PUSH1 0x16 PUSH1 0x24 DUP3 ADD MSTORE PUSH22 0x92DCECC2D8D2C840DADEDCD2D6CAE440D8CADCCEE8D PUSH1 0x53 SHL PUSH1 0x44 DUP3 ADD MSTORE PUSH1 0x64 ADD PUSH2 0xA69 JUMP JUMPDEST PUSH2 0xBB8 DUP6 MLOAD GT ISZERO PUSH2 0x2EFC JUMPI PUSH1 0x40 MLOAD PUSH3 0x461BCD PUSH1 0xE5 SHL DUP2 MSTORE PUSH1 0x20 PUSH1 0x4 DUP3 ADD MSTORE PUSH1 0x17 PUSH1 0x24 DUP3 ADD MSTORE PUSH32 0x496E76616C6964206964656E74697479206C656E677468000000000000000000 PUSH1 0x44 DUP3 ADD MSTORE PUSH1 0x64 ADD PUSH2 0xA69 JUMP JUMPDEST PUSH1 0x8C DUP5 MLOAD GT ISZERO PUSH2 0x2F47 JUMPI PUSH1 0x40 MLOAD PUSH3 0x461BCD PUSH1 0xE5 SHL DUP2 MSTORE PUSH1 0x20 PUSH1 0x4 DUP3 ADD MSTORE PUSH1 0x16 PUSH1 0x24 DUP3 ADD MSTORE PUSH22 0x92DCECC2D8D2C840EECAC4E6D2E8CA40D8CADCCEE8D PUSH1 0x53 SHL PUSH1 0x44 DUP3 ADD MSTORE PUSH1 0x64 ADD PUSH2 0xA69 JUMP JUMPDEST PUSH1 0x8C DUP4 MLOAD GT ISZERO PUSH2 0x2F90 JUMPI PUSH1 0x40 MLOAD PUSH3 0x461BCD PUSH1 0xE5 SHL DUP2 MSTORE PUSH1 0x20 PUSH1 0x4 DUP3 ADD MSTORE PUSH1 0x14 PUSH1 0x24 DUP3 ADD MSTORE PUSH20 0x92DCECC2D8D2C840CADAC2D2D840D8CADCCEE8D PUSH1 0x63 SHL PUSH1 0x44 DUP3 ADD MSTORE PUSH1 0x64 ADD PUSH2 0xA69 JUMP JUMPDEST PUSH2 0x118 DUP3 MLOAD GT ISZERO PUSH2 0x2FDC JUMPI PUSH1 0x40 MLOAD PUSH3 0x461BCD PUSH1 0xE5 SHL DUP2 MSTORE PUSH1 0x20 PUSH1 0x4 DUP3 ADD MSTORE PUSH1 0x16 PUSH1 0x24 DUP3 ADD MSTORE PUSH22 0x92DCECC2D8D2C840C8CAE8C2D2D8E640D8CADCCEE8D PUSH1 0x53 SHL PUSH1 0x44 DUP3 ADD MSTORE PUSH1 0x64 ADD PUSH2 0xA69 JUMP JUMPDEST POP PUSH1 0x1 SWAP6 SWAP5 POP POP POP POP POP JUMP JUMPDEST CALLER COINBASE EQ PUSH2 0x3024 JUMPI PUSH1 0x40 MLOAD PUSH3 0x461BCD PUSH1 0xE5 SHL DUP2 MSTORE PUSH1 0x20 PUSH1 0x4 DUP3 ADD MSTORE PUSH1 0xA PUSH1 0x24 DUP3 ADD MSTORE PUSH10 0x4D696E6572206F6E6C79 PUSH1 0xB0 SHL PUSH1 0x44 DUP3 ADD MSTORE PUSH1 0x64 ADD PUSH2 0xA69 JUMP JUMPDEST NUMBER PUSH1 0x0 SWAP1 DUP2 MSTORE PUSH1 0xF PUSH1 0x20 SWAP1 DUP2 MSTORE PUSH1 0x40 DUP1 DUP4 KECCAK256 DUP4 DUP1 MSTORE SWAP1 SWAP2 MSTORE SWAP1 KECCAK256 SLOAD PUSH1 0xFF AND ISZERO PUSH2 0x308F JUMPI PUSH1 0x40 MLOAD PUSH3 0x461BCD PUSH1 0xE5 SHL DUP2 MSTORE PUSH1 0x20 PUSH1 0x4 DUP3 ADD MSTORE PUSH1 0x19 PUSH1 0x24 DUP3 ADD MSTORE PUSH32 0x426C6F636B20697320616C726561647920726577617264656400000000000000 PUSH1 0x44 DUP3 ADD MSTORE PUSH1 0x64 ADD PUSH2 0xA69 JUMP JUMPDEST PUSH1 0x0 SLOAD PUSH1 0xFF AND PUSH2 0x30B1 JUMPI PUSH1 0x40 MLOAD PUSH3 0x461BCD PUSH1 0xE5 SHL DUP2 MSTORE PUSH1 0x4 ADD PUSH2 0xA69 SWAP1 PUSH2 0x4D7F JUMP JUMPDEST NUMBER PUSH1 0x0 SWAP1 DUP2 MSTORE PUSH1 0xF PUSH1 0x20 SWAP1 DUP2 MSTORE PUSH1 0x40 DUP1 DUP4 KECCAK256 DUP4 DUP1 MSTORE SWAP1 SWAP2 MSTORE DUP2 KECCAK256 DUP1 SLOAD PUSH1 0xFF NOT AND PUSH1 0x1 OR SWAP1 SSTORE ORIGIN SWAP1 CALLVALUE SWAP1 DUP2 SWAP1 PUSH3 0x186A0 PUSH2 0x30EC PUSH2 0x4E20 DUP5 PUSH2 0x4DB8 JUMP JUMPDEST PUSH2 0x30F6 SWAP2 SWAP1 PUSH2 0x4DE5 JUMP JUMPDEST SWAP1 POP PUSH2 0x3102 DUP2 DUP4 PUSH2 0x4DA5 JUMP JUMPDEST SWAP2 POP PUSH1 0x0 PUSH3 0x186A0 PUSH2 0x3116 PUSH2 0xC350 DUP7 PUSH2 0x4DB8 JUMP JUMPDEST PUSH2 0x3120 SWAP2 SWAP1 PUSH2 0x4DE5 JUMP JUMPDEST SWAP1 POP PUSH2 0x312C DUP2 DUP5 PUSH2 0x4DA5 JUMP JUMPDEST PUSH1 0x2 SLOAD PUSH1 0x40 MLOAD SWAP2 SWAP5 POP PUSH1 0x1 PUSH1 0x1 PUSH1 0xA0 SHL SUB AND SWAP1 DUP3 ISZERO PUSH2 0x8FC MUL SWAP1 DUP4 SWAP1 PUSH1 0x0 DUP2 DUP2 DUP2 DUP6 DUP9 DUP9 CALL SWAP4 POP POP POP POP ISZERO DUP1 ISZERO PUSH2 0x3167 JUMPI RETURNDATASIZE PUSH1 0x0 DUP1 RETURNDATACOPY RETURNDATASIZE PUSH1 0x0 REVERT JUMPDEST POP PUSH1 0x0 PUSH3 0x186A0 PUSH2 0x317A PUSH2 0x1388 DUP8 PUSH2 0x4DB8 JUMP JUMPDEST PUSH2 0x3184 SWAP2 SWAP1 PUSH2 0x4DE5 JUMP JUMPDEST SWAP1 POP PUSH12 0x33B2E3C9FD0803CE8000000 DUP2 PUSH1 0x1 SLOAD PUSH2 0x31A1 SWAP2 SWAP1 PUSH2 0x4D6C JUMP JUMPDEST GT PUSH2 0x31FE JUMPI PUSH2 0x31B0 DUP2 DUP6 PUSH2 0x4DA5 JUMP JUMPDEST SWAP4 POP DUP1 PUSH1 0x1 PUSH1 0x0 DUP3 DUP3 SLOAD PUSH2 0x31C4 SWAP2 SWAP1 PUSH2 0x4D6C JUMP JUMPDEST SWAP1 SWAP2 SSTORE POP POP DUP1 ISZERO PUSH2 0x31FE JUMPI PUSH1 0x40 MLOAD PUSH1 0x0 SWAP1 DUP3 ISZERO PUSH2 0x8FC MUL SWAP1 DUP4 SWAP1 DUP4 DUP2 DUP2 DUP2 DUP6 DUP3 DUP9 CALL SWAP4 POP POP POP POP ISZERO DUP1 ISZERO PUSH2 0x31FC JUMPI RETURNDATASIZE PUSH1 0x0 DUP1 RETURNDATACOPY RETURNDATASIZE PUSH1 0x0 REVERT JUMPDEST POP JUMPDEST DUP8 MLOAD ISZERO PUSH2 0x33AB JUMPI PUSH1 0x0 PUSH3 0x186A0 PUSH2 0x3217 PUSH2 0x2710 DUP9 PUSH2 0x4DB8 JUMP JUMPDEST PUSH2 0x3221 SWAP2 SWAP1 PUSH2 0x4DE5 JUMP JUMPDEST SWAP1 POP PUSH2 0x322D DUP2 DUP7 PUSH2 0x4DA5 JUMP JUMPDEST SWAP5 POP PUSH1 0x0 DUP10 MLOAD DUP3 PUSH2 0x323E SWAP2 SWAP1 PUSH2 0x4DE5 JUMP JUMPDEST SWAP1 POP DUP1 ISZERO PUSH2 0x33A8 JUMPI PUSH1 0x0 JUMPDEST DUP11 MLOAD DUP2 LT ISZERO PUSH2 0x33A6 JUMPI PUSH1 0x0 PUSH1 0x1 PUSH1 0x1 PUSH1 0xA0 SHL SUB AND DUP12 DUP3 DUP2 MLOAD DUP2 LT PUSH2 0x326F JUMPI PUSH2 0x326F PUSH2 0x4DF9 JUMP JUMPDEST PUSH1 0x20 MUL PUSH1 0x20 ADD ADD MLOAD PUSH1 0x1 PUSH1 0x1 PUSH1 0xA0 SHL SUB AND EQ ISZERO DUP1 ISZERO PUSH2 0x32D5 JUMPI POP PUSH1 0x0 PUSH1 0x1 PUSH1 0x1 PUSH1 0xA0 SHL SUB AND PUSH1 0x9 PUSH1 0x0 DUP14 DUP5 DUP2 MLOAD DUP2 LT PUSH2 0x32AA JUMPI PUSH2 0x32AA PUSH2 0x4DF9 JUMP JUMPDEST PUSH1 0x20 SWAP1 DUP2 MUL SWAP2 SWAP1 SWAP2 ADD DUP2 ADD MLOAD PUSH1 0x1 PUSH1 0x1 PUSH1 0xA0 SHL SUB SWAP1 DUP2 AND DUP4 MSTORE SWAP1 DUP3 ADD SWAP3 SWAP1 SWAP3 MSTORE PUSH1 0x40 ADD PUSH1 0x0 KECCAK256 SLOAD AND EQ ISZERO JUMPDEST DUP1 ISZERO PUSH2 0x3303 JUMPI POP PUSH1 0x0 DUP11 DUP3 DUP2 MLOAD DUP2 LT PUSH2 0x32F0 JUMPI PUSH2 0x32F0 PUSH2 0x4DF9 JUMP JUMPDEST PUSH1 0x20 MUL PUSH1 0x20 ADD ADD MLOAD PUSH1 0x1 PUSH1 0x1 PUSH1 0x40 SHL SUB AND GT JUMPDEST ISZERO PUSH2 0x3394 JUMPI PUSH1 0x9 PUSH1 0x0 DUP13 DUP4 DUP2 MLOAD DUP2 LT PUSH2 0x331E JUMPI PUSH2 0x331E PUSH2 0x4DF9 JUMP JUMPDEST PUSH1 0x20 MUL PUSH1 0x20 ADD ADD MLOAD PUSH1 0x1 PUSH1 0x1 PUSH1 0xA0 SHL SUB AND PUSH1 0x1 PUSH1 0x1 PUSH1 0xA0 SHL SUB AND DUP2 MSTORE PUSH1 0x20 ADD SWAP1 DUP2 MSTORE PUSH1 0x20 ADD PUSH1 0x0 KECCAK256 PUSH1 0x0 SWAP1 SLOAD SWAP1 PUSH2 0x100 EXP SWAP1 DIV PUSH1 0x1 PUSH1 0x1 PUSH1 0xA0 SHL SUB AND PUSH1 0x1 PUSH1 0x1 PUSH1 0xA0 SHL SUB AND PUSH2 0x8FC DUP4 SWAP1 DUP2 ISZERO MUL SWAP1 PUSH1 0x40 MLOAD PUSH1 0x0 PUSH1 0x40 MLOAD DUP1 DUP4 SUB DUP2 DUP6 DUP9 DUP9 CALL SWAP4 POP POP POP POP ISZERO DUP1 ISZERO PUSH2 0x3392 JUMPI RETURNDATASIZE PUSH1 0x0 DUP1 RETURNDATACOPY RETURNDATASIZE PUSH1 0x0 REVERT JUMPDEST POP JUMPDEST DUP1 PUSH2 0x339E DUP2 PUSH2 0x4E0F JUMP JUMPDEST SWAP2 POP POP PUSH2 0x3249 JUMP JUMPDEST POP JUMPDEST POP POP JUMPDEST PUSH1 0x1 PUSH1 0x1 PUSH1 0xA0 SHL SUB DUP7 AND PUSH1 0x0 DUP2 DUP2 MSTORE PUSH1 0xC PUSH1 0x20 SWAP1 DUP2 MSTORE PUSH1 0x40 DUP1 DUP4 KECCAK256 PUSH1 0xB DUP4 MSTORE DUP2 DUP5 KECCAK256 DUP1 SLOAD DUP6 MSTORE SWAP1 DUP4 MSTORE DUP2 DUP5 KECCAK256 SLOAD SWAP5 DUP5 MSTORE TIMESTAMP SWAP1 SSTORE PUSH1 0x3 SWAP1 SWAP2 MSTORE SWAP1 KECCAK256 PUSH1 0x1 ADD SLOAD ISZERO PUSH2 0x3461 JUMPI PUSH1 0x1 PUSH1 0x1 PUSH1 0xA0 SHL SUB DUP8 AND PUSH1 0x0 SWAP1 DUP2 MSTORE PUSH1 0x3 PUSH1 0x20 MSTORE PUSH1 0x40 SWAP1 KECCAK256 PUSH1 0x1 ADD SLOAD PUSH2 0x341D DUP7 PUSH9 0x56BC75E2D63100000 PUSH2 0x4DB8 JUMP JUMPDEST PUSH2 0x3427 SWAP2 SWAP1 PUSH2 0x4DE5 JUMP JUMPDEST PUSH2 0x3431 SWAP1 DUP3 PUSH2 0x4D6C JUMP JUMPDEST PUSH1 0x1 PUSH1 0x1 PUSH1 0xA0 SHL SUB DUP9 AND PUSH1 0x0 SWAP1 DUP2 MSTORE PUSH1 0xC PUSH1 0x20 SWAP1 DUP2 MSTORE PUSH1 0x40 DUP1 DUP4 KECCAK256 PUSH1 0xB DUP4 MSTORE DUP2 DUP5 KECCAK256 SLOAD DUP5 MSTORE SWAP1 SWAP2 MSTORE SWAP1 KECCAK256 SSTORE PUSH2 0x34D5 JUMP JUMPDEST PUSH1 0x1 PUSH1 0x1 PUSH1 0xA0 SHL SUB DUP8 AND PUSH1 0x0 SWAP1 DUP2 MSTORE PUSH1 0xC PUSH1 0x20 SWAP1 DUP2 MSTORE PUSH1 0x40 DUP1 DUP4 KECCAK256 PUSH1 0xB DUP4 MSTORE DUP2 DUP5 KECCAK256 SLOAD DUP5 MSTORE SWAP1 SWAP2 MSTORE SWAP1 KECCAK256 DUP2 SWAP1 SSTORE PUSH2 0x3498 DUP6 DUP6 PUSH2 0x4D6C JUMP JUMPDEST PUSH1 0xD SLOAD PUSH1 0x40 MLOAD SWAP2 SWAP6 POP PUSH1 0x1 PUSH1 0x1 PUSH1 0xA0 SHL SUB AND SWAP1 DUP6 ISZERO PUSH2 0x8FC MUL SWAP1 DUP7 SWAP1 PUSH1 0x0 DUP2 DUP2 DUP2 DUP6 DUP9 DUP9 CALL SWAP4 POP POP POP POP ISZERO DUP1 ISZERO PUSH2 0x34D3 JUMPI RETURNDATASIZE PUSH1 0x0 DUP1 RETURNDATACOPY RETURNDATASIZE PUSH1 0x0 REVERT JUMPDEST POP JUMPDEST PUSH1 0x0 PUSH1 0x1 PUSH1 0x1 PUSH1 0xA0 SHL SUB DUP9 AND PUSH1 0x0 SWAP1 DUP2 MSTORE PUSH1 0x3 PUSH1 0x20 MSTORE PUSH1 0x40 SWAP1 KECCAK256 SLOAD PUSH1 0x1 PUSH1 0xA0 SHL SWAP1 DIV PUSH1 0xFF AND PUSH1 0x4 DUP2 GT ISZERO PUSH2 0x350B JUMPI PUSH2 0x350B PUSH2 0x47DD JUMP JUMPDEST SUB PUSH2 0x351B JUMPI POP POP POP POP POP POP POP POP POP JUMP JUMPDEST PUSH2 0x3526 DUP5 PUSH1 0x0 PUSH2 0x400C JUMP JUMPDEST DUP7 PUSH1 0x1 PUSH1 0x1 PUSH1 0xA0 SHL SUB AND PUSH32 0x1D6CE8F9F300ECD90371399CE90DA8388BBA45019701A1FD6D6EE08EA5800776 DUP6 TIMESTAMP DUP13 DUP13 PUSH1 0x40 MLOAD PUSH2 0x3565 SWAP5 SWAP4 SWAP3 SWAP2 SWAP1 PUSH2 0x4FA6 JUMP JUMPDEST PUSH1 0x40 MLOAD DUP1 SWAP2 SUB SWAP1 LOG2 POP POP POP POP POP POP POP POP POP JUMP JUMPDEST PUSH1 0x1 PUSH1 0x1 PUSH1 0xA0 SHL SUB DUP2 DUP2 AND PUSH1 0x0 SWAP1 DUP2 MSTORE PUSH1 0x9 PUSH1 0x20 MSTORE PUSH1 0x40 DUP2 KECCAK256 SLOAD SWAP1 SWAP2 AND ISZERO PUSH2 0x35D1 JUMPI PUSH1 0x40 MLOAD PUSH3 0x461BCD PUSH1 0xE5 SHL DUP2 MSTORE PUSH1 0x20 PUSH1 0x4 DUP3 ADD MSTORE PUSH1 0xC PUSH1 0x24 DUP3 ADD MSTORE PUSH12 0x1A5B9D985B1A590818D85B1B PUSH1 0xA2 SHL PUSH1 0x44 DUP3 ADD MSTORE PUSH1 0x64 ADD PUSH2 0xA69 JUMP JUMPDEST POP PUSH1 0x1 PUSH1 0x1 PUSH1 0xA0 SHL SUB AND PUSH1 0x0 SWAP1 DUP2 MSTORE PUSH1 0x9 PUSH1 0x20 MSTORE PUSH1 0x40 SWAP1 KECCAK256 DUP1 SLOAD PUSH1 0x1 PUSH1 0x1 PUSH1 0xA0 SHL SUB NOT AND ORIGIN OR SWAP1 SSTORE PUSH1 0x1 SWAP1 JUMP JUMPDEST PUSH1 0x0 DUP1 PUSH2 0x360B PUSH1 0x0 PUSH2 0x4340 JUMP JUMPDEST SWAP2 POP SWAP2 POP SWAP1 SWAP2 JUMP JUMPDEST PUSH1 0x0 DUP1 SLOAD PUSH1 0xFF AND PUSH2 0x3636 JUMPI PUSH1 0x40 MLOAD PUSH3 0x461BCD PUSH1 0xE5 SHL DUP2 MSTORE PUSH1 0x4 ADD PUSH2 0xA69 SWAP1 PUSH2 0x4D7F JUMP JUMPDEST ORIGIN PUSH1 0x0 PUSH1 0x1 PUSH1 0x1 PUSH1 0xA0 SHL SUB DUP5 AND PUSH1 0x0 SWAP1 DUP2 MSTORE PUSH1 0x3 PUSH1 0x20 MSTORE PUSH1 0x40 SWAP1 KECCAK256 SLOAD PUSH1 0x1 PUSH1 0xA0 SHL SWAP1 DIV PUSH1 0xFF AND PUSH1 0x4 DUP2 GT ISZERO PUSH2 0x366D JUMPI PUSH2 0x366D PUSH2 0x47DD JUMP JUMPDEST SUB PUSH2 0x36B0 JUMPI PUSH1 0x40 MLOAD PUSH3 0x461BCD PUSH1 0xE5 SHL DUP2 MSTORE PUSH1 0x20 PUSH1 0x4 DUP3 ADD MSTORE PUSH1 0x13 PUSH1 0x24 DUP3 ADD MSTORE PUSH19 0x15985B1A59185D1BDC881B9BDD08195E1A5CDD PUSH1 0x6A SHL PUSH1 0x44 DUP3 ADD MSTORE PUSH1 0x64 ADD PUSH2 0xA69 JUMP JUMPDEST PUSH1 0x1 PUSH1 0x1 PUSH1 0xA0 SHL SUB DUP1 DUP3 AND PUSH1 0x0 SWAP1 DUP2 MSTORE PUSH1 0x4 PUSH1 0x20 SWAP1 DUP2 MSTORE PUSH1 0x40 DUP1 DUP4 KECCAK256 SWAP4 DUP8 AND DUP4 MSTORE SWAP3 DUP2 MSTORE DUP3 DUP3 KECCAK256 PUSH1 0x3 SWAP1 SWAP2 MSTORE SWAP2 SWAP1 KECCAK256 DUP2 SLOAD PUSH1 0x1 DUP4 ADD SLOAD ISZERO PUSH2 0x373F JUMPI PUSH1 0x40 MLOAD PUSH3 0x461BCD PUSH1 0xE5 SHL DUP2 MSTORE PUSH1 0x20 PUSH1 0x4 DUP3 ADD MSTORE PUSH1 0x23 PUSH1 0x24 DUP3 ADD MSTORE PUSH32 0x596F752061726520616C726561647920696E20756E7374616B696E6720737461 PUSH1 0x44 DUP3 ADD MSTORE PUSH3 0x747573 PUSH1 0xE8 SHL PUSH1 0x64 DUP3 ADD MSTORE PUSH1 0x84 ADD PUSH2 0xA69 JUMP JUMPDEST PUSH1 0x0 DUP2 GT PUSH2 0x378A JUMPI PUSH1 0x40 MLOAD PUSH3 0x461BCD PUSH1 0xE5 SHL DUP2 MSTORE PUSH1 0x20 PUSH1 0x4 DUP3 ADD MSTORE PUSH1 0x18 PUSH1 0x24 DUP3 ADD MSTORE PUSH24 0x596F7520646F6E2774206861766520616E79207374616B65 PUSH1 0x40 SHL PUSH1 0x44 DUP3 ADD MSTORE PUSH1 0x64 ADD PUSH2 0xA69 JUMP JUMPDEST PUSH1 0x6 SLOAD PUSH1 0x1 EQ DUP1 ISZERO PUSH2 0x37A0 JUMPI POP PUSH2 0x37A0 DUP7 PUSH2 0x1F88 JUMP JUMPDEST DUP1 ISZERO PUSH2 0x37C5 JUMPI POP PUSH11 0x52B7D2DCC80CD2E4000000 DUP2 DUP4 PUSH1 0x1 ADD SLOAD PUSH2 0x37C3 SWAP2 SWAP1 PUSH2 0x4DA5 JUMP JUMPDEST LT JUMPDEST ISZERO PUSH2 0x3846 JUMPI PUSH1 0x40 MLOAD PUSH3 0x461BCD PUSH1 0xE5 SHL DUP2 MSTORE PUSH1 0x20 PUSH1 0x4 DUP3 ADD MSTORE PUSH1 0x45 PUSH1 0x24 DUP3 ADD MSTORE PUSH32 0x596F752063616E277420756E7374616B652C2076616C696461746F72206C6973 PUSH1 0x44 DUP3 ADD MSTORE PUSH32 0x742077696C6C20626520656D7074792061667465722074686973206F70657261 PUSH1 0x64 DUP3 ADD MSTORE PUSH5 0x74696F6E21 PUSH1 0xD8 SHL PUSH1 0x84 DUP3 ADD MSTORE PUSH1 0xA4 ADD PUSH2 0xA69 JUMP JUMPDEST PUSH1 0x9 DUP3 ADD SLOAD PUSH2 0x3857 SWAP1 PUSH1 0x1 SWAP1 PUSH2 0x4DA5 JUMP JUMPDEST DUP4 PUSH1 0x2 ADD SLOAD EQ PUSH2 0x3943 JUMPI PUSH1 0x9 DUP3 ADD DUP1 SLOAD PUSH2 0x3873 SWAP1 PUSH1 0x1 SWAP1 PUSH2 0x4DA5 JUMP JUMPDEST DUP2 SLOAD DUP2 LT PUSH2 0x3883 JUMPI PUSH2 0x3883 PUSH2 0x4DF9 JUMP JUMPDEST SWAP1 PUSH1 0x0 MSTORE PUSH1 0x20 PUSH1 0x0 KECCAK256 ADD PUSH1 0x0 SWAP1 SLOAD SWAP1 PUSH2 0x100 EXP SWAP1 DIV PUSH1 0x1 PUSH1 0x1 PUSH1 0xA0 SHL SUB AND DUP3 PUSH1 0x9 ADD DUP5 PUSH1 0x2 ADD SLOAD DUP2 SLOAD DUP2 LT PUSH2 0x38BA JUMPI PUSH2 0x38BA PUSH2 0x4DF9 JUMP JUMPDEST SWAP1 PUSH1 0x0 MSTORE PUSH1 0x20 PUSH1 0x0 KECCAK256 ADD PUSH1 0x0 PUSH2 0x100 EXP DUP2 SLOAD DUP2 PUSH1 0x1 PUSH1 0x1 PUSH1 0xA0 SHL SUB MUL NOT AND SWAP1 DUP4 PUSH1 0x1 PUSH1 0x1 PUSH1 0xA0 SHL SUB AND MUL OR SWAP1 SSTORE POP DUP3 PUSH1 0x2 ADD SLOAD PUSH1 0x4 PUSH1 0x0 DUP5 PUSH1 0x9 ADD DUP7 PUSH1 0x2 ADD SLOAD DUP2 SLOAD DUP2 LT PUSH2 0x390A JUMPI PUSH2 0x390A PUSH2 0x4DF9 JUMP JUMPDEST PUSH1 0x0 SWAP2 DUP3 MSTORE PUSH1 0x20 DUP1 DUP4 KECCAK256 SWAP1 SWAP2 ADD SLOAD PUSH1 0x1 PUSH1 0x1 PUSH1 0xA0 SHL SUB SWAP1 DUP2 AND DUP5 MSTORE DUP4 DUP3 ADD SWAP5 SWAP1 SWAP5 MSTORE PUSH1 0x40 SWAP3 DUP4 ADD DUP3 KECCAK256 SWAP4 DUP12 AND DUP3 MSTORE SWAP3 SWAP1 SWAP3 MSTORE SWAP1 KECCAK256 PUSH1 0x2 ADD SSTORE JUMPDEST DUP2 PUSH1 0x9 ADD DUP1 SLOAD DUP1 PUSH2 0x3956 JUMPI PUSH2 0x3956 PUSH2 0x5011 JUMP JUMPDEST PUSH1 0x0 DUP3 DUP2 MSTORE PUSH1 0x20 SWAP1 KECCAK256 DUP2 ADD PUSH1 0x0 NOT SWAP1 DUP2 ADD DUP1 SLOAD PUSH1 0x1 PUSH1 0x1 PUSH1 0xA0 SHL SUB NOT AND SWAP1 SSTORE ADD SWAP1 SSTORE PUSH1 0x1 DUP3 ADD SLOAD PUSH2 0x3988 SWAP1 DUP3 SWAP1 PUSH2 0x4DA5 JUMP JUMPDEST PUSH1 0x1 DUP1 DUP5 ADD SWAP2 SWAP1 SWAP2 SSTORE NUMBER SWAP1 DUP5 ADD SSTORE PUSH1 0x0 PUSH1 0x2 DUP5 ADD SSTORE PUSH1 0x7 SLOAD PUSH2 0x39AB SWAP1 DUP3 SWAP1 PUSH2 0x4DA5 JUMP JUMPDEST PUSH1 0x7 SSTORE PUSH1 0x1 DUP3 ADD SLOAD PUSH11 0x52B7D2DCC80CD2E4000000 GT DUP1 ISZERO PUSH2 0x3A00 JUMPI POP PUSH1 0x4 PUSH1 0x1 PUSH1 0x1 PUSH1 0xA0 SHL SUB DUP8 AND PUSH1 0x0 SWAP1 DUP2 MSTORE PUSH1 0x3 PUSH1 0x20 MSTORE PUSH1 0x40 SWAP1 KECCAK256 SLOAD PUSH1 0x1 PUSH1 0xA0 SHL SWAP1 DIV PUSH1 0xFF AND PUSH1 0x4 DUP2 GT ISZERO PUSH2 0x39FD JUMPI PUSH2 0x39FD PUSH2 0x47DD JUMP JUMPDEST EQ ISZERO JUMPDEST ISZERO PUSH2 0x3A1F JUMPI DUP2 SLOAD PUSH1 0xFF PUSH1 0xA0 SHL NOT AND PUSH1 0x3 PUSH1 0xA0 SHL OR DUP3 SSTORE PUSH2 0x3A1F DUP7 PUSH2 0x4458 JUMP JUMPDEST PUSH2 0x3A28 DUP7 PUSH2 0x1788 JUMP JUMPDEST POP PUSH1 0x1 PUSH1 0x1 PUSH1 0xA0 SHL SUB DUP5 DUP2 AND PUSH1 0x0 DUP2 DUP2 MSTORE PUSH1 0xA PUSH1 0x20 SWAP1 DUP2 MSTORE PUSH1 0x40 DUP1 DUP4 KECCAK256 SWAP5 DUP12 AND DUP1 DUP5 MSTORE SWAP5 DUP3 MSTORE DUP1 DUP4 KECCAK256 SWAP3 SWAP1 SWAP3 SSTORE DUP2 MLOAD DUP6 DUP2 MSTORE TIMESTAMP SWAP2 DUP2 ADD SWAP2 SWAP1 SWAP2 MSTORE PUSH32 0x449002AE18E748D69A55F38514400D64F966492E593E32D6E9B8B24DB98A0BC1 SWAP2 ADD PUSH1 0x40 MLOAD DUP1 SWAP2 SUB SWAP1 LOG3 POP PUSH1 0x1 SWAP6 SWAP5 POP POP POP POP POP JUMP JUMPDEST PUSH2 0x3AA1 PUSH2 0x3F60 JUMP JUMPDEST PUSH1 0x1 PUSH1 0x1 PUSH1 0xA0 SHL SUB DUP2 AND PUSH2 0x3B06 JUMPI PUSH1 0x40 MLOAD PUSH3 0x461BCD PUSH1 0xE5 SHL DUP2 MSTORE PUSH1 0x20 PUSH1 0x4 DUP3 ADD MSTORE PUSH1 0x26 PUSH1 0x24 DUP3 ADD MSTORE PUSH32 0x4F776E61626C653A206E6577206F776E657220697320746865207A65726F2061 PUSH1 0x44 DUP3 ADD MSTORE PUSH6 0x646472657373 PUSH1 0xD0 SHL PUSH1 0x64 DUP3 ADD MSTORE PUSH1 0x84 ADD PUSH2 0xA69 JUMP JUMPDEST PUSH2 0x1590 DUP2 PUSH2 0x3FBA JUMP JUMPDEST PUSH1 0x0 JUMPDEST PUSH1 0x6 SLOAD DUP2 LT ISZERO PUSH2 0x3B6A JUMPI DUP3 PUSH1 0x1 PUSH1 0x1 PUSH1 0xA0 SHL SUB AND PUSH1 0x6 DUP3 DUP2 SLOAD DUP2 LT PUSH2 0x3B39 JUMPI PUSH2 0x3B39 PUSH2 0x4DF9 JUMP JUMPDEST PUSH1 0x0 SWAP2 DUP3 MSTORE PUSH1 0x20 SWAP1 SWAP2 KECCAK256 ADD SLOAD PUSH1 0x1 PUSH1 0x1 PUSH1 0xA0 SHL SUB AND SUB PUSH2 0x3B58 JUMPI POP POP POP JUMP JUMPDEST DUP1 PUSH2 0x3B62 DUP2 PUSH2 0x4E0F JUMP JUMPDEST SWAP2 POP POP PUSH2 0x3B12 JUMP JUMPDEST POP PUSH1 0x6 SLOAD PUSH1 0x15 GT ISZERO PUSH2 0x3BF4 JUMPI PUSH1 0x6 DUP1 SLOAD PUSH1 0x1 DUP2 ADD DUP3 SSTORE PUSH1 0x0 SWAP2 SWAP1 SWAP2 MSTORE PUSH32 0xF652222313E28459528D920B65115C16C04F3EFC82AAEDC97BE59F3F377C0D3F ADD DUP1 SLOAD PUSH1 0x1 PUSH1 0x1 PUSH1 0xA0 SHL SUB NOT AND PUSH1 0x1 PUSH1 0x1 PUSH1 0xA0 SHL SUB DUP5 AND SWAP1 DUP2 OR SWAP1 SWAP2 SSTORE PUSH1 0x40 MLOAD TIMESTAMP DUP2 MSTORE PUSH32 0x1E3310AD6891B30E03874EC3D1422A6386C5DA63D9FAF595F5D99EEAF443B99A SWAP1 PUSH1 0x20 ADD PUSH2 0x14CB JUMP JUMPDEST PUSH1 0x0 PUSH1 0x3 PUSH1 0x0 PUSH1 0x6 PUSH1 0x0 DUP2 SLOAD DUP2 LT PUSH2 0x3C0E JUMPI PUSH2 0x3C0E PUSH2 0x4DF9 JUMP JUMPDEST PUSH1 0x0 SWAP2 DUP3 MSTORE PUSH1 0x20 DUP1 DUP4 KECCAK256 SWAP1 SWAP2 ADD SLOAD PUSH1 0x1 PUSH1 0x1 PUSH1 0xA0 SHL SUB AND DUP4 MSTORE DUP3 ADD SWAP3 SWAP1 SWAP3 MSTORE PUSH1 0x40 ADD DUP2 KECCAK256 PUSH1 0x1 SWAP1 DUP2 ADD SLOAD SWAP3 POP JUMPDEST PUSH1 0x6 SLOAD DUP2 LT ISZERO PUSH2 0x3CE2 JUMPI DUP3 PUSH1 0x3 PUSH1 0x0 PUSH1 0x6 DUP5 DUP2 SLOAD DUP2 LT PUSH2 0x3C5D JUMPI PUSH2 0x3C5D PUSH2 0x4DF9 JUMP JUMPDEST PUSH1 0x0 SWAP2 DUP3 MSTORE PUSH1 0x20 DUP1 DUP4 KECCAK256 SWAP1 SWAP2 ADD SLOAD PUSH1 0x1 PUSH1 0x1 PUSH1 0xA0 SHL SUB AND DUP4 MSTORE DUP3 ADD SWAP3 SWAP1 SWAP3 MSTORE PUSH1 0x40 ADD SWAP1 KECCAK256 PUSH1 0x1 ADD SLOAD LT ISZERO PUSH2 0x3CD0 JUMPI PUSH1 0x3 PUSH1 0x0 PUSH1 0x6 DUP4 DUP2 SLOAD DUP2 LT PUSH2 0x3CA2 JUMPI PUSH2 0x3CA2 PUSH2 0x4DF9 JUMP JUMPDEST PUSH1 0x0 SWAP2 DUP3 MSTORE PUSH1 0x20 DUP1 DUP4 KECCAK256 SWAP1 SWAP2 ADD SLOAD PUSH1 0x1 PUSH1 0x1 PUSH1 0xA0 SHL SUB AND DUP4 MSTORE DUP3 ADD SWAP3 SWAP1 SWAP3 MSTORE PUSH1 0x40 ADD SWAP1 KECCAK256 PUSH1 0x1 ADD SLOAD SWAP3 POP SWAP1 POP DUP1 JUMPDEST DUP1 PUSH2 0x3CDA DUP2 PUSH2 0x4E0F JUMP JUMPDEST SWAP2 POP POP PUSH2 0x3C3B JUMP JUMPDEST POP DUP2 DUP4 GT PUSH2 0x3CF0 JUMPI POP POP POP POP JUMP JUMPDEST DUP4 PUSH1 0x1 PUSH1 0x1 PUSH1 0xA0 SHL SUB AND PUSH32 0x1E3310AD6891B30E03874EC3D1422A6386C5DA63D9FAF595F5D99EEAF443B99A TIMESTAMP PUSH1 0x40 MLOAD PUSH2 0x3D2B SWAP2 DUP2 MSTORE PUSH1 0x20 ADD SWAP1 JUMP JUMPDEST PUSH1 0x40 MLOAD DUP1 SWAP2 SUB SWAP1 LOG2 PUSH1 0x6 DUP2 DUP2 SLOAD DUP2 LT PUSH2 0x3D46 JUMPI PUSH2 0x3D46 PUSH2 0x4DF9 JUMP JUMPDEST PUSH1 0x0 SWAP2 DUP3 MSTORE PUSH1 0x20 SWAP2 DUP3 SWAP1 KECCAK256 ADD SLOAD PUSH1 0x40 MLOAD TIMESTAMP DUP2 MSTORE PUSH1 0x1 PUSH1 0x1 PUSH1 0xA0 SHL SUB SWAP1 SWAP2 AND SWAP2 PUSH32 0x7521E44559C870C316E84E60BC4785D9C034A8AB1D6ACDCE8134AC03F946C6ED SWAP2 ADD PUSH1 0x40 MLOAD DUP1 SWAP2 SUB SWAP1 LOG2 DUP4 PUSH1 0x6 DUP3 DUP2 SLOAD DUP2 LT PUSH2 0x3DA4 JUMPI PUSH2 0x3DA4 PUSH2 0x4DF9 JUMP JUMPDEST SWAP1 PUSH1 0x0 MSTORE PUSH1 0x20 PUSH1 0x0 KECCAK256 ADD PUSH1 0x0 PUSH2 0x100 EXP DUP2 SLOAD DUP2 PUSH1 0x1 PUSH1 0x1 PUSH1 0xA0 SHL SUB MUL NOT AND SWAP1 DUP4 PUSH1 0x1 PUSH1 0x1 PUSH1 0xA0 SHL SUB AND MUL OR SWAP1 SSTORE POP POP POP POP POP JUMP JUMPDEST PUSH1 0x0 PUSH1 0x1 PUSH1 0x1 PUSH1 0xA0 SHL SUB DUP3 AND PUSH1 0x0 SWAP1 DUP2 MSTORE PUSH1 0x3 PUSH1 0x20 MSTORE PUSH1 0x40 SWAP1 KECCAK256 SLOAD PUSH1 0x1 PUSH1 0xA0 SHL SWAP1 DIV PUSH1 0xFF AND PUSH1 0x4 DUP2 GT ISZERO PUSH2 0x3E0E JUMPI PUSH2 0x3E0E PUSH2 0x47DD JUMP JUMPDEST EQ DUP1 PUSH2 0x3E1D JUMPI POP PUSH1 0x5 SLOAD PUSH1 0x1 LT ISZERO JUMPDEST ISZERO PUSH2 0x3E25 JUMPI POP JUMP JUMPDEST PUSH1 0x1 PUSH1 0x1 PUSH1 0xA0 SHL SUB DUP2 AND PUSH1 0x0 SWAP1 DUP2 MSTORE PUSH1 0x3 PUSH1 0x20 MSTORE PUSH1 0x40 SWAP1 KECCAK256 PUSH1 0x7 ADD SLOAD DUP1 ISZERO PUSH2 0x3EB0 JUMPI PUSH2 0x3E51 DUP2 DUP4 PUSH2 0x400C JUMP JUMPDEST DUP1 PUSH1 0x8 SLOAD PUSH2 0x3E5F SWAP2 SWAP1 PUSH2 0x4D6C JUMP JUMPDEST PUSH1 0x8 SWAP1 DUP2 SSTORE PUSH1 0x1 PUSH1 0x1 PUSH1 0xA0 SHL SUB DUP4 AND PUSH1 0x0 SWAP1 DUP2 MSTORE PUSH1 0x3 PUSH1 0x20 MSTORE PUSH1 0x40 SWAP1 KECCAK256 ADD SLOAD PUSH2 0x3E89 SWAP1 DUP3 SWAP1 PUSH2 0x4D6C JUMP JUMPDEST PUSH1 0x1 PUSH1 0x1 PUSH1 0xA0 SHL SUB DUP4 AND PUSH1 0x0 SWAP1 DUP2 MSTORE PUSH1 0x3 PUSH1 0x20 MSTORE PUSH1 0x40 DUP2 KECCAK256 PUSH1 0x8 DUP2 ADD SWAP3 SWAP1 SWAP3 SSTORE PUSH1 0x7 SWAP1 SWAP2 ADD SSTORE JUMPDEST PUSH1 0x40 DUP1 MLOAD DUP3 DUP2 MSTORE TIMESTAMP PUSH1 0x20 DUP3 ADD MSTORE PUSH1 0x1 PUSH1 0x1 PUSH1 0xA0 SHL SUB DUP5 AND SWAP2 PUSH32 0xE294E9D73F8EEE23E21B2E1567960625A6B5D339CB127B55D0D09473A9951235 SWAP2 ADD PUSH2 0x14CB JUMP JUMPDEST PUSH1 0x0 PUSH1 0x1 PUSH1 0x1 PUSH1 0xA0 SHL SUB DUP3 AND PUSH1 0x0 SWAP1 DUP2 MSTORE PUSH1 0x3 PUSH1 0x20 MSTORE PUSH1 0x40 SWAP1 KECCAK256 SLOAD PUSH1 0x1 PUSH1 0xA0 SHL SWAP1 DIV PUSH1 0xFF AND PUSH1 0x4 DUP2 GT ISZERO PUSH2 0x3F26 JUMPI PUSH2 0x3F26 PUSH2 0x47DD JUMP JUMPDEST SUB PUSH2 0x3F2E JUMPI POP JUMP JUMPDEST PUSH1 0x1 PUSH1 0x1 PUSH1 0xA0 SHL SUB DUP2 AND PUSH1 0x0 SWAP1 DUP2 MSTORE PUSH1 0x3 PUSH1 0x20 MSTORE PUSH1 0x40 SWAP1 KECCAK256 DUP1 SLOAD PUSH1 0xFF PUSH1 0xA0 SHL NOT AND PUSH1 0x1 PUSH1 0xA2 SHL OR SWAP1 SSTORE PUSH2 0x1590 DUP2 PUSH2 0x4458 JUMP JUMPDEST PUSH1 0x2 SLOAD PUSH1 0x1 PUSH1 0x1 PUSH1 0xA0 SHL SUB AND CALLER EQ PUSH2 0x1786 JUMPI PUSH1 0x40 MLOAD PUSH3 0x461BCD PUSH1 0xE5 SHL DUP2 MSTORE PUSH1 0x20 PUSH1 0x4 DUP3 ADD DUP2 SWAP1 MSTORE PUSH1 0x24 DUP3 ADD MSTORE PUSH32 0x4F776E61626C653A2063616C6C6572206973206E6F7420746865206F776E6572 PUSH1 0x44 DUP3 ADD MSTORE PUSH1 0x64 ADD PUSH2 0xA69 JUMP JUMPDEST PUSH1 0x2 DUP1 SLOAD PUSH1 0x1 PUSH1 0x1 PUSH1 0xA0 SHL SUB DUP4 DUP2 AND PUSH1 0x1 PUSH1 0x1 PUSH1 0xA0 SHL SUB NOT DUP4 AND DUP2 OR SWAP1 SWAP4 SSTORE PUSH1 0x40 MLOAD SWAP2 AND SWAP2 SWAP1 DUP3 SWAP1 PUSH32 0x8BE0079C531659141344CD1FD0A4F28419497F9722A3DAAFE3B4186F6B6457E0 SWAP1 PUSH1 0x0 SWAP1 LOG3 POP POP JUMP JUMPDEST DUP2 PUSH1 0x0 SUB PUSH2 0x4018 JUMPI POP POP JUMP JUMPDEST PUSH1 0x0 DUP1 PUSH2 0x4024 DUP4 PUSH2 0x4340 JUMP JUMPDEST SWAP1 SWAP3 POP SWAP1 POP PUSH1 0x0 DUP2 SWAP1 SUB PUSH2 0x4038 JUMPI POP POP POP POP JUMP JUMPDEST PUSH1 0x0 DUP1 DUP4 PUSH1 0x0 SUB PUSH2 0x41C0 JUMPI PUSH1 0x0 PUSH2 0x404F DUP5 DUP9 PUSH2 0x4DE5 JUMP JUMPDEST SWAP1 POP PUSH2 0x405B DUP5 DUP3 PUSH2 0x4DB8 JUMP JUMPDEST PUSH2 0x4065 SWAP1 DUP9 PUSH2 0x4DA5 JUMP JUMPDEST SWAP3 POP PUSH1 0x0 JUMPDEST PUSH1 0x5 SLOAD DUP2 LT ISZERO PUSH2 0x4155 JUMPI PUSH1 0x0 PUSH1 0x5 DUP3 DUP2 SLOAD DUP2 LT PUSH2 0x4089 JUMPI PUSH2 0x4089 PUSH2 0x4DF9 JUMP JUMPDEST PUSH1 0x0 SWAP2 DUP3 MSTORE PUSH1 0x20 SWAP1 SWAP2 KECCAK256 ADD SLOAD PUSH1 0x1 PUSH1 0x1 PUSH1 0xA0 SHL SUB AND SWAP1 POP PUSH1 0x4 PUSH1 0x1 PUSH1 0x1 PUSH1 0xA0 SHL SUB DUP3 AND PUSH1 0x0 SWAP1 DUP2 MSTORE PUSH1 0x3 PUSH1 0x20 MSTORE PUSH1 0x40 SWAP1 KECCAK256 SLOAD PUSH1 0x1 PUSH1 0xA0 SHL SWAP1 DIV PUSH1 0xFF AND PUSH1 0x4 DUP2 GT ISZERO PUSH2 0x40D6 JUMPI PUSH2 0x40D6 PUSH2 0x47DD JUMP JUMPDEST EQ ISZERO DUP1 ISZERO PUSH2 0x40F6 JUMPI POP DUP8 PUSH1 0x1 PUSH1 0x1 PUSH1 0xA0 SHL SUB AND DUP2 PUSH1 0x1 PUSH1 0x1 PUSH1 0xA0 SHL SUB AND EQ ISZERO JUMPDEST ISZERO PUSH2 0x4142 JUMPI PUSH1 0x1 PUSH1 0x1 PUSH1 0xA0 SHL SUB DUP2 AND PUSH1 0x0 SWAP1 DUP2 MSTORE PUSH1 0x3 PUSH1 0x20 MSTORE PUSH1 0x40 SWAP1 KECCAK256 PUSH1 0x7 ADD SLOAD PUSH2 0x4122 SWAP1 DUP5 SWAP1 PUSH2 0x4D6C JUMP JUMPDEST PUSH1 0x1 PUSH1 0x1 PUSH1 0xA0 SHL SUB DUP3 AND PUSH1 0x0 SWAP1 DUP2 MSTORE PUSH1 0x3 PUSH1 0x20 MSTORE PUSH1 0x40 SWAP1 KECCAK256 PUSH1 0x7 ADD SSTORE SWAP3 POP DUP3 JUMPDEST POP DUP1 PUSH2 0x414D DUP2 PUSH2 0x4E0F JUMP JUMPDEST SWAP2 POP POP PUSH2 0x406A JUMP JUMPDEST POP PUSH1 0x0 DUP4 GT DUP1 ISZERO PUSH2 0x416E JUMPI POP PUSH1 0x1 PUSH1 0x1 PUSH1 0xA0 SHL SUB DUP3 AND ISZERO ISZERO JUMPDEST ISZERO PUSH2 0x41B7 JUMPI PUSH1 0x1 PUSH1 0x1 PUSH1 0xA0 SHL SUB DUP3 AND PUSH1 0x0 SWAP1 DUP2 MSTORE PUSH1 0x3 PUSH1 0x20 MSTORE PUSH1 0x40 SWAP1 KECCAK256 PUSH1 0x7 ADD SLOAD PUSH2 0x419A SWAP1 DUP5 SWAP1 PUSH2 0x4D6C JUMP JUMPDEST PUSH1 0x1 PUSH1 0x1 PUSH1 0xA0 SHL SUB DUP4 AND PUSH1 0x0 SWAP1 DUP2 MSTORE PUSH1 0x3 PUSH1 0x20 MSTORE PUSH1 0x40 SWAP1 KECCAK256 PUSH1 0x7 ADD SSTORE JUMPDEST POP POP POP POP POP POP POP JUMP JUMPDEST PUSH1 0x0 DUP1 JUMPDEST PUSH1 0x5 SLOAD DUP2 LT ISZERO PUSH2 0x42F2 JUMPI PUSH1 0x0 PUSH1 0x5 DUP3 DUP2 SLOAD DUP2 LT PUSH2 0x41E3 JUMPI PUSH2 0x41E3 PUSH2 0x4DF9 JUMP JUMPDEST PUSH1 0x0 SWAP2 DUP3 MSTORE PUSH1 0x20 SWAP1 SWAP2 KECCAK256 ADD SLOAD PUSH1 0x1 PUSH1 0x1 PUSH1 0xA0 SHL SUB AND SWAP1 POP PUSH1 0x4 PUSH1 0x1 PUSH1 0x1 PUSH1 0xA0 SHL SUB DUP3 AND PUSH1 0x0 SWAP1 DUP2 MSTORE PUSH1 0x3 PUSH1 0x20 MSTORE PUSH1 0x40 SWAP1 KECCAK256 SLOAD PUSH1 0x1 PUSH1 0xA0 SHL SWAP1 DIV PUSH1 0xFF AND PUSH1 0x4 DUP2 GT ISZERO PUSH2 0x4230 JUMPI PUSH2 0x4230 PUSH2 0x47DD JUMP JUMPDEST EQ ISZERO DUP1 ISZERO PUSH2 0x4250 JUMPI POP DUP8 PUSH1 0x1 PUSH1 0x1 PUSH1 0xA0 SHL SUB AND DUP2 PUSH1 0x1 PUSH1 0x1 PUSH1 0xA0 SHL SUB AND EQ ISZERO JUMPDEST ISZERO PUSH2 0x42DF JUMPI PUSH1 0x1 PUSH1 0x1 PUSH1 0xA0 SHL SUB DUP2 AND PUSH1 0x0 SWAP1 DUP2 MSTORE PUSH1 0x3 PUSH1 0x20 MSTORE PUSH1 0x40 DUP2 KECCAK256 PUSH1 0x1 ADD SLOAD DUP9 SWAP1 PUSH2 0x427D SWAP1 DUP13 PUSH2 0x4DB8 JUMP JUMPDEST PUSH2 0x4287 SWAP2 SWAP1 PUSH2 0x4DE5 JUMP JUMPDEST SWAP1 POP PUSH2 0x4293 DUP2 DUP6 PUSH2 0x4D6C JUMP JUMPDEST PUSH1 0x1 PUSH1 0x1 PUSH1 0xA0 SHL SUB DUP4 AND PUSH1 0x0 SWAP1 DUP2 MSTORE PUSH1 0x3 PUSH1 0x20 MSTORE PUSH1 0x40 SWAP1 KECCAK256 PUSH1 0x7 ADD SLOAD SWAP3 SWAP6 POP SWAP4 POP DUP5 SWAP2 PUSH2 0x42C1 SWAP1 DUP3 SWAP1 PUSH2 0x4D6C JUMP JUMPDEST PUSH1 0x1 PUSH1 0x1 PUSH1 0xA0 SHL SUB DUP4 AND PUSH1 0x0 SWAP1 DUP2 MSTORE PUSH1 0x3 PUSH1 0x20 MSTORE PUSH1 0x40 SWAP1 KECCAK256 PUSH1 0x7 ADD SSTORE POP JUMPDEST POP DUP1 PUSH2 0x42EA DUP2 PUSH2 0x4E0F JUMP JUMPDEST SWAP2 POP POP PUSH2 0x41C4 JUMP JUMPDEST POP PUSH2 0x42FD DUP2 DUP9 PUSH2 0x4DA5 JUMP JUMPDEST SWAP3 POP PUSH1 0x0 DUP4 GT DUP1 ISZERO PUSH2 0x416E JUMPI POP PUSH1 0x1 PUSH1 0x1 PUSH1 0xA0 SHL SUB DUP3 AND ISZERO PUSH2 0x41B7 JUMPI PUSH1 0x1 PUSH1 0x1 PUSH1 0xA0 SHL SUB DUP3 AND PUSH1 0x0 SWAP1 DUP2 MSTORE PUSH1 0x3 PUSH1 0x20 MSTORE PUSH1 0x40 SWAP1 KECCAK256 PUSH1 0x7 ADD SLOAD PUSH2 0x419A SWAP1 DUP5 SWAP1 PUSH2 0x4D6C JUMP JUMPDEST PUSH1 0x0 DUP1 PUSH1 0x0 JUMPDEST PUSH1 0x5 SLOAD DUP2 LT ISZERO PUSH2 0x4452 JUMPI PUSH1 0x4 PUSH1 0x3 PUSH1 0x0 PUSH1 0x5 DUP5 DUP2 SLOAD DUP2 LT PUSH2 0x4369 JUMPI PUSH2 0x4369 PUSH2 0x4DF9 JUMP JUMPDEST PUSH1 0x0 SWAP2 DUP3 MSTORE PUSH1 0x20 DUP1 DUP4 KECCAK256 SWAP1 SWAP2 ADD SLOAD PUSH1 0x1 PUSH1 0x1 PUSH1 0xA0 SHL SUB AND DUP4 MSTORE DUP3 ADD SWAP3 SWAP1 SWAP3 MSTORE PUSH1 0x40 ADD SWAP1 KECCAK256 SLOAD PUSH1 0xFF PUSH1 0x1 PUSH1 0xA0 SHL SWAP1 SWAP2 DIV AND PUSH1 0x4 DUP2 GT ISZERO PUSH2 0x43AA JUMPI PUSH2 0x43AA PUSH2 0x47DD JUMP JUMPDEST EQ ISZERO DUP1 ISZERO PUSH2 0x43E2 JUMPI POP PUSH1 0x5 DUP2 DUP2 SLOAD DUP2 LT PUSH2 0x43C6 JUMPI PUSH2 0x43C6 PUSH2 0x4DF9 JUMP JUMPDEST PUSH1 0x0 SWAP2 DUP3 MSTORE PUSH1 0x20 SWAP1 SWAP2 KECCAK256 ADD SLOAD PUSH1 0x1 PUSH1 0x1 PUSH1 0xA0 SHL SUB DUP6 DUP2 AND SWAP2 AND EQ ISZERO JUMPDEST ISZERO PUSH2 0x4440 JUMPI PUSH1 0x3 PUSH1 0x0 PUSH1 0x5 DUP4 DUP2 SLOAD DUP2 LT PUSH2 0x43FE JUMPI PUSH2 0x43FE PUSH2 0x4DF9 JUMP JUMPDEST PUSH1 0x0 SWAP2 DUP3 MSTORE PUSH1 0x20 DUP1 DUP4 KECCAK256 SWAP1 SWAP2 ADD SLOAD PUSH1 0x1 PUSH1 0x1 PUSH1 0xA0 SHL SUB AND DUP4 MSTORE DUP3 ADD SWAP3 SWAP1 SWAP3 MSTORE PUSH1 0x40 ADD SWAP1 KECCAK256 PUSH1 0x1 ADD SLOAD PUSH2 0x4430 SWAP1 DUP5 PUSH2 0x4D6C JUMP JUMPDEST SWAP3 POP DUP2 PUSH2 0x443C DUP2 PUSH2 0x4E0F JUMP JUMPDEST SWAP3 POP POP JUMPDEST DUP1 PUSH2 0x444A DUP2 PUSH2 0x4E0F JUMP JUMPDEST SWAP2 POP POP PUSH2 0x4346 JUMP JUMPDEST POP SWAP2 POP SWAP2 JUMP JUMPDEST PUSH1 0x0 JUMPDEST PUSH1 0x6 SLOAD DUP2 LT DUP1 ISZERO PUSH2 0x446E JUMPI POP PUSH1 0x6 SLOAD PUSH1 0x1 LT JUMPDEST ISZERO PUSH2 0x14D4 JUMPI PUSH1 0x6 DUP2 DUP2 SLOAD DUP2 LT PUSH2 0x4486 JUMPI PUSH2 0x4486 PUSH2 0x4DF9 JUMP JUMPDEST PUSH1 0x0 SWAP2 DUP3 MSTORE PUSH1 0x20 SWAP1 SWAP2 KECCAK256 ADD SLOAD PUSH1 0x1 PUSH1 0x1 PUSH1 0xA0 SHL SUB SWAP1 DUP2 AND SWAP1 DUP4 AND SUB PUSH2 0x45A5 JUMPI PUSH1 0x6 SLOAD PUSH2 0x44B4 SWAP1 PUSH1 0x1 SWAP1 PUSH2 0x4DA5 JUMP JUMPDEST DUP2 EQ PUSH2 0x4535 JUMPI PUSH1 0x6 DUP1 SLOAD PUSH2 0x44CA SWAP1 PUSH1 0x1 SWAP1 PUSH2 0x4DA5 JUMP JUMPDEST DUP2 SLOAD DUP2 LT PUSH2 0x44DA JUMPI PUSH2 0x44DA PUSH2 0x4DF9 JUMP JUMPDEST PUSH1 0x0 SWAP2 DUP3 MSTORE PUSH1 0x20 SWAP1 SWAP2 KECCAK256 ADD SLOAD PUSH1 0x6 DUP1 SLOAD PUSH1 0x1 PUSH1 0x1 PUSH1 0xA0 SHL SUB SWAP1 SWAP3 AND SWAP2 DUP4 SWAP1 DUP2 LT PUSH2 0x4506 JUMPI PUSH2 0x4506 PUSH2 0x4DF9 JUMP JUMPDEST SWAP1 PUSH1 0x0 MSTORE PUSH1 0x20 PUSH1 0x0 KECCAK256 ADD PUSH1 0x0 PUSH2 0x100 EXP DUP2 SLOAD DUP2 PUSH1 0x1 PUSH1 0x1 PUSH1 0xA0 SHL SUB MUL NOT AND SWAP1 DUP4 PUSH1 0x1 PUSH1 0x1 PUSH1 0xA0 SHL SUB AND MUL OR SWAP1 SSTORE POP JUMPDEST PUSH1 0x6 DUP1 SLOAD DUP1 PUSH2 0x4546 JUMPI PUSH2 0x4546 PUSH2 0x5011 JUMP JUMPDEST PUSH1 0x0 DUP3 DUP2 MSTORE PUSH1 0x20 SWAP1 KECCAK256 DUP2 ADD PUSH1 0x0 NOT SWAP1 DUP2 ADD DUP1 SLOAD PUSH1 0x1 PUSH1 0x1 PUSH1 0xA0 SHL SUB NOT AND SWAP1 SSTORE ADD SWAP1 SSTORE PUSH1 0x40 MLOAD PUSH1 0x1 PUSH1 0x1 PUSH1 0xA0 SHL SUB DUP4 AND SWAP1 PUSH32 0x7521E44559C870C316E84E60BC4785D9C034A8AB1D6ACDCE8134AC03F946C6ED SWAP1 PUSH2 0x14CB SWAP1 TIMESTAMP DUP2 MSTORE PUSH1 0x20 ADD SWAP1 JUMP JUMPDEST DUP1 PUSH2 0x45AF DUP2 PUSH2 0x4E0F JUMP JUMPDEST SWAP2 POP POP PUSH2 0x445B JUMP JUMPDEST DUP3 DUP1 SLOAD DUP3 DUP3 SSTORE SWAP1 PUSH1 0x0 MSTORE PUSH1 0x20 PUSH1 0x0 KECCAK256 SWAP1 DUP2 ADD SWAP3 DUP3 ISZERO PUSH2 0x460C JUMPI SWAP2 PUSH1 0x20 MUL DUP3 ADD JUMPDEST DUP3 DUP2 GT ISZERO PUSH2 0x460C JUMPI DUP3 MLOAD DUP3 SLOAD PUSH1 0x1 PUSH1 0x1 PUSH1 0xA0 SHL SUB NOT AND PUSH1 0x1 PUSH1 0x1 PUSH1 0xA0 SHL SUB SWAP1 SWAP2 AND OR DUP3 SSTORE PUSH1 0x20 SWAP1 SWAP3 ADD SWAP2 PUSH1 0x1 SWAP1 SWAP2 ADD SWAP1 PUSH2 0x45D7 JUMP JUMPDEST POP PUSH2 0x4618 SWAP3 SWAP2 POP PUSH2 0x461C JUMP JUMPDEST POP SWAP1 JUMP JUMPDEST JUMPDEST DUP1 DUP3 GT ISZERO PUSH2 0x4618 JUMPI PUSH1 0x0 DUP2 SSTORE PUSH1 0x1 ADD PUSH2 0x461D JUMP JUMPDEST PUSH1 0x1 PUSH1 0x1 PUSH1 0xA0 SHL SUB DUP2 AND DUP2 EQ PUSH2 0x1590 JUMPI PUSH1 0x0 DUP1 REVERT JUMPDEST PUSH1 0x0 PUSH1 0x20 DUP3 DUP5 SUB SLT ISZERO PUSH2 0x4658 JUMPI PUSH1 0x0 DUP1 REVERT JUMPDEST DUP2 CALLDATALOAD PUSH2 0x4663 DUP2 PUSH2 0x4631 JUMP JUMPDEST SWAP4 SWAP3 POP POP POP JUMP JUMPDEST PUSH1 0x0 DUP1 PUSH1 0x40 DUP4 DUP6 SUB SLT ISZERO PUSH2 0x467D JUMPI PUSH1 0x0 DUP1 REVERT JUMPDEST DUP3 CALLDATALOAD PUSH2 0x4688 DUP2 PUSH2 0x4631 JUMP JUMPDEST SWAP2 POP PUSH1 0x20 DUP4 ADD CALLDATALOAD PUSH2 0x4698 DUP2 PUSH2 0x4631 JUMP JUMPDEST DUP1 SWAP2 POP POP SWAP3 POP SWAP3 SWAP1 POP JUMP JUMPDEST PUSH1 0x0 PUSH1 0x20 DUP3 DUP5 SUB SLT ISZERO PUSH2 0x46B5 JUMPI PUSH1 0x0 DUP1 REVERT JUMPDEST POP CALLDATALOAD SWAP2 SWAP1 POP JUMP JUMPDEST PUSH4 0x4E487B71 PUSH1 0xE0 SHL PUSH1 0x0 MSTORE PUSH1 0x41 PUSH1 0x4 MSTORE PUSH1 0x24 PUSH1 0x0 REVERT JUMPDEST PUSH1 0x40 MLOAD PUSH1 0x1F DUP3 ADD PUSH1 0x1F NOT AND DUP2 ADD PUSH1 0x1 PUSH1 0x1 PUSH1 0x40 SHL SUB DUP2 GT DUP3 DUP3 LT OR ISZERO PUSH2 0x46FA JUMPI PUSH2 0x46FA PUSH2 0x46BC JUMP JUMPDEST PUSH1 0x40 MSTORE SWAP2 SWAP1 POP JUMP JUMPDEST PUSH1 0x0 PUSH1 0x1 PUSH1 0x1 PUSH1 0x40 SHL SUB DUP3 GT ISZERO PUSH2 0x471B JUMPI PUSH2 0x471B PUSH2 0x46BC JUMP JUMPDEST POP PUSH1 0x5 SHL PUSH1 0x20 ADD SWAP1 JUMP JUMPDEST PUSH1 0x0 DUP3 PUSH1 0x1F DUP4 ADD SLT PUSH2 0x4736 JUMPI PUSH1 0x0 DUP1 REVERT JUMPDEST DUP2 CALLDATALOAD PUSH1 0x20 PUSH2 0x474B PUSH2 0x4746 DUP4 PUSH2 0x4702 JUMP JUMPDEST PUSH2 0x46D2 JUMP JUMPDEST DUP3 DUP2 MSTORE PUSH1 0x5 SWAP3 SWAP1 SWAP3 SHL DUP5 ADD DUP2 ADD SWAP2 DUP2 DUP2 ADD SWAP1 DUP7 DUP5 GT ISZERO PUSH2 0x476A JUMPI PUSH1 0x0 DUP1 REVERT JUMPDEST DUP3 DUP7 ADD JUMPDEST DUP5 DUP2 LT ISZERO PUSH2 0x478E JUMPI DUP1 CALLDATALOAD PUSH2 0x4781 DUP2 PUSH2 0x4631 JUMP JUMPDEST DUP4 MSTORE SWAP2 DUP4 ADD SWAP2 DUP4 ADD PUSH2 0x476E JUMP JUMPDEST POP SWAP7 SWAP6 POP POP POP POP POP POP JUMP JUMPDEST PUSH1 0x0 DUP1 PUSH1 0x40 DUP4 DUP6 SUB SLT ISZERO PUSH2 0x47AC JUMPI PUSH1 0x0 DUP1 REVERT JUMPDEST DUP3 CALLDATALOAD PUSH1 0x1 PUSH1 0x1 PUSH1 0x40 SHL SUB DUP2 GT ISZERO PUSH2 0x47C2 JUMPI PUSH1 0x0 DUP1 REVERT JUMPDEST PUSH2 0x47CE DUP6 DUP3 DUP7 ADD PUSH2 0x4725 JUMP JUMPDEST SWAP6 PUSH1 0x20 SWAP5 SWAP1 SWAP5 ADD CALLDATALOAD SWAP5 POP POP POP POP JUMP JUMPDEST PUSH4 0x4E487B71 PUSH1 0xE0 SHL PUSH1 0x0 MSTORE PUSH1 0x21 PUSH1 0x4 MSTORE PUSH1 0x24 PUSH1 0x0 REVERT JUMPDEST PUSH1 0x0 DUP2 MLOAD DUP1 DUP5 MSTORE PUSH1 0x20 DUP1 DUP6 ADD SWAP5 POP DUP1 DUP5 ADD PUSH1 0x0 JUMPDEST DUP4 DUP2 LT ISZERO PUSH2 0x482C JUMPI DUP2 MLOAD PUSH1 0x1 PUSH1 0x1 PUSH1 0xA0 SHL SUB AND DUP8 MSTORE SWAP6 DUP3 ADD SWAP6 SWAP1 DUP3 ADD SWAP1 PUSH1 0x1 ADD PUSH2 0x4807 JUMP JUMPDEST POP SWAP5 SWAP6 SWAP5 POP POP POP POP POP JUMP JUMPDEST PUSH1 0x1 PUSH1 0x1 PUSH1 0xA0 SHL SUB DUP8 AND DUP2 MSTORE PUSH1 0x0 PUSH1 0x5 DUP8 LT PUSH2 0x4863 JUMPI PUSH4 0x4E487B71 PUSH1 0xE0 SHL PUSH1 0x0 MSTORE PUSH1 0x21 PUSH1 0x4 MSTORE PUSH1 0x24 PUSH1 0x0 REVERT JUMPDEST DUP7 PUSH1 0x20 DUP4 ADD MSTORE DUP6 PUSH1 0x40 DUP4 ADD MSTORE DUP5 PUSH1 0x60 DUP4 ADD MSTORE DUP4 PUSH1 0x80 DUP4 ADD MSTORE PUSH1 0xC0 PUSH1 0xA0 DUP4 ADD MSTORE PUSH2 0x488F PUSH1 0xC0 DUP4 ADD DUP5 PUSH2 0x47F3 JUMP JUMPDEST SWAP9 SWAP8 POP POP POP POP POP POP POP POP JUMP JUMPDEST PUSH1 0x0 DUP1 PUSH1 0x40 DUP4 DUP6 SUB SLT ISZERO PUSH2 0x48AE JUMPI PUSH1 0x0 DUP1 REVERT JUMPDEST DUP3 CALLDATALOAD PUSH2 0x48B9 DUP2 PUSH2 0x4631 JUMP JUMPDEST SWAP5 PUSH1 0x20 SWAP4 SWAP1 SWAP4 ADD CALLDATALOAD SWAP4 POP POP POP JUMP JUMPDEST PUSH1 0x20 DUP2 MSTORE PUSH1 0x0 PUSH2 0x4663 PUSH1 0x20 DUP4 ADD DUP5 PUSH2 0x47F3 JUMP JUMPDEST PUSH1 0x0 DUP1 PUSH1 0x20 DUP4 DUP6 SUB SLT ISZERO PUSH2 0x48ED JUMPI PUSH1 0x0 DUP1 REVERT JUMPDEST DUP3 CALLDATALOAD PUSH1 0x1 PUSH1 0x1 PUSH1 0x40 SHL SUB DUP1 DUP3 GT ISZERO PUSH2 0x4904 JUMPI PUSH1 0x0 DUP1 REVERT JUMPDEST DUP2 DUP6 ADD SWAP2 POP DUP6 PUSH1 0x1F DUP4 ADD SLT PUSH2 0x4918 JUMPI PUSH1 0x0 DUP1 REVERT JUMPDEST DUP2 CALLDATALOAD DUP2 DUP2 GT ISZERO PUSH2 0x4927 JUMPI PUSH1 0x0 DUP1 REVERT JUMPDEST DUP7 PUSH1 0x20 DUP3 PUSH1 0x5 SHL DUP6 ADD ADD GT ISZERO PUSH2 0x493C JUMPI PUSH1 0x0 DUP1 REVERT JUMPDEST PUSH1 0x20 SWAP3 SWAP1 SWAP3 ADD SWAP7 SWAP2 SWAP6 POP SWAP1 SWAP4 POP POP POP POP JUMP JUMPDEST DUP1 CALLDATALOAD PUSH2 0x1299 DUP2 PUSH2 0x4631 JUMP JUMPDEST PUSH1 0x0 DUP1 DUP4 PUSH1 0x1F DUP5 ADD SLT PUSH2 0x496B JUMPI PUSH1 0x0 DUP1 REVERT JUMPDEST POP DUP2 CALLDATALOAD PUSH1 0x1 PUSH1 0x1 PUSH1 0x40 SHL SUB DUP2 GT ISZERO PUSH2 0x4982 JUMPI PUSH1 0x0 DUP1 REVERT JUMPDEST PUSH1 0x20 DUP4 ADD SWAP2 POP DUP4 PUSH1 0x20 DUP3 DUP6 ADD ADD GT ISZERO PUSH2 0x499A JUMPI PUSH1 0x0 DUP1 REVERT JUMPDEST SWAP3 POP SWAP3 SWAP1 POP JUMP JUMPDEST PUSH1 0x0 DUP1 PUSH1 0x0 DUP1 PUSH1 0x0 DUP1 PUSH1 0x0 DUP1 PUSH1 0x0 DUP1 PUSH1 0x0 PUSH1 0xC0 DUP13 DUP15 SUB SLT ISZERO PUSH2 0x49C2 JUMPI PUSH1 0x0 DUP1 REVERT JUMPDEST PUSH2 0x49CB DUP13 PUSH2 0x494E JUMP JUMPDEST SWAP11 POP PUSH1 0x1 PUSH1 0x1 PUSH1 0x40 SHL SUB DUP1 PUSH1 0x20 DUP15 ADD CALLDATALOAD GT ISZERO PUSH2 0x49E6 JUMPI PUSH1 0x0 DUP1 REVERT JUMPDEST PUSH2 0x49F6 DUP15 PUSH1 0x20 DUP16 ADD CALLDATALOAD DUP16 ADD PUSH2 0x4959 JUMP JUMPDEST SWAP1 SWAP12 POP SWAP10 POP PUSH1 0x40 DUP14 ADD CALLDATALOAD DUP2 LT ISZERO PUSH2 0x4A0C JUMPI PUSH1 0x0 DUP1 REVERT JUMPDEST PUSH2 0x4A1C DUP15 PUSH1 0x40 DUP16 ADD CALLDATALOAD DUP16 ADD PUSH2 0x4959 JUMP JUMPDEST SWAP1 SWAP10 POP SWAP8 POP PUSH1 0x60 DUP14 ADD CALLDATALOAD DUP2 LT ISZERO PUSH2 0x4A32 JUMPI PUSH1 0x0 DUP1 REVERT JUMPDEST PUSH2 0x4A42 DUP15 PUSH1 0x60 DUP16 ADD CALLDATALOAD DUP16 ADD PUSH2 0x4959 JUMP JUMPDEST SWAP1 SWAP8 POP SWAP6 POP PUSH1 0x80 DUP14 ADD CALLDATALOAD DUP2 LT ISZERO PUSH2 0x4A58 JUMPI PUSH1 0x0 DUP1 REVERT JUMPDEST PUSH2 0x4A68 DUP15 PUSH1 0x80 DUP16 ADD CALLDATALOAD DUP16 ADD PUSH2 0x4959 JUMP JUMPDEST SWAP1 SWAP6 POP SWAP4 POP PUSH1 0xA0 DUP14 ADD CALLDATALOAD DUP2 LT ISZERO PUSH2 0x4A7E JUMPI PUSH1 0x0 DUP1 REVERT JUMPDEST POP PUSH2 0x4A8F DUP14 PUSH1 0xA0 DUP15 ADD CALLDATALOAD DUP15 ADD PUSH2 0x4959 JUMP JUMPDEST DUP2 SWAP4 POP DUP1 SWAP3 POP POP POP SWAP3 SWAP6 SWAP9 SWAP12 POP SWAP3 SWAP6 SWAP9 SWAP12 SWAP1 SWAP4 SWAP7 SWAP10 POP JUMP JUMPDEST PUSH1 0x0 DUP2 MLOAD DUP1 DUP5 MSTORE PUSH1 0x0 JUMPDEST DUP2 DUP2 LT ISZERO PUSH2 0x4ACD JUMPI PUSH1 0x20 DUP2 DUP6 ADD DUP2 ADD MLOAD DUP7 DUP4 ADD DUP3 ADD MSTORE ADD PUSH2 0x4AB1 JUMP JUMPDEST POP PUSH1 0x0 PUSH1 0x20 DUP3 DUP7 ADD ADD MSTORE PUSH1 0x20 PUSH1 0x1F NOT PUSH1 0x1F DUP4 ADD AND DUP6 ADD ADD SWAP2 POP POP SWAP3 SWAP2 POP POP JUMP JUMPDEST PUSH1 0xA0 DUP2 MSTORE PUSH1 0x0 PUSH2 0x4B00 PUSH1 0xA0 DUP4 ADD DUP9 PUSH2 0x4AA7 JUMP JUMPDEST DUP3 DUP2 SUB PUSH1 0x20 DUP5 ADD MSTORE PUSH2 0x4B12 DUP2 DUP9 PUSH2 0x4AA7 JUMP JUMPDEST SWAP1 POP DUP3 DUP2 SUB PUSH1 0x40 DUP5 ADD MSTORE PUSH2 0x4B26 DUP2 DUP8 PUSH2 0x4AA7 JUMP JUMPDEST SWAP1 POP DUP3 DUP2 SUB PUSH1 0x60 DUP5 ADD MSTORE PUSH2 0x4B3A DUP2 DUP7 PUSH2 0x4AA7 JUMP JUMPDEST SWAP1 POP DUP3 DUP2 SUB PUSH1 0x80 DUP5 ADD MSTORE PUSH2 0x488F DUP2 DUP6 PUSH2 0x4AA7 JUMP JUMPDEST PUSH1 0x0 DUP3 PUSH1 0x1F DUP4 ADD SLT PUSH2 0x4B5F JUMPI PUSH1 0x0 DUP1 REVERT JUMPDEST DUP2 CALLDATALOAD PUSH1 0x1 PUSH1 0x1 PUSH1 0x40 SHL SUB DUP2 GT ISZERO PUSH2 0x4B78 JUMPI PUSH2 0x4B78 PUSH2 0x46BC JUMP JUMPDEST PUSH2 0x4B8B PUSH1 0x1F DUP3 ADD PUSH1 0x1F NOT AND PUSH1 0x20 ADD PUSH2 0x46D2 JUMP JUMPDEST DUP2 DUP2 MSTORE DUP5 PUSH1 0x20 DUP4 DUP7 ADD ADD GT ISZERO PUSH2 0x4BA0 JUMPI PUSH1 0x0 DUP1 REVERT JUMPDEST DUP2 PUSH1 0x20 DUP6 ADD PUSH1 0x20 DUP4 ADD CALLDATACOPY PUSH1 0x0 SWAP2 DUP2 ADD PUSH1 0x20 ADD SWAP2 SWAP1 SWAP2 MSTORE SWAP4 SWAP3 POP POP POP JUMP JUMPDEST PUSH1 0x0 DUP1 PUSH1 0x0 DUP1 PUSH1 0x0 PUSH1 0xA0 DUP7 DUP9 SUB SLT ISZERO PUSH2 0x4BD5 JUMPI PUSH1 0x0 DUP1 REVERT JUMPDEST DUP6 CALLDATALOAD PUSH1 0x1 PUSH1 0x1 PUSH1 0x40 SHL SUB DUP1 DUP3 GT ISZERO PUSH2 0x4BEC JUMPI PUSH1 0x0 DUP1 REVERT JUMPDEST PUSH2 0x4BF8 DUP10 DUP4 DUP11 ADD PUSH2 0x4B4E JUMP JUMPDEST SWAP7 POP PUSH1 0x20 DUP9 ADD CALLDATALOAD SWAP2 POP DUP1 DUP3 GT ISZERO PUSH2 0x4C0E JUMPI PUSH1 0x0 DUP1 REVERT JUMPDEST PUSH2 0x4C1A DUP10 DUP4 DUP11 ADD PUSH2 0x4B4E JUMP JUMPDEST SWAP6 POP PUSH1 0x40 DUP9 ADD CALLDATALOAD SWAP2 POP DUP1 DUP3 GT ISZERO PUSH2 0x4C30 JUMPI PUSH1 0x0 DUP1 REVERT JUMPDEST PUSH2 0x4C3C DUP10 DUP4 DUP11 ADD PUSH2 0x4B4E JUMP JUMPDEST SWAP5 POP PUSH1 0x60 DUP9 ADD CALLDATALOAD SWAP2 POP DUP1 DUP3 GT ISZERO PUSH2 0x4C52 JUMPI PUSH1 0x0 DUP1 REVERT JUMPDEST PUSH2 0x4C5E DUP10 DUP4 DUP11 ADD PUSH2 0x4B4E JUMP JUMPDEST SWAP4 POP PUSH1 0x80 DUP9 ADD CALLDATALOAD SWAP2 POP DUP1 DUP3 GT ISZERO PUSH2 0x4C74 JUMPI PUSH1 0x0 DUP1 REVERT JUMPDEST POP PUSH2 0x4C81 DUP9 DUP3 DUP10 ADD PUSH2 0x4B4E JUMP JUMPDEST SWAP2 POP POP SWAP3 SWAP6 POP SWAP3 SWAP6 SWAP1 SWAP4 POP JUMP JUMPDEST PUSH1 0x0 DUP1 PUSH1 0x40 DUP4 DUP6 SUB SLT ISZERO PUSH2 0x4CA1 JUMPI PUSH1 0x0 DUP1 REVERT JUMPDEST DUP3 CALLDATALOAD PUSH1 0x1 PUSH1 0x1 PUSH1 0x40 SHL SUB DUP1 DUP3 GT ISZERO PUSH2 0x4CB8 JUMPI PUSH1 0x0 DUP1 REVERT JUMPDEST PUSH2 0x4CC4 DUP7 DUP4 DUP8 ADD PUSH2 0x4725 JUMP JUMPDEST SWAP4 POP PUSH1 0x20 SWAP2 POP DUP2 DUP6 ADD CALLDATALOAD DUP2 DUP2 GT ISZERO PUSH2 0x4CDB JUMPI PUSH1 0x0 DUP1 REVERT JUMPDEST DUP6 ADD PUSH1 0x1F DUP2 ADD DUP8 SGT PUSH2 0x4CEC JUMPI PUSH1 0x0 DUP1 REVERT JUMPDEST DUP1 CALLDATALOAD PUSH2 0x4CFA PUSH2 0x4746 DUP3 PUSH2 0x4702 JUMP JUMPDEST DUP2 DUP2 MSTORE PUSH1 0x5 SWAP2 SWAP1 SWAP2 SHL DUP3 ADD DUP5 ADD SWAP1 DUP5 DUP2 ADD SWAP1 DUP10 DUP4 GT ISZERO PUSH2 0x4D19 JUMPI PUSH1 0x0 DUP1 REVERT JUMPDEST SWAP3 DUP6 ADD SWAP3 JUMPDEST DUP3 DUP5 LT ISZERO PUSH2 0x4D46 JUMPI DUP4 CALLDATALOAD DUP6 DUP2 AND DUP2 EQ PUSH2 0x4D37 JUMPI PUSH1 0x0 DUP1 DUP2 REVERT JUMPDEST DUP3 MSTORE SWAP3 DUP6 ADD SWAP3 SWAP1 DUP6 ADD SWAP1 PUSH2 0x4D1E JUMP JUMPDEST DUP1 SWAP7 POP POP POP POP POP POP POP SWAP3 POP SWAP3 SWAP1 POP JUMP JUMPDEST PUSH4 0x4E487B71 PUSH1 0xE0 SHL PUSH1 0x0 MSTORE PUSH1 0x11 PUSH1 0x4 MSTORE PUSH1 0x24 PUSH1 0x0 REVERT JUMPDEST DUP1 DUP3 ADD DUP1 DUP3 GT ISZERO PUSH2 0x13A8 JUMPI PUSH2 0x13A8 PUSH2 0x4D56 JUMP JUMPDEST PUSH1 0x20 DUP1 DUP3 MSTORE PUSH1 0xC SWAP1 DUP3 ADD MSTORE PUSH12 0x139BDD081A5B9A5D081E595D PUSH1 0xA2 SHL PUSH1 0x40 DUP3 ADD MSTORE PUSH1 0x60 ADD SWAP1 JUMP JUMPDEST DUP2 DUP2 SUB DUP2 DUP2 GT ISZERO PUSH2 0x13A8 JUMPI PUSH2 0x13A8 PUSH2 0x4D56 JUMP JUMPDEST DUP1 DUP3 MUL DUP2 ISZERO DUP3 DUP3 DIV DUP5 EQ OR PUSH2 0x13A8 JUMPI PUSH2 0x13A8 PUSH2 0x4D56 JUMP JUMPDEST PUSH4 0x4E487B71 PUSH1 0xE0 SHL PUSH1 0x0 MSTORE PUSH1 0x12 PUSH1 0x4 MSTORE PUSH1 0x24 PUSH1 0x0 REVERT JUMPDEST PUSH1 0x0 DUP3 PUSH2 0x4DF4 JUMPI PUSH2 0x4DF4 PUSH2 0x4DCF JUMP JUMPDEST POP DIV SWAP1 JUMP JUMPDEST PUSH4 0x4E487B71 PUSH1 0xE0 SHL PUSH1 0x0 MSTORE PUSH1 0x32 PUSH1 0x4 MSTORE PUSH1 0x24 PUSH1 0x0 REVERT JUMPDEST PUSH1 0x0 PUSH1 0x1 DUP3 ADD PUSH2 0x4E21 JUMPI PUSH2 0x4E21 PUSH2 0x4D56 JUMP JUMPDEST POP PUSH1 0x1 ADD SWAP1 JUMP JUMPDEST PUSH1 0x0 DUP3 PUSH2 0x4E37 JUMPI PUSH2 0x4E37 PUSH2 0x4DCF JUMP JUMPDEST POP MOD SWAP1 JUMP JUMPDEST PUSH1 0x0 PUSH1 0x20 DUP3 DUP5 SUB SLT ISZERO PUSH2 0x4E4E JUMPI PUSH1 0x0 DUP1 REVERT JUMPDEST DUP2 MLOAD DUP1 ISZERO ISZERO DUP2 EQ PUSH2 0x4663 JUMPI PUSH1 0x0 DUP1 REVERT JUMPDEST PUSH1 0x1 DUP2 DUP2 SHR SWAP1 DUP3 AND DUP1 PUSH2 0x4E72 JUMPI PUSH1 0x7F DUP3 AND SWAP2 POP JUMPDEST PUSH1 0x20 DUP3 LT DUP2 SUB PUSH2 0x4E92 JUMPI PUSH4 0x4E487B71 PUSH1 0xE0 SHL PUSH1 0x0 MSTORE PUSH1 0x22 PUSH1 0x4 MSTORE PUSH1 0x24 PUSH1 0x0 REVERT JUMPDEST POP SWAP2 SWAP1 POP JUMP JUMPDEST PUSH1 0x1F DUP3 GT ISZERO PUSH2 0x4EE2 JUMPI PUSH1 0x0 DUP2 DUP2 MSTORE PUSH1 0x20 DUP2 KECCAK256 PUSH1 0x1F DUP6 ADD PUSH1 0x5 SHR DUP2 ADD PUSH1 0x20 DUP7 LT ISZERO PUSH2 0x4EBF JUMPI POP DUP1 JUMPDEST PUSH1 0x1F DUP6 ADD PUSH1 0x5 SHR DUP3 ADD SWAP2 POP JUMPDEST DUP2 DUP2 LT ISZERO PUSH2 0x4EDE JUMPI DUP3 DUP2 SSTORE PUSH1 0x1 ADD PUSH2 0x4ECB JUMP JUMPDEST POP POP POP JUMPDEST POP POP POP JUMP JUMPDEST DUP2 MLOAD PUSH1 0x1 PUSH1 0x1 PUSH1 0x40 SHL SUB DUP2 GT ISZERO PUSH2 0x4F00 JUMPI PUSH2 0x4F00 PUSH2 0x46BC JUMP JUMPDEST PUSH2 0x4F14 DUP2 PUSH2 0x4F0E DUP5 SLOAD PUSH2 0x4E5E JUMP JUMPDEST DUP5 PUSH2 0x4E98 JUMP JUMPDEST PUSH1 0x20 DUP1 PUSH1 0x1F DUP4 GT PUSH1 0x1 DUP2 EQ PUSH2 0x4F49 JUMPI PUSH1 0x0 DUP5 ISZERO PUSH2 0x4F31 JUMPI POP DUP6 DUP4 ADD MLOAD JUMPDEST PUSH1 0x0 NOT PUSH1 0x3 DUP7 SWAP1 SHL SHR NOT AND PUSH1 0x1 DUP6 SWAP1 SHL OR DUP6 SSTORE PUSH2 0x4EDE JUMP JUMPDEST PUSH1 0x0 DUP6 DUP2 MSTORE PUSH1 0x20 DUP2 KECCAK256 PUSH1 0x1F NOT DUP7 AND SWAP2 JUMPDEST DUP3 DUP2 LT ISZERO PUSH2 0x4F78 JUMPI DUP9 DUP7 ADD MLOAD DUP3 SSTORE SWAP5 DUP5 ADD SWAP5 PUSH1 0x1 SWAP1 SWAP2 ADD SWAP1 DUP5 ADD PUSH2 0x4F59 JUMP JUMPDEST POP DUP6 DUP3 LT ISZERO PUSH2 0x4F96 JUMPI DUP8 DUP6 ADD MLOAD PUSH1 0x0 NOT PUSH1 0x3 DUP9 SWAP1 SHL PUSH1 0xF8 AND SHR NOT AND DUP2 SSTORE JUMPDEST POP POP POP POP POP PUSH1 0x1 SWAP1 DUP2 SHL ADD SWAP1 SSTORE POP JUMP JUMPDEST DUP5 DUP2 MSTORE PUSH1 0x0 PUSH1 0x20 DUP6 DUP2 DUP5 ADD MSTORE PUSH1 0x80 PUSH1 0x40 DUP5 ADD MSTORE PUSH2 0x4FC6 PUSH1 0x80 DUP5 ADD DUP7 PUSH2 0x47F3 JUMP JUMPDEST DUP4 DUP2 SUB PUSH1 0x60 DUP6 ADD MSTORE DUP5 MLOAD DUP1 DUP3 MSTORE DUP3 DUP7 ADD SWAP2 DUP4 ADD SWAP1 PUSH1 0x0 JUMPDEST DUP2 DUP2 LT ISZERO PUSH2 0x5002 JUMPI DUP4 MLOAD PUSH1 0x1 PUSH1 0x1 PUSH1 0x40 SHL SUB AND DUP4 MSTORE SWAP3 DUP5 ADD SWAP3 SWAP2 DUP5 ADD SWAP2 PUSH1 0x1 ADD PUSH2 0x4FDD JUMP JUMPDEST POP SWAP1 SWAP10 SWAP9 POP POP POP POP POP POP POP POP POP JUMP JUMPDEST PUSH4 0x4E487B71 PUSH1 0xE0 SHL PUSH1 0x0 MSTORE PUSH1 0x31 PUSH1 0x4 MSTORE PUSH1 0x24 PUSH1 0x0 REVERT INVALID LOG2 PUSH5 0x6970667358 0x22 SLT KECCAK256 0xC2 0xA7 0xC3 JUMPDEST SMOD STATICCALL 0xC8 DIFFICULTY DUP6 PUSH23 0x47057764079E7F41B69E72071B27DAA2CA67D80ECE5364 PUSH20 0x6F6C634300081100330000000000000000000000 "
		},
		"gasEstimates": {
			"creation": {
				"codeDepositCost": "4114600",
				"executionCost": "30560",
				"totalCost": "4145160"
			},
			"external": {
				"MaxValidators()": "271",
				"MinimalStakingCoin()": "328",
				"ProposalAddr()": "284",
				"PunishContractAddr()": "373",
				"StakingLockPeriod()": "282",
				"ValidatorContractAddr()": "306",
				"_owner()": "2382",
				"burnPartPercent()": "263",
				"burnStopAmount()": "285",
				"contractCreator(address)": "2663",
				"contractPartPercent()": "327",
				"createOrEditValidator(address,string,string,string,string,string)": "infinite",
				"currentValidatorSet(uint256)": "4726",
				"distributeBlockReward(address[],uint64[])": "infinite",
				"getActiveValidators()": "infinite",
				"getStakingInfo(address,address)": "infinite",
				"getTopValidators()": "infinite",
				"getTotalStakeOfActiveValidators()": "infinite",
				"getValidatorDescription(address)": "infinite",
				"getValidatorInfo(address)": "infinite",
				"highestValidatorsSet(uint256)": "4726",
				"initialize(address[])": "infinite",
				"initialized()": "2434",
				"isActiveValidator(address)": "infinite",
				"isTopValidator(address)": "infinite",
				"lastRewardTime(address)": "2647",
				"minimumValidatorStaking()": "286",
				"owner()": "2443",
				"ownerPartPercent()": "308",
				"reflectionPercentSum(address,uint256)": "2740",
				"removeValidator(address)": "infinite",
				"removeValidatorIncoming(address)": "infinite",
				"renounceOwnership()": "infinite",
				"rewardContract()": "2404",
				"setContractCreator(address)": "27005",
				"setRewardContract(address)": "26898",
				"stake(address)": "infinite",
				"stakeTime(address,address)": "infinite",
				"stakerPartPercent()": "284",
				"totalBurnt()": "2451",
				"totalJailedHB()": "2408",
				"totalStake()": "2385",
				"transferOwnership(address)": "infinite",
				"tryReactive(address)": "infinite",
				"unstake(address)": "infinite",
				"updateActiveValidatorSet(address[],uint256)": "infinite",
				"validateDescription(string,string,string,string,string)": "infinite",
				"validatorPartPercent()": "285",
				"viewStakeReward(address,address)": "infinite",
				"withdrawProfits(address)": "infinite",
				"withdrawStaking(address)": "infinite",
				"withdrawStakingReward(address)": "infinite"
			},
			"internal": {
				"addProfitsToActiveValidatorsByStakePercentExcept(uint256,address)": "infinite",
				"getTotalStakeOfActiveValidatorsExcept(address)": "infinite",
				"tryAddValidatorToHighestSet(address,uint256)": "infinite",
				"tryJailValidator(address)": "infinite",
				"tryRemoveValidatorInHighestSet(address)": "infinite",
				"tryRemoveValidatorIncoming(address)": "infinite"
			}
		},
		"methodIdentifiers": {
			"MaxValidators()": "c967f90f",
			"MinimalStakingCoin()": "be645692",
			"ProposalAddr()": "6233be5d",
			"PunishContractAddr()": "1b5e358c",
			"StakingLockPeriod()": "db78dd28",
			"ValidatorContractAddr()": "3a061bd3",
			"_owner()": "b2bdfa7b",
			"burnPartPercent()": "37dbc8cc",
			"burnStopAmount()": "9d7714ce",
			"contractCreator(address)": "d571770c",
			"contractPartPercent()": "fca737c0",
			"createOrEditValidator(address,string,string,string,string,string)": "a406fcb7",
			"currentValidatorSet(uint256)": "6969a25c",
			"distributeBlockReward(address[],uint64[])": "bb1c0310",
			"getActiveValidators()": "9de70258",
			"getStakingInfo(address,address)": "7f4f95fa",
			"getTopValidators()": "afeea115",
			"getTotalStakeOfActiveValidators()": "c253c384",
			"getValidatorDescription(address)": "a43569b3",
			"getValidatorInfo(address)": "8a11d7c9",
			"highestValidatorsSet(uint256)": "4b3d500b",
			"initialize(address[])": "a224cee7",
			"initialized()": "158ef93e",
			"isActiveValidator(address)": "40550a1c",
			"isTopValidator(address)": "98e3b626",
			"lastRewardTime(address)": "3b5d441e",
			"minimumValidatorStaking()": "0976c65d",
			"owner()": "8da5cb5b",
			"ownerPartPercent()": "3225ce61",
			"reflectionPercentSum(address,uint256)": "92f2c437",
			"removeValidator(address)": "40a141ff",
			"removeValidatorIncoming(address)": "5dd09590",
			"renounceOwnership()": "715018a6",
			"rewardContract()": "6ea69d62",
			"setContractCreator(address)": "bd10ba76",
			"setRewardContract(address)": "51508f0a",
			"stake(address)": "26476204",
			"stakeTime(address,address)": "01aec704",
			"stakerPartPercent()": "cd779d21",
			"totalBurnt()": "966ff650",
			"totalJailedHB()": "1303f7cf",
			"totalStake()": "8b0e9f3f",
			"transferOwnership(address)": "f2fde38b",
			"tryReactive(address)": "82bd3d92",
			"unstake(address)": "f2888dbb",
			"updateActiveValidatorSet(address[],uint256)": "6846992a",
			"validateDescription(string,string,string,string,string)": "b6c88519",
			"validatorPartPercent()": "42127ee7",
			"viewStakeReward(address,address)": "3ae898ca",
			"withdrawProfits(address)": "00362a77",
			"withdrawStaking(address)": "222d3b05",
			"withdrawStakingReward(address)": "72d30a70"
		}
	},
	"abi": [
		{
			"anonymous": false,
			"inputs": [
				{
					"indexed": true,
					"internalType": "address",
					"name": "val",
					"type": "address"
				},
				{
					"indexed": false,
					"internalType": "uint256",
					"name": "time",
					"type": "uint256"
				}
			],
			"name": "LogAddToTopValidators",
			"type": "event"
		},
		{
			"anonymous": false,
			"inputs": [
				{
					"indexed": true,
					"internalType": "address",
					"name": "val",
					"type": "address"
				},
				{
					"indexed": true,
					"internalType": "address",
					"name": "fee",
					"type": "address"
				},
				{
					"indexed": false,
					"internalType": "uint256",
					"name": "time",
					"type": "uint256"
				}
			],
			"name": "LogCreateValidator",
			"type": "event"
		},
		{
			"anonymous": false,
			"inputs": [
				{
					"indexed": true,
					"internalType": "address",
					"name": "coinbase",
					"type": "address"
				},
				{
					"indexed": false,
					"internalType": "uint256",
					"name": "blockReward",
					"type": "uint256"
				},
				{
					"indexed": false,
					"internalType": "uint256",
					"name": "time",
					"type": "uint256"
				},
				{
					"indexed": false,
					"internalType": "address[]",
					"name": "To",
					"type": "address[]"
				},
				{
					"indexed": false,
					"internalType": "uint64[]",
					"name": "Gass",
					"type": "uint64[]"
				}
			],
			"name": "LogDistributeBlockReward",
			"type": "event"
		},
		{
			"anonymous": false,
			"inputs": [
				{
					"indexed": true,
					"internalType": "address",
					"name": "val",
					"type": "address"
				},
				{
					"indexed": true,
					"internalType": "address",
					"name": "fee",
					"type": "address"
				},
				{
					"indexed": false,
					"internalType": "uint256",
					"name": "time",
					"type": "uint256"
				}
			],
			"name": "LogEditValidator",
			"type": "event"
		},
		{
			"anonymous": false,
			"inputs": [
				{
					"indexed": true,
					"internalType": "address",
					"name": "val",
					"type": "address"
				},
				{
					"indexed": false,
					"internalType": "uint256",
					"name": "time",
					"type": "uint256"
				}
			],
			"name": "LogReactive",
			"type": "event"
		},
		{
			"anonymous": false,
			"inputs": [
				{
					"indexed": true,
					"internalType": "address",
					"name": "val",
					"type": "address"
				},
				{
					"indexed": false,
					"internalType": "uint256",
					"name": "time",
					"type": "uint256"
				}
			],
			"name": "LogRemoveFromTopValidators",
			"type": "event"
		},
		{
			"anonymous": false,
			"inputs": [
				{
					"indexed": true,
					"internalType": "address",
					"name": "val",
					"type": "address"
				},
				{
					"indexed": false,
					"internalType": "uint256",
					"name": "hb",
					"type": "uint256"
				},
				{
					"indexed": false,
					"internalType": "uint256",
					"name": "time",
					"type": "uint256"
				}
			],
			"name": "LogRemoveValidator",
			"type": "event"
		},
		{
			"anonymous": false,
			"inputs": [
				{
					"indexed": true,
					"internalType": "address",
					"name": "val",
					"type": "address"
				},
				{
					"indexed": false,
					"internalType": "uint256",
					"name": "hb",
					"type": "uint256"
				},
				{
					"indexed": false,
					"internalType": "uint256",
					"name": "time",
					"type": "uint256"
				}
			],
			"name": "LogRemoveValidatorIncoming",
			"type": "event"
		},
		{
			"anonymous": false,
			"inputs": [
				{
					"indexed": true,
					"internalType": "address",
					"name": "staker",
					"type": "address"
				},
				{
					"indexed": true,
					"internalType": "address",
					"name": "val",
					"type": "address"
				},
				{
					"indexed": false,
					"internalType": "uint256",
					"name": "staking",
					"type": "uint256"
				},
				{
					"indexed": false,
					"internalType": "uint256",
					"name": "time",
					"type": "uint256"
				}
			],
			"name": "LogStake",
			"type": "event"
		},
		{
			"anonymous": false,
			"inputs": [
				{
					"indexed": true,
					"internalType": "address",
					"name": "staker",
					"type": "address"
				},
				{
					"indexed": true,
					"internalType": "address",
					"name": "val",
					"type": "address"
				},
				{
					"indexed": false,
					"internalType": "uint256",
					"name": "amount",
					"type": "uint256"
				},
				{
					"indexed": false,
					"internalType": "uint256",
					"name": "time",
					"type": "uint256"
				}
			],
			"name": "LogUnstake",
			"type": "event"
		},
		{
			"anonymous": false,
			"inputs": [
				{
					"indexed": false,
					"internalType": "address[]",
					"name": "newSet",
					"type": "address[]"
				}
			],
			"name": "LogUpdateValidator",
			"type": "event"
		},
		{
			"anonymous": false,
			"inputs": [
				{
					"indexed": true,
					"internalType": "address",
					"name": "val",
					"type": "address"
				},
				{
					"indexed": true,
					"internalType": "address",
					"name": "fee",
					"type": "address"
				},
				{
					"indexed": false,
					"internalType": "uint256",
					"name": "hb",
					"type": "uint256"
				},
				{
					"indexed": false,
					"internalType": "uint256",
					"name": "time",
					"type": "uint256"
				}
			],
			"name": "LogWithdrawProfits",
			"type": "event"
		},
		{
			"anonymous": false,
			"inputs": [
				{
					"indexed": true,
					"internalType": "address",
					"name": "staker",
					"type": "address"
				},
				{
					"indexed": true,
					"internalType": "address",
					"name": "val",
					"type": "address"
				},
				{
					"indexed": false,
					"internalType": "uint256",
					"name": "amount",
					"type": "uint256"
				},
				{
					"indexed": false,
					"internalType": "uint256",
					"name": "time",
					"type": "uint256"
				}
			],
			"name": "LogWithdrawStaking",
			"type": "event"
		},
		{
			"anonymous": false,
			"inputs": [
				{
					"indexed": true,
					"internalType": "address",
					"name": "previousOwner",
					"type": "address"
				},
				{
					"indexed": true,
					"internalType": "address",
					"name": "newOwner",
					"type": "address"
				}
			],
			"name": "OwnershipTransferred",
			"type": "event"
		},
		{
			"anonymous": false,
			"inputs": [
				{
					"indexed": false,
					"internalType": "address",
					"name": "user",
					"type": "address"
				},
				{
					"indexed": false,
					"internalType": "address",
					"name": "validator",
					"type": "address"
				},
				{
					"indexed": false,
					"internalType": "uint256",
					"name": "reward",
					"type": "uint256"
				},
				{
					"indexed": false,
					"internalType": "uint256",
					"name": "timeStamp",
					"type": "uint256"
				}
			],
			"name": "withdrawStakingRewardEv",
			"type": "event"
		},
		{
			"inputs": [],
			"name": "MaxValidators",
			"outputs": [
				{
					"internalType": "uint16",
					"name": "",
					"type": "uint16"
				}
			],
			"stateMutability": "view",
			"type": "function"
		},
		{
			"inputs": [],
			"name": "MinimalStakingCoin",
			"outputs": [
				{
					"internalType": "uint256",
					"name": "",
					"type": "uint256"
				}
			],
			"stateMutability": "view",
			"type": "function"
		},
		{
			"inputs": [],
			"name": "ProposalAddr",
			"outputs": [
				{
					"internalType": "address",
					"name": "",
					"type": "address"
				}
			],
			"stateMutability": "view",
			"type": "function"
		},
		{
			"inputs": [],
			"name": "PunishContractAddr",
			"outputs": [
				{
					"internalType": "address",
					"name": "",
					"type": "address"
				}
			],
			"stateMutability": "view",
			"type": "function"
		},
		{
			"inputs": [],
			"name": "StakingLockPeriod",
			"outputs": [
				{
					"internalType": "uint64",
					"name": "",
					"type": "uint64"
				}
			],
			"stateMutability": "view",
			"type": "function"
		},
		{
			"inputs": [],
			"name": "ValidatorContractAddr",
			"outputs": [
				{
					"internalType": "address",
					"name": "",
					"type": "address"
				}
			],
			"stateMutability": "view",
			"type": "function"
		},
		{
			"inputs": [],
			"name": "_owner",
			"outputs": [
				{
					"internalType": "address",
					"name": "",
					"type": "address"
				}
			],
			"stateMutability": "view",
			"type": "function"
		},
		{
			"inputs": [],
			"name": "burnPartPercent",
			"outputs": [
				{
					"internalType": "uint256",
					"name": "",
					"type": "uint256"
				}
			],
			"stateMutability": "view",
			"type": "function"
		},
		{
			"inputs": [],
			"name": "burnStopAmount",
			"outputs": [
				{
					"internalType": "uint256",
					"name": "",
					"type": "uint256"
				}
			],
			"stateMutability": "view",
			"type": "function"
		},
		{
			"inputs": [
				{
					"internalType": "address",
					"name": "",
					"type": "address"
				}
			],
			"name": "contractCreator",
			"outputs": [
				{
					"internalType": "address",
					"name": "",
					"type": "address"
				}
			],
			"stateMutability": "view",
			"type": "function"
		},
		{
			"inputs": [],
			"name": "contractPartPercent",
			"outputs": [
				{
					"internalType": "uint256",
					"name": "",
					"type": "uint256"
				}
			],
			"stateMutability": "view",
			"type": "function"
		},
		{
			"inputs": [
				{
					"internalType": "address payable",
					"name": "feeAddr",
					"type": "address"
				},
				{
					"internalType": "string",
					"name": "moniker",
					"type": "string"
				},
				{
					"internalType": "string",
					"name": "identity",
					"type": "string"
				},
				{
					"internalType": "string",
					"name": "website",
					"type": "string"
				},
				{
					"internalType": "string",
					"name": "email",
					"type": "string"
				},
				{
					"internalType": "string",
					"name": "details",
					"type": "string"
				}
			],
			"name": "createOrEditValidator",
			"outputs": [
				{
					"internalType": "bool",
					"name": "",
					"type": "bool"
				}
			],
			"stateMutability": "payable",
			"type": "function"
		},
		{
			"inputs": [
				{
					"internalType": "uint256",
					"name": "",
					"type": "uint256"
				}
			],
			"name": "currentValidatorSet",
			"outputs": [
				{
					"internalType": "address",
					"name": "",
					"type": "address"
				}
			],
			"stateMutability": "view",
			"type": "function"
		},
		{
			"inputs": [
				{
					"internalType": "address[]",
					"name": "_to",
					"type": "address[]"
				},
				{
					"internalType": "uint64[]",
					"name": "_gass",
					"type": "uint64[]"
				}
			],
			"name": "distributeBlockReward",
			"outputs": [],
			"stateMutability": "payable",
			"type": "function"
		},
		{
			"inputs": [],
			"name": "getActiveValidators",
			"outputs": [
				{
					"internalType": "address[]",
					"name": "",
					"type": "address[]"
				}
			],
			"stateMutability": "view",
			"type": "function"
		},
		{
			"inputs": [
				{
					"internalType": "address",
					"name": "staker",
					"type": "address"
				},
				{
					"internalType": "address",
					"name": "val",
					"type": "address"
				}
			],
			"name": "getStakingInfo",
			"outputs": [
				{
					"internalType": "uint256",
					"name": "",
					"type": "uint256"
				},
				{
					"internalType": "uint256",
					"name": "",
					"type": "uint256"
				},
				{
					"internalType": "uint256",
					"name": "",
					"type": "uint256"
				}
			],
			"stateMutability": "view",
			"type": "function"
		},
		{
			"inputs": [],
			"name": "getTopValidators",
			"outputs": [
				{
					"internalType": "address[]",
					"name": "",
					"type": "address[]"
				}
			],
			"stateMutability": "view",
			"type": "function"
		},
		{
			"inputs": [],
			"name": "getTotalStakeOfActiveValidators",
			"outputs": [
				{
					"internalType": "uint256",
					"name": "total",
					"type": "uint256"
				},
				{
					"internalType": "uint256",
					"name": "len",
					"type": "uint256"
				}
			],
			"stateMutability": "view",
			"type": "function"
		},
		{
			"inputs": [
				{
					"internalType": "address",
					"name": "val",
					"type": "address"
				}
			],
			"name": "getValidatorDescription",
			"outputs": [
				{
					"internalType": "string",
					"name": "",
					"type": "string"
				},
				{
					"internalType": "string",
					"name": "",
					"type": "string"
				},
				{
					"internalType": "string",
					"name": "",
					"type": "string"
				},
				{
					"internalType": "string",
					"name": "",
					"type": "string"
				},
				{
					"internalType": "string",
					"name": "",
					"type": "string"
				}
			],
			"stateMutability": "view",
			"type": "function"
		},
		{
			"inputs": [
				{
					"internalType": "address",
					"name": "val",
					"type": "address"
				}
			],
			"name": "getValidatorInfo",
			"outputs": [
				{
					"internalType": "address payable",
					"name": "",
					"type": "address"
				},
				{
					"internalType": "enum Validators.Status",
					"name": "",
					"type": "uint8"
				},
				{
					"internalType": "uint256",
					"name": "",
					"type": "uint256"
				},
				{
					"internalType": "uint256",
					"name": "",
					"type": "uint256"
				},
				{
					"internalType": "uint256",
					"name": "",
					"type": "uint256"
				},
				{
					"internalType": "address[]",
					"name": "",
					"type": "address[]"
				}
			],
			"stateMutability": "view",
			"type": "function"
		},
		{
			"inputs": [
				{
					"internalType": "uint256",
					"name": "",
					"type": "uint256"
				}
			],
			"name": "highestValidatorsSet",
			"outputs": [
				{
					"internalType": "address",
					"name": "",
					"type": "address"
				}
			],
			"stateMutability": "view",
			"type": "function"
		},
		{
			"inputs": [
				{
					"internalType": "address[]",
					"name": "vals",
					"type": "address[]"
				}
			],
			"name": "initialize",
			"outputs": [],
			"stateMutability": "nonpayable",
			"type": "function"
		},
		{
			"inputs": [],
			"name": "initialized",
			"outputs": [
				{
					"internalType": "bool",
					"name": "",
					"type": "bool"
				}
			],
			"stateMutability": "view",
			"type": "function"
		},
		{
			"inputs": [
				{
					"internalType": "address",
					"name": "who",
					"type": "address"
				}
			],
			"name": "isActiveValidator",
			"outputs": [
				{
					"internalType": "bool",
					"name": "",
					"type": "bool"
				}
			],
			"stateMutability": "view",
			"type": "function"
		},
		{
			"inputs": [
				{
					"internalType": "address",
					"name": "who",
					"type": "address"
				}
			],
			"name": "isTopValidator",
			"outputs": [
				{
					"internalType": "bool",
					"name": "",
					"type": "bool"
				}
			],
			"stateMutability": "view",
			"type": "function"
		},
		{
			"inputs": [
				{
					"internalType": "address",
					"name": "",
					"type": "address"
				}
			],
			"name": "lastRewardTime",
			"outputs": [
				{
					"internalType": "uint256",
					"name": "",
					"type": "uint256"
				}
			],
			"stateMutability": "view",
			"type": "function"
		},
		{
			"inputs": [],
			"name": "minimumValidatorStaking",
			"outputs": [
				{
					"internalType": "uint256",
					"name": "",
					"type": "uint256"
				}
			],
			"stateMutability": "view",
			"type": "function"
		},
		{
			"inputs": [],
			"name": "owner",
			"outputs": [
				{
					"internalType": "address",
					"name": "",
					"type": "address"
				}
			],
			"stateMutability": "view",
			"type": "function"
		},
		{
			"inputs": [],
			"name": "ownerPartPercent",
			"outputs": [
				{
					"internalType": "uint256",
					"name": "",
					"type": "uint256"
				}
			],
			"stateMutability": "view",
			"type": "function"
		},
		{
			"inputs": [
				{
					"internalType": "address",
					"name": "",
					"type": "address"
				},
				{
					"internalType": "uint256",
					"name": "",
					"type": "uint256"
				}
			],
			"name": "reflectionPercentSum",
			"outputs": [
				{
					"internalType": "uint256",
					"name": "",
					"type": "uint256"
				}
			],
			"stateMutability": "view",
			"type": "function"
		},
		{
			"inputs": [
				{
					"internalType": "address",
					"name": "val",
					"type": "address"
				}
			],
			"name": "removeValidator",
			"outputs": [],
			"stateMutability": "nonpayable",
			"type": "function"
		},
		{
			"inputs": [
				{
					"internalType": "address",
					"name": "val",
					"type": "address"
				}
			],
			"name": "removeValidatorIncoming",
			"outputs": [],
			"stateMutability": "nonpayable",
			"type": "function"
		},
		{
			"inputs": [],
			"name": "renounceOwnership",
			"outputs": [],
			"stateMutability": "nonpayable",
			"type": "function"
		},
		{
			"inputs": [],
			"name": "rewardContract",
			"outputs": [
				{
					"internalType": "address",
					"name": "",
					"type": "address"
				}
			],
			"stateMutability": "view",
			"type": "function"
		},
		{
			"inputs": [
				{
					"internalType": "address",
					"name": "_contract",
					"type": "address"
				}
			],
			"name": "setContractCreator",
			"outputs": [
				{
					"internalType": "bool",
					"name": "",
					"type": "bool"
				}
			],
			"stateMutability": "nonpayable",
			"type": "function"
		},
		{
			"inputs": [
				{
					"internalType": "address",
					"name": "_address",
					"type": "address"
				}
			],
			"name": "setRewardContract",
			"outputs": [],
			"stateMutability": "nonpayable",
			"type": "function"
		},
		{
			"inputs": [
				{
					"internalType": "address",
					"name": "validator",
					"type": "address"
				}
			],
			"name": "stake",
			"outputs": [
				{
					"internalType": "bool",
					"name": "",
					"type": "bool"
				}
			],
			"stateMutability": "payable",
			"type": "function"
		},
		{
			"inputs": [
				{
					"internalType": "address",
					"name": "",
					"type": "address"
				},
				{
					"internalType": "address",
					"name": "",
					"type": "address"
				}
			],
			"name": "stakeTime",
			"outputs": [
				{
					"internalType": "uint256",
					"name": "",
					"type": "uint256"
				}
			],
			"stateMutability": "view",
			"type": "function"
		},
		{
			"inputs": [],
			"name": "stakerPartPercent",
			"outputs": [
				{
					"internalType": "uint256",
					"name": "",
					"type": "uint256"
				}
			],
			"stateMutability": "view",
			"type": "function"
		},
		{
			"inputs": [],
			"name": "totalBurnt",
			"outputs": [
				{
					"internalType": "uint256",
					"name": "",
					"type": "uint256"
				}
			],
			"stateMutability": "view",
			"type": "function"
		},
		{
			"inputs": [],
			"name": "totalJailedHB",
			"outputs": [
				{
					"internalType": "uint256",
					"name": "",
					"type": "uint256"
				}
			],
			"stateMutability": "view",
			"type": "function"
		},
		{
			"inputs": [],
			"name": "totalStake",
			"outputs": [
				{
					"internalType": "uint256",
					"name": "",
					"type": "uint256"
				}
			],
			"stateMutability": "view",
			"type": "function"
		},
		{
			"inputs": [
				{
					"internalType": "address",
					"name": "newOwner",
					"type": "address"
				}
			],
			"name": "transferOwnership",
			"outputs": [],
			"stateMutability": "nonpayable",
			"type": "function"
		},
		{
			"inputs": [
				{
					"internalType": "address",
					"name": "validator",
					"type": "address"
				}
			],
			"name": "tryReactive",
			"outputs": [
				{
					"internalType": "bool",
					"name": "",
					"type": "bool"
				}
			],
			"stateMutability": "nonpayable",
			"type": "function"
		},
		{
			"inputs": [
				{
					"internalType": "address",
					"name": "validator",
					"type": "address"
				}
			],
			"name": "unstake",
			"outputs": [
				{
					"internalType": "bool",
					"name": "",
					"type": "bool"
				}
			],
			"stateMutability": "nonpayable",
			"type": "function"
		},
		{
			"inputs": [
				{
					"internalType": "address[]",
					"name": "newSet",
					"type": "address[]"
				},
				{
					"internalType": "uint256",
					"name": "epoch",
					"type": "uint256"
				}
			],
			"name": "updateActiveValidatorSet",
			"outputs": [],
			"stateMutability": "nonpayable",
			"type": "function"
		},
		{
			"inputs": [
				{
					"internalType": "string",
					"name": "moniker",
					"type": "string"
				},
				{
					"internalType": "string",
					"name": "identity",
					"type": "string"
				},
				{
					"internalType": "string",
					"name": "website",
					"type": "string"
				},
				{
					"internalType": "string",
					"name": "email",
					"type": "string"
				},
				{
					"internalType": "string",
					"name": "details",
					"type": "string"
				}
			],
			"name": "validateDescription",
			"outputs": [
				{
					"internalType": "bool",
					"name": "",
					"type": "bool"
				}
			],
			"stateMutability": "pure",
			"type": "function"
		},
		{
			"inputs": [],
			"name": "validatorPartPercent",
			"outputs": [
				{
					"internalType": "uint256",
					"name": "",
					"type": "uint256"
				}
			],
			"stateMutability": "view",
			"type": "function"
		},
		{
			"inputs": [
				{
					"internalType": "address",
					"name": "_staker",
					"type": "address"
				},
				{
					"internalType": "address",
					"name": "_validator",
					"type": "address"
				}
			],
			"name": "viewStakeReward",
			"outputs": [
				{
					"internalType": "uint256",
					"name": "",
					"type": "uint256"
				}
			],
			"stateMutability": "view",
			"type": "function"
		},
		{
			"inputs": [
				{
					"internalType": "address",
					"name": "validator",
					"type": "address"
				}
			],
			"name": "withdrawProfits",
			"outputs": [
				{
					"internalType": "bool",
					"name": "",
					"type": "bool"
				}
			],
			"stateMutability": "nonpayable",
			"type": "function"
		},
		{
			"inputs": [
				{
					"internalType": "address",
					"name": "validator",
					"type": "address"
				}
			],
			"name": "withdrawStaking",
			"outputs": [
				{
					"internalType": "bool",
					"name": "",
					"type": "bool"
				}
			],
			"stateMutability": "nonpayable",
			"type": "function"
		},
		{
			"inputs": [
				{
					"internalType": "address",
					"name": "validator",
					"type": "address"
				}
			],
			"name": "withdrawStakingReward",
			"outputs": [
				{
					"internalType": "bool",
					"name": "",
					"type": "bool"
				}
			],
			"stateMutability": "nonpayable",
			"type": "function"
		}
	]
}